:020000040800F2
:10000000F8CB00209D0100086F2900087910000836
:100010006D2900084703000899300008000000001F
:100020000000000000000000000000004F2F00084A
:10003000590300080000000071290008512F000832
:10004000B7010008B7010008B7010008B7010008B0
:10005000B7010008B7010008B7010008B7010008A0
:10006000B7010008B7010008B7010008B701000890
:10007000B7010008B7010008B7010008B701000880
:10008000B7010008B7010008B7010008B701000870
:10009000B7010008B7010008B7010008B701000860
:1000A000B7010008B7010008B7010008B701000850
:1000B000B7010008B7010008B7010008B701000840
:1000C000B7010008B7010008B7010008B701000830
:1000D000B7010008B7010008B7010008B701000820
:1000E000B7010008B7010008B7010008B701000810
:1000F000B7010008B7010008B7010008B701000800
:10010000B7010008B7010008B7010008B7010008EF
:10011000B7010008B7010008B7010008B7010008DF
:10012000B7010008B701000849030008B70100083B
:10013000B7010008B7010008B7010008B7010008BF
:10014000B7010008B7010008B7010008B7010008AF
:100150004B0300084D030008B7010008B701000871
:10016000B7010008B7010008B7010008B70100088F
:10017000B7010008B7010008B7010008000000003F
:10018000B7010008B7010008DFF80CD000F09AF8BA
:1001900000480047BDF60008F8CB0020064880471D
:1001A00006480047FEE7FEE7FEE7FEE7FEE7FEE75C
:1001B000FEE7FEE7FEE7FEE74130000889010008A0
:1001C0002DE9F05F0546002092469B46884606468C
:1001D000814640241BE0284641464746224600F01F
:1001E00061F853465A46C01A914110D31146184639
:1001F000224600F048F82D1A67EB01084F462246C8
:100200000120002100F03FF817EB00094E41201EAD
:10021000A4F10104DFDC484631462A464346BDE8E6
:10022000F09F10B5431A934209D28318881803E04F
:1002300010F8011D03F8011D521EF9D210BD40EA4D
:1002400001039B0703D009E008C9121F08C0042A54
:10025000FAD203E011F8013B00F8013B521EF9D23B
:1002600010BDD2B201E000F8012B491EFBD270474D
:100270000022F6E710B513460A4604461946FFF772
:10028000F0FF204610BD202A04DB203A00FA02F1DC
:10029000002070479140C2F1200320FA03F3194374
:1002A00090407047202A04DB203A21FA02F0002116
:1002B000704721FA02F3D040C2F120029140084376
:1002C00019467047064C074D06E0E06840F0010310
:1002D00094E8070098471034AC42F6D3FFF758FF74
:1002E0003CC801085CC8010870B58D1810F8014BB6
:1002F00014F0030201D110F8012B231106D110F8DC
:10030000013B03E010F8016B01F8016B521EF9D1BB
:10031000ABB110F8012B04F00C048A1A0C2C03D09A
:10032000A2EB84129B1C08E010F8014BA2EB042204
:10033000F8E712F8014B01F8014B5B1EF9D5A94211
:10034000D4D3002070BDFEE770477047014800F02D
:1003500005B8000034740020704770472DE9F84359
:1003600004460027009773484FF41651A56D0068A6
:10037000B0FBF1F92E6894F85C00082101FA00F056
:10038000304211D02068026812F0040F0CD00268CD
:1003900022F00402026094F85C0001FA00F0A86008
:1003A000606D40F00100606594F85C004FF001085A
:1003B00008FA00F0304209D02168496911F0800F35
:1003C00004D0A860606D40F00200606594F85C1095
:1003D00004208840304209D02168096811F0020FDA
:1003E00004D0A860606D40F00400606594F85C1073
:1003F00010208840304220D02168096811F0080F91
:100400001BD0A8602068016811F4802F09D0006813
:1004100010F4002F02D0A16C79B10CE0216C51B91D
:100420000BE0016811F4807F03D1016821F008011D
:100430000160216C09B12046884794F85C102020A7
:10044000884030424AD02168096811F0100F45D029
:10045000A86094F8350005282068016809D011F4D7
:10046000802F2BD0006810F4002F24D0E16B21B333
:1004700032E021F0160101602068416921F080011D
:100480004161206C002804BFA06C002804D02068C3
:10049000016821F00801016094F85C004FF03F0111
:1004A00001FA00F0A86084F8347084F83580216D7A
:1004B000D1BBBDE8F883616C71B90FE0016811F43C
:1004C000807F07D1016821F01001016084F8347049
:1004D00084F83580E16B09B120468847606D0028BB
:1004E00008BFBDE8F883606D10F0010F17D04FF022
:1004F000050084F835002068016821F001010160E1
:10050000009800F101000090484504D82068006878
:1005100010F0010FF4D184F8347084F83580E16C68
:10052000002908BFBDE8F883204601B0BDE8F043CC
:10053000084700006804002070B5044600F0DCF9AC
:100540000546002C04BF012070BD002684F83460ED
:10055000022084F835002068016821F00101016063
:100560002068006810F0010F10D000BF00F0C4F93F
:10057000401B052805D920206065032084F835003C
:1005800070BD2068006810F0010FEFD12168086885
:100590003D4A1040D4E901231A43D4E9033C43EA1D
:1005A0000C031A4363691A43A3691A43E3691A43A4
:1005B000236A1A431043626A042A03D1D4E90B2345
:1005C0001A4310430860D4F800C0DCF8140001237B
:1005D00020F00701606A40EA0102042837D1A16ACD
:1005E000E06A0A4318B3A56955B1B5F5005F14D0A8
:1005F00000291CBF0129022921D003291CD026E093
:1006000019B1012905D0022921D110F0807F1ED017
:1006100015E0B0F1C07F1AD111E081B1012907D0F6
:1006200002290CD0032908BFB0F1C07F07D00EE02B
:1006300010F0807F03D10AE010F0807F07D04FF0E8
:100640004000606584F835304FF0010070BDCCF893
:10065000142020680D4AC1B2A1F11001A2FB0121B2
:100660000B4A4FEA11110329525CE2656FF309004E
:1006700088BF001D3F219140A0658160666584F8B8
:100680003530002070BD00003F8010F0ABAAAAAA50
:1006900058C6010870B5044600F02EF90546B4F1BD
:1006A000FF3F02D004480078044400F025F9401BC5
:1006B000A042FAD370BD00005C0400202DE9F84F81
:1006C0000022884EDFF820E201274FF0030A4FF0A6
:1006D0000F0800BF0B6807FA02F42340A34240F062
:1006E000FB80D1F804C0BCF1020F18BFBCF1120F9F
:1006F00015D14FEAD20C00EB8C0CDCF820504FEAFD
:1007000042794FEAD96908FA09FB25EA0B05D1F8C5
:1007100010B00BFA09F949EA0505CCF82050D0F8D9
:1007200000904FEA420C91F804B00AFA0CF50BF075
:10073000030B29EA05090BFA0CFB4BEA0909C0F87F
:100740000090D1F80490B9F1010F18BFB9F1020F70
:1007500005D0B9F1110F18BFB9F1120F18D1D0F8A7
:100760000890D1F80CB029EA05090BFA0CFB4BEA0A
:100770000909C0F80890D0F8049029EA040491F817
:100780000490C9F3001909FA02F949EA0404446023
:10079000C46824EA05048D6805FA0CFC4CEA040CD4
:1007A000C0F80CC0D1F804C01CF0805F7ED0D6F831
:1007B00000C04CF4804CC6F800C0D6F800C00CF461
:1007C000804CCDF800C022F0030C0CF1804505F5FB
:1007D0009835D5F808C84FEA82744FEA147408FABD
:1007E00004F92CEA090CA0F18049B9F5003938D098
:1007F000A0F18049B9F5013908BF4FF0010930D0A7
:10080000A0F18049B9F5023908BF4FF0020928D09C
:10081000A0F18049B9F5033908BF4FF0030920D092
:10082000A0F18049B9F5043908BF4FF0040918D088
:10083000A0F18049B9F5053908BF4FF0050910D07E
:10084000A0F18049B9F5063908BF4FF0060908D074
:10085000A0F18049B9F507390CBF4FF007094FF0F7
:10086000080909FA04F444EA0C0CC5F808C8DEF8D3
:1008700000C04C682CEA030C14F4803F18BF4CEA0B
:10088000030CCEF800C0194CD4F800C04D682CEA17
:10089000030C15F4003F18BF4CEA030CC4F800C069
:1008A000134CD4F800C02CEA030C00E014E04D68AF
:1008B00015F4801F18BF4CEA030CC4F800C00D4C9F
:1008C000D4F800C04D682CEA030C15F4001F18BFC3
:1008D0004CEA030CC4F800C0521C102AFFF4FAAE14
:1008E000BDE8F88F44380240003C0140043C014020
:1008F000083C01400C3C0140014840687047000042
:10090000100000200B4810B5016841F4007101602F
:10091000016841F480610160016841F48071016007
:10092000032000F081F8002000F006F800F024F821
:10093000002010BD003C024070B50D4D04464FF440
:100940007A712878B1FBF0F00A490968B1FBF0F040
:1009500000F07CFB48B9102C07D200222146501E23
:1009600000F030F800206C6070BD012070BD000008
:100970005C040020680400200A4881B0016841F44A
:1009800080410160006800F48040009006480168E2
:1009900041F080510160006800F08050009001B08B
:1009A00070470000443802404038024000F01F0108
:1009B000012202FA01F14009800000F1E020C0F8B4
:1009C00000117047174B10B41B68C3F30223C3F127
:1009D000070CBCF1040F88BF4FF0040C1C1D072C42
:1009E00034BF0023DB1E012404FA0CFCACF1010C23
:1009F0000CEA0101994004FA03F35B1E1A4011430B
:100A000000284FEA0111A1BF00F1E02080F8001496
:100A100010BC704700F00F0000F1E02080F8141DBA
:100A200010BC70470CED00E0074900F007000A68B1
:100A30004FF6FF031A4042EA002040F0FD7040F0FC
:100A400080600860704700000CED00E02DE9F04187
:100A5000044684B003200D4684F83400606C0328FB
:100A60005DD0B5F5805F04BFA06B40F0805032D000
:100A700000264FF400684FF08067B5F5006F06D090
:100A8000002D1CBFA06B40F0006026D023E0009634
:100A900001960021206801F082FF10F0007F01D054
:100AA000404639E06946204602F0C8F9A0BB0198EB
:100AB00010F4802F0DD0B4F850000104206801F02C
:100AC00092FF48BB0221206801F0D2FF20BB3046D4
:100AD00022E0384620E0A06325E000960196002140
:100AE000206801F05CFF10F0007FD9D169462046F4
:100AF00002F0A4F980B9019810F4803FE9D0B4F86D
:100B000050000104206801F06EFF28B90021206820
:100B100001F0AEFF0028DAD0A16B0843DBE7A06B41
:100B200040F08050A063A06B012648B1216840F2DC
:100B3000FF50886384F8346004B00120BDE8F08180
:100B4000D4E9050CD4E90112E368CDE90050CDF8F1
:100B500008C0206801F02AFF84F8346004B0002047
:100B6000BDE8F08170B4426E120E93090B70C2F3AF
:100B700083034B7002F003028A70426E120CCA703B
:100B8000B0F86420120A0A7190F864204A71826EEB
:100B90004FF6FF73120E03EA0212CA80826ECB88F0
:100BA000C2F3074243EA1213CB8002F00F020A722B
:100BB000B0F86820C2F30722D3094B72C2F3801346
:100BC0008B72C2F34013CB72C2F300130B734FF05E
:100BD000000C81F80DC0456C4FF40074012375B111
:100BE000012D45D0026840F2FF519163816B41F0C5
:100BF0008051816380F8343070BC012070479207C7
:100C0000120D0A6190F868200D6945EA82020A61B6
:100C1000C26E0D69120E45EA92150D61C2F3C2054E
:100C20000D7502F007024A75C26EC2F307425509FC
:100C30008D75C2F38205CD759207520F0A76B0F812
:100C40006C200D7EC2F3072245EAD2150D760D69A0
:100C50006D1C45650E7EB61C05FA06F646650D7AD6
:100C600003FA05F585656D0A7543C0E917541CE064
:100C700090F868209206920A0A61C26E0D69120EFF
:100C800045EA02220A61C26E0D69C2F307422A4395
:100C90000A61B0F86C200D69C2F307226D1C4FEA9F
:100CA00085254565C0E916450466C2F380144C7677
:100CB0004FEA82624FEA52628A7690F86C208C7E0C
:100CC00044EAD2148C7602F07F02CA76026F4FEAB1
:100CD00012624FEAD2140C77C2F341144C77C2F37C
:100CE00082048C774FEA82724FEA1272CA77026FDF
:100CF000CC7FC2F3074244EA9214CC77C2F340148B
:100D000081F8204081F821C002F0010281F8222000
:100D1000B0F87020C2F307224FEAD21C81F823C03A
:100D2000C2F3801C81F824C0C2F3401C81F825C0A6
:100D3000C2F3001C81F826C0C2F3810C81F827C0E1
:100D400002F0030281F8282090F870004FEA50006A
:100D500081F8290081F82A3070BC4FF000007047FC
:100D6000002804BF0120704770B5044690F8340095
:100D7000002518B92577204600F0F0F8032084F804
:100D80003400204600F008F8A5632563012084F8AC
:100D90003400002070BD00002DE9F043002591B023
:100DA000044676200095CDE901502B462A46294677
:100DB000206801F0FBFD684F47F8A05F206801F054
:100DC0000BFE01263E600220FFF764FC00952068C0
:100DD00001F05CFE00287DD1206801F079FE4FF023
:100DE00080784FF6FF7700281ABFA5644FF080592E
:100DF000A66417D00098411C0091B84217D000217A
:100E0000206801F0F0FD20B90021206801F0F8FD14
:100E100008B1484688E00021206801F0C0FDC00FFD
:100E2000E8D01EE00098411C0091B84201D1404634
:100E30007AE00021206801F0D6FD002874D14FF03F
:100E40008041206801F0DCFD00286DD10021206880
:100E500001F0A5FDC10FE5D010F0804F18BF66640A
:100E600000D16564ADF81060206801F094FD0028A1
:100E700008BF4FF0806057D0606C032842D02068D4
:100E800001F064FE00284FD10021206801F087FDA9
:100E900060670421206801F082FDA06708212068B6
:100EA00001F07DFDE0670C21206801F078FDC4F8B9
:100EB0008000606C032825D004A9206801F0B4FEEE
:100EC00040B9606C03281DD0BDF8100020650104F6
:100ED000206800E028E001F069FE28BB00212068BE
:100EE00001F05DFD60660421206801F058FDA066F8
:100EF0000821206801F053FDE0660C21206801F014
:100F00004EFD20670421206801F049FD010DE164D8
:100F1000204605A9FFF726FEB4F85000002302047E
:100F2000206801F005FE40B184F83460A16B0843ED
:100F3000A06311B00120BDE8F083D4E90401A269E7
:100F40000292CDE9000194E80F0001F02FFD11B0ED
:100F50000020BDE8F0830000008025422DE9F04329
:100F600087B00026054600960196029603960496E1
:100F70000068A0F18041B1F596311CBF07B0BDE813
:100F8000F0832C48016841F400610160006800F4BE
:100F9000006005902848016841F004010160016883
:100FA00001F004010591016841F008010160006849
:100FB000022400F0080005904FF4F850CDE9000439
:100FC00003274FF00C09CDE9037969461B48FFF769
:100FD00075FB4FF0040801AACDF8008082E8D0022A
:100FE00069461748FFF76AFB174C164820604FF018
:100FF0000060C4E901064014C4E903608000606138
:101000008000A0612020E0610003C4E9080880019D
:10101000C4E90A70801020632046FFF78DFA00288B
:1010200018BFFFF79AF9EC632C64A56307B0BDE81D
:10103000F08300004438024030380240000802408B
:10104000000C0240A064024034740020411EB1F143
:10105000807F24BF012070474FF0E0204161054AA6
:10106000F02182F8141D0021816107210161002017
:10107000704700000FE000E0FEE7000030B4DFF84A
:1010800054C04A680123DCF80840DCF80851DCF859
:1010900008C22C4344EA0C0C1CF0010F18BF0023BB
:1010A00002D030BC18467047DFF82CC052B10C6833
:1010B0002243D1E9024121431143426802EA0C0272
:1010C000114304E04268096802EA0C0211434160DE
:1010D000E7E7000000200140E010FCFF83680122E8
:1010E00013F0010F18BF002201D010467047D1F84D
:1010F00008C00B6843EA0C03D0F804C02CF4807CD1
:101100002CF0407C43EA0C0343608368496823F475
:10111000006319438160E8E710B44B68D0F808C059
:1011200001221CF0010F18BF002202D010BC104693
:101130007047002B04BF436823F4684309D0D1F8FB
:1011400008C043EA0C03D0F804C02CF4684C43EA0E
:101150000C034360D1E9033C43EA0C03D0F808C018
:10116000084C0CEA040C0C6804F070644CEA040CA3
:1011700043EA0C0383604968C36A23F4700319438C
:10118000C162D3E7FDFCFFC030B44FF0010C01F0A9
:101190001001536805680CFA01F4AC4308BF4FF026
:1011A000000C1BD07BB114682343D2E902422243D6
:1011B0001A4303688A4040F6FA7404FA01F123EAFC
:1011C0000101114309E00368FA248C40A343146829
:1011D000D268224302FA01F11943016030BC604633
:1011E000704700002DE9F0010A6892FAA2F3B3FA01
:1011F00083F3DA4071D001254FF0030C5FF00F0448
:101200000A6805FA03F632407DD04E68076892FA04
:10121000A2F8B8FA88F84FEA48080CFA08F827EA62
:10122000080792FAA2F8B8FA88F84FEA480806FACE
:1012300008F63E4306604E68012E18BF022E16D1F6
:101240008E68876892FAA2F8B8FA88F84FEA4808D8
:101250000CFA08F827EA080792FAA2F8B8FA88F810
:101260004FEA480806FA08F647EA060686600E695D
:10127000C76892FAA2F8B8FA88F84FEA48080CFA58
:1012800008F827EA080792FAA2F8B8FA88F84FEAAD
:10129000480806FA08F647EA0606C6604E68022EB7
:1012A00031D192FAA2F6B6FA86F6082E4E6915D218
:1012B000076A92FAA2F8B8FA88F84FEA880804FA9E
:1012C00008F892FAA2F2B2FA82F2920027EA08072C
:1012D00006FA02F23A43026215E019E0476A120A7E
:1012E00092FAA2F8B8FA88F84FEA880804FA08F8DF
:1012F00092FAA2F2B2FA82F2920027EA080706FAFC
:1013000002F23A4342620A685B1CDA407FF478AF2B
:101310004A68012A18BF022A09D10A68C9684368C5
:1013200002FB01F123EA020343EA01014160BDE847
:10133000F0014FF0010070474FF47A71B0FBF1F00B
:10134000411E4FF0E02041610021816105210161D2
:1013500070470000234A10B4116811F00C032249B1
:1013600022D04FEA610C042B08BF61461CD0082B29
:101370001AD11E4B1C6814F4800403D0B4F5800FFE
:1013800008BF6146D3F800C00CF03F0CB1FBFCFC79
:1013900019681B68C1F388110CFB01F1C3F3014309
:1013A0005B1C5B00B1FBF3F101601368DFF840C028
:1013B00003F0F0031B091CF80330D94041601368A7
:1013C000C3F3822C0B4B13F80CC021FA0CFCC0F8B1
:1013D00008C01268C2F342329A5CD140C16010BCAE
:1013E00070470000083802400024F400043802402E
:1013F00060C6010870C601080368002213F0400FA0
:1014000027D1D1E900231A43D1E9023C43EA0C0376
:101410001A430B691A434B691A438B691A43CB6908
:101420001A430B6A1A43036823F0BF0323F47F4374
:101430001A43026042684B6922F0040242EA1342F6
:1014400042600A6AB2F5005F02D1898C89B20161FB
:101450000122C16921F40061C1611046704700009A
:10146000014908607047000068040020F0B4026879
:101470002C4B2D4C2D4D2E4EDFF8B8C0984218BF86
:10148000B0F1804F07D0A04218BFA84203D0B042AD
:1014900018BF604504D14F6822F0700242EA07028B
:1014A000984218BFB0F1804F25D0A04218BFA84283
:1014B00021D0B04218BF60451DD0A0F18044B4F5E2
:1014C000A0341CBFA0F18044B4F5A23413D0A0F125
:1014D0008044B4F5A4341CBFA0F18044B4F5C054DA
:1014E00009D0A0F18044B4F5E0541CBFA0F18044C1
:1014F000B4F5005403D1CC6822F440722243026058
:101500008A68C2620A888262984212BF6045097C7A
:101510000163416941F001014161F0BC4FF00100FC
:101520007047000000000140000400400008004037
:10153000000C004000040140F0B400250123DFF856
:10154000B8C16E4C012909D010293BD0B1F5807F7C
:1015500071D0B1F5805F6DD000F0CAB8016A21F09A
:1015600001010162056A41688669176826F0730601
:101570003E43176925F002053D43576825F00105F4
:101580003D43604518BFA04215D1546925F0080CB1
:101590004CEA840C94682CF0040C4CEA8405D2F8D4
:1015A00018C021F4807141EA0C01D2F81CC021F46A
:1015B000007141EA4C0141608661D1684163056276
:1015C0001D4695E0016A21F010010162056A41683B
:1015D0008669176826F4E64646EA0726176925F065
:1015E000200545EA0715576825F0100545EA071557
:1015F000604518BFA04215D1546925F0800C4CEA13
:10160000841C94682CF0400C4CEA8415D2F818C065
:1016100021F4806141EA8C01D2F81CC021F4006100
:1016200041EACC0141608661D168816305621D4653
:101630005EE000E036E0016A21F480710162056A33
:101640004168C669176826F0730646EA07061769F7
:1016500025F4007545EA0725576825F4807545EAA5
:101660000725604518BFA04215D1546925F4006CC8
:101670004CEA842C94682CF4806C4CEA8425D2F8D3
:1016800018C021F4805141EA0C11D2F81CC021F499
:10169000005141EA4C114160C661D168C1630562E5
:1016A0001D4625E0016A21F480510162056A416806
:1016B000C669176826F4E64646EA0726176925F440
:1016C000005545EA0735576825F4805545EA073542
:1016D000604518BFA04205D1D2F818C021F480415E
:1016E00041EA8C114160C661D168016405621D4602
:1016F0002846F0BC70470000000001400004014093
:101700002DE9F0410446C06884B00D46002610F46F
:10171000005F7DD1E9686868AA69084329691143B7
:101720000843E16821F4037121F414410843E060A7
:10173000A868216921F44051084320616869616902
:1017400021F44071084360616846FFF703FEA4F18D
:101750008040B0F5883019D0A4F18040B0F58840C1
:101760001CBFA4F18040B0F5904011D0A4F180409E
:10177000B0F58A300AD0A4F18040B0F598401CBF83
:10178000A4F18040B0F5A04002D04BE0039800E007
:10179000029800281CBF2B68002B43D0D5F818C036
:1017A0003D49BCF5004F00EBC00C4FF001064FF077
:1017B00032020CEB001039D09B00B0FBF3FCA1FB14
:1017C0000C7CB0FBF3F54FEA5C1C6FF018070CFBC8
:1017D00007FC05EB8C0C02EB0C1CA1FB0C5C4FEA2C
:1017E0005C1C0CF0F005B0FBF3FCA1FB0C7C4FEA99
:1017F0005C1C05EB0C1CB0FBF3F5B0FBF3F0A1FB9C
:10180000003040096FF01803584305EB800000E0FA
:1018100008E002EB0010A1FB0010C0F3431060448D
:1018200080B2A06004B03046BDE8F0815B00B0FB40
:10183000F3FCA1FB0C5C4FEA5C1C4FEA0C15B0FBFF
:10184000F3FCA1FB0C8CB0FBF3F74FEA5C1C6FF0D0
:1018500018080CFB08FC07EB8C0C02EBCC0CA1FB72
:101860000C7C4FEA5C1C0CF0F80C05EB4C0CB0FB4C
:10187000F3F5B0FBF3F0A1FB0030400900FB08F0EA
:1018800005EB800002EBC000A1FB0010C0F342108A
:10189000604480B2A060C5E71F85EB51F0B593B0FE
:1018A0000024129410941194009403940494A84872
:1018B000019402940D940E940F940C94089409943E
:1018C0000A940B94016841F480710160006800F48F
:1018D000807005909F48016841F001010160006837
:1018E00006A900F0010005900F2006900320079044
:1018F0009948FFF777FC9A48984902788A58037804
:1019000022F06062CA5002788A58037822F0C0023E
:10191000CA5002788A58037822F44032CA500278BA
:101920008A58037822F49072CA5002788A58037851
:1019300022F40072CA5002788A58037842F4806216
:10194000CA5002788A58037822F4C05242F40062E6
:10195000CA5002788A58037822F4C04242F40052F6
:10196000CA5002787F4951587E4821F00401115035
:1019700080151094CDE911407B4D10A92846FFF742
:10198000ADFB4FF440160220CDE90240CDE9004600
:101990003013049069462846FFF7BEFBA86840F460
:1019A0008060A860686820F0200068604FF4803094
:1019B000CDE90C040CA96D48FFF760FB68153113E5
:1019C00091FAA1F1B1FA81F120FA01F105EB81015F
:1019D000CA6A22F01F02CA62010491FAA1F2B2FAA5
:1019E00082F2D14005EB81034FF0F87191FAA1F238
:1019F000B2FA82F224FA02F70722D3F80CC002FAF4
:101A000007F72CEA070C91FAA1F7B7FA87F7FC4021
:101A100002FA04F44CEA040CC3F80CC0331393FA32
:101A2000A3F3B3FA83F320FA03F305EB830391FAEC
:101A3000A1F4D3F82CC0B4FA84F42CF4787C4CF0E4
:101A4000200CC3F82CC0030493FAA3FCBCFA8CFC52
:101A500023FA0CF305EB830326FA04F4D3F80CC045
:101A600002FA04F42CEA040C91FAA1F4B4FA84F416
:101A700026FA04F402FA04F44CEA040CC3F80CC08D
:101A8000331393FAA3F3B3FA83F320FA03F305EBCA
:101A9000830391FAA1F6D3F82CC0B6FA86F62CF49B
:101AA000F84C4CF4006CC3F82CC0030493FAA3FC6C
:101AB000BCFA8CFC23FA0CF305EB83034FF4C00C47
:101AC0002CFA06FCDC6802FA0CFC24EA0C0491FAFD
:101AD000A1F64FF4C00CB6FA86F62CFA06FC02FA10
:101AE0000CFC44EA0C0CC3F80CC04FF4407393FA9E
:101AF000A3F3B3FA83F3D84005EB800091FAA1F485
:101B0000C36AB4FA84F423F4782343F4C033C36281
:101B10004FF0007090FAA0F3B3FA83F3D840EB01D2
:101B200005EB800091FAA1F123FA04F4D0F80CC07F
:101B3000B1FA81F102FA04F423FA01F12CEA040C5F
:101B400002FA01F14CEA0101C16013B0F0BD0000DE
:101B50004438024030380240000002400064024035
:101B60009319010814640240002001400023014041
:101B700010B58CB000244048019402940394009462
:101B80000694079408940994016841F0005101609B
:101B9000006800F000500A903848016841F00101E7
:101BA0000160006804A900F001000A901020049070
:101BB000032005903248FFF715FB3348314942793D
:101BC0008A58437942F06062CA5042798A58437910
:101BD00022F0C00242F04002CA5042798A5843794A
:101BE00022F44032CA5042798A58437922F49072E2
:101BF000CA5042798A58437922F40072CA50427915
:101C00008A58437942F48062CA5042798A584379AB
:101C100022F4C05242F40062CA5042798A58437991
:101C200022F4C04242F40052CA5042791749525835
:101C3000407922F00402425015480068C0F30220A7
:101C4000011D072934BF0020C01E04FA00F011490D
:101C5000000181F8000410494FF48000C1F8000130
:101C60003820CDE900046A460C490D480394FFF77B
:101C70008BFA0CB010BD00004038024030380240F2
:101C800000000240006002409B19010814600240FD
:101C90000CED00E036E000E004E000E0010010029E
:101CA00000740040F8B55648016841F40011016025
:101CB000016801F400110091016841F480010160A4
:101CC0000068504C00F4800000902068C0F30220AF
:101CD000011D072934BF0020C01E00254A4905FA0E
:101CE00000F0000181F800044FF0E0214FF4804043
:101CF000C1F800012068C0F30220021D072A34BF8A
:101D00000020C01E05FA00F0404A000182F80004DD
:101D10004FF40040C1F800012068C0F30220021D0A
:101D2000072A34BF0020C01E05FA00F0384A00011F
:101D300082F8000410221003C1F800012068C0F3EB
:101D40000220031D072B34BF0020C01E05FA00F03F
:101D5000304B000183F800044FF40030C1F800015B
:101D60002068C0F30220011D072934BF0020C01ED7
:101D700005FA00F02849000181F8000427494FF0D6
:101D80008070C1F800012068C0F30220031D072BFA
:101D900034BF0020C01E05FA00F0214B000183F87B
:101DA00000044FF08060C1F800012068C0F30220F9
:101DB000011D072934BF0020C01E05FA00F0194993
:101DC000000181F80004184EC6F8002100221146D7
:101DD0004520FEF7F7FD4520FEF7E8FD2068C0F33B
:101DE0000220011D072934BF0020C01E05FA00F0A3
:101DF0000E49000181F800044020C6F80001F8BD3A
:101E0000303802400CED00E00EE000E00FE000E0B2
:101E100010E000E011E000E038E000E004E000E065
:101E20003AE000E044E000E008E000E046E000E0E6
:101E3000F0B587B0002441480194029403940594BE
:101E4000016841F010010160016801F01001069184
:101E5000016841F004010160016801F0040106918C
:101E6000016841F080010160016801F08001069184
:101E7000016841F001010160016801F00101069172
:101E8000016841F002010160016801F00201069160
:101E9000016841F0080101600068294900F008006C
:101EA00006904FF44010086026494FF07F400860CC
:101EB0004FF6FF7001260090694604962248FFF70E
:101EC00091F94EF2CF000325CDE900051F4F694679
:101ED00004943846FFF786F930200090CDE901647C
:101EE0000394694638460494FFF77CF941F63F7045
:101EF000CDE90005694604941548FFF773F94FF4DE
:101F00007F400090CDE90164124E0394694630464B
:101F10000494FFF767F94FF41F40CDE900056946C7
:101F200004940D48FFF75EF99B20CDE90005694652
:101F300004943046FFF756F907B0F0BD3038024040
:101F400018080240180C024000100240000802402D
:101F500000040240000C0240000002400F4810B58F
:101F60000D490160002141608160C16001614161F2
:101F70008161FEF7F5FE002818BFFEF7EEF94FF479
:101F800000610648FEF762FD002808BF10BDBDE8ED
:101F90001040FEF7E2B90000002C0140B0730020B1
:101FA00010B592B000240394049454480094019412
:101FB0000294089409940594069407940D940E9441
:101FC000016841F480510160006800F48050109075
:101FD0004B48016841F00101016000680AA900F066
:101FE00001001090A0200A9002200B9003200C907A
:101FF00005200F904348FFF7F5F8444842494279DD
:102000008A58437922F0606242F0C062CA50427935
:102010008A58437922F0C00242F04002CA50427905
:102020008A58437942F44032CA5042798A584379F7
:1020300022F49072CA5042798A58437922F400728D
:10204000CA5042798A58437942F48062CA50427930
:102050008A58437922F4C052CA5042798A58437947
:1020600022F4C042CA504379294A9B5890F805C0CF
:1020700043F004034CF8023043799B5890F805C0B4
:1020800043F003034CF8023042798A58437942F016
:10209000C072CA5042798A58407922F4C0020A506C
:1020A0001C480068C0F30220011D072934BF00202E
:1020B000C01E04FA00F01849000181F80004174915
:1020C0000820C1F800014FF48270CDE900404FF4C0
:1020D0000070CDE9044003940A20CDE90840029441
:1020E000069407940E4C69462046FFF785F9606810
:1020F00020F01000606012B010BD000044380240B3
:10210000303802400000024000640240A319010878
:10211000146402400CED00E023E000E004E000E085
:102120000030014010B592B00024039404946C4830
:1021300000940194029408940994059406940794D9
:102140000D940E94016841F480410160006800F430
:10215000804010906348016841F00201016000680E
:102160000AA900F0020010904FF460400A9002208B
:102170000B9003200C9005200F905B48FFF732F87E
:102180005B485A49C2788A58C37822F06062CA50C4
:10219000C2788A58C37822F0C002CA50C2788A58DE
:1021A000C37822F44032CA50C2788A58C37822F4E5
:1021B0009072CA50C2788A58C37822F40072CA500A
:1021C000C2788A58C37842F48062CA50C2788A586A
:1021D000C37822F4C052CA50C2788A58C37822F415
:1021E000C042CA50C378434A9B5890F803C023F0BA
:1021F00004034CF802300379CB5890F804C023F064
:10220000606341F80C300379CB5890F804C023F098
:10221000C00343F0400341F80C300379CB5890F8E9
:1022200004C023F4403341F80C300379CB5890F8C4
:1022300004C023F4907341F80C300379CB5890F824
:1022400004C023F4007341F80C300379CB5890F8A4
:1022500004C043F4806341F80C300379CB5890F804
:1022600004C023F4C05341F80C300379CB5890F8E4
:1022700004C023F4C04341F80C3001798958007937
:1022800021F0040181501C480068C0F30220011DA8
:10229000072934BF0020C01E04FA00F017490001CE
:1022A00081F8000416491020C1F800014FF4827033
:1022B000CDE900404FF40070CDE9044003940A20BA
:1022C000CDE908400294069407940E4C69462046D6
:1022D000FFF792F8606820F01000606012B010BD47
:1022E00040380240303802400004024000600240A2
:1022F000A3190108146002400CED00E024E000E0A6
:1023000004E000E00038004000B587B000210B4831
:1023100000910191029103910491026842F400320C
:102320000260006800F400300590ADF800106946C6
:102330000348FFF79BF807B000BD00004438024097
:102340000044014000B587B000210B480091019185
:10235000029103910491026842F4802202600068B5
:1023600000F480200590ADF8001069460348FFF79F
:102370007DF807B000BD000044380240004801402D
:1023800010B586B000210E48009101910291039191
:102390000491026842F0400202600068094C00F0BB
:1023A00040000590ADF8001069462046FFF75EF842
:1023B000A06820F0070020F48040A06006B010BDA7
:1023C00040380240001800402DE9F04194B000244C
:1023D0000F941094119412940E940094019402940A
:1023E000039433480494059406940794089409943C
:1023F0000A940B940C940D94016841F080010160E3
:10240000006800F0800013902A480068C0F30220A2
:10241000011D072934BF0020C01E04FA00F0264920
:10242000000181F8000425494FF480500427C1F8C9
:102430000001DFF88C80ADF838400EA94046FFF768
:1024400015F82048214E082201781F480D183178D0
:10245000286802FA01F1084328606020CDE90004F1
:10246000029403946A46012140460494FFF764F8FD
:102470003178286807FA01F1884328601448016818
:1024800041F001010160006808A900F0010013900B
:10249000402008900220CDE909040920CDE90C4034
:1024A0000B940C48FEF79EFE14B0BDE8F0810000CE
:1024B000403802400CED00E02CE000E004E000E0D9
:1024C000001C0040AB190108181C0040B21901089B
:1024D000303802400000024000B587B000210B48B0
:1024E00000910191029103910491026842F480727B
:1024F0000260006800F480700590ADF80010694635
:102500000348FEF7B3FF07B000BD000040380240AB
:102510000020004010B586B00021194800910191BB
:10252000029103910491026842F010020260006877
:1025300000F01000059013480068C0F30220021D4F
:10254000072A34BF0020C01E01FA00F00E4A000125
:1025500082F800040D4A4FF48000C2F800010C4CD0
:10256000ADF8001069462046FEF780FF606820F055
:1025700070006060A06820F08000A06006B010BD10
:10258000403802400CED00E036E000E004E000E0FE
:102590000010004010B586B000210F480091019155
:1025A000029103910491026842F0200202600068E7
:1025B0000A4C00F020000590ADF800106946204656
:1025C000FEF754FF606820F070006060A06820F0A3
:1025D0008000A06006B010BD4038024000140040EA
:1025E00010B586B000210E4800910191029103912F
:1025F0000491026842F4803202600068094C00F4E1
:1026000080300590ADF8001069462046FEF72EFF99
:10261000A06820F0070020F48040A06006B010BD44
:10262000443802400040014010B58EB000240194AF
:102630006E480094069402940394049405940B94B9
:10264000016841F010010160006800F0100007907F
:102650006748016841F002010160006808A900F0C4
:1026600002000790C02008900220099003200A90E1
:1026700001200C9007200D905E48FEF7B3FD5F48E7
:102680005D49C2798A58C37922F0606242F00062E3
:10269000CA50C2798A58C37922F0C00242F040027F
:1026A000CA50C2798A58C37922F44032CA50C279DA
:1026B0008A58C37922F49072CA50C2798A58C37971
:1026C00022F40072CA50C2798A58C37942F48062F7
:1026D000CA50C2798A58C37922F4C052CA50C2790A
:1026E0008A58C37922F4C042CA50C379444A9B58DD
:1026F00090F807C023F004034CF802308378CB58DD
:1027000090F802C023F0606343F0006341F80C309E
:102710008378CB5890F802C023F0C00341F80C3006
:102720008378CB5890F802C023F4403341F80C3042
:102730008378CB5890F802C023F4907341F80C30A2
:102740008378CB5890F802C023F4007341F80C3022
:102750008378CB5890F802C043F4806341F80C3082
:102760008378CB5890F802C023F4C05341F80C3062
:102770008378CB5890F802C023F4C04341F80C3062
:1027800081788958807821F0040181501D480068C3
:10279000C0F30220011D072934BF0020C01E04FA27
:1027A00000F01949000181F8000418492020C1F8FF
:1027B00000014FF4E130CDE900040C200294CDE992
:1027C000034005940694124C69462046FEF798FF94
:1027D000206920F490402061606920F02A00606147
:1027E000E06840F40050E0600EB010BD4438024094
:1027F000303802400004024000640240B919010868
:10280000146402400CED00E025E000E004E000E08C
:102810000010014010B58EB0002401944948009486
:10282000069402940394049405940B94016841F473
:1028300000310160006800F40030079042480168F0
:1028400041F008010160006808A900F00800079045
:10285000602008900220099003200A9001200C902B
:1028600007200D903948FEF7BDFC3A483849827977
:102870008A58837922F0606242F00062CA508279FD
:102880008A58837922F0C00242F04002CA5082790D
:102890008A58837922F44032CA5082798A588379DF
:1028A00022F49072CA5082798A58837922F4007295
:1028B000CA5082798A58837942F48062CA508279F8
:1028C0008A58837922F4C052CA5082798A5883790F
:1028D00022F4C042CA5082791F495258807922F0AE
:1028E000040242501D480068C0F30220011D072960
:1028F00034BF0020C01E04FA00F01949000181F81D
:10290000000418494020C1F800014FF4E130CDE93E
:1029100000040C200294CDE9034005940694124C67
:1029200069462046FEF7ECFE206920F490402061C5
:10293000606920F02A006061E06840F40050E060C7
:102940000EB010BD4038024030380240000C02404A
:1029500000600240B9190108146002400CED00E06B
:1029600026E000E004E000E000440040FEE770479D
:1029700070470A6842624A688262D1E902231A43B8
:10298000D1E9043119431143C26A22F0F70211431D
:10299000C16200207047006800F00300704781B0FA
:1029A000084414300090006801B0704730B41143FF
:1029B000DDE9024543EA04021143DDF810C0294372
:1029C000426841EA0C0122F0FF0222F4FC4211436A
:1029D000416030BC00207047032101600020704737
:1029E000D0F8800070478160C26840F277416FF391
:1029F0000B021143C16041F28832372100F064B903
:102A000041F4801141F0004100228160C16840F230
:102A100069436FF30B011943C1600E494FF4FA5338
:102A20000968B1FBF3F141F288335943491E03D2DF
:102A30004FF0004210467047436B13F0450FF5D03E
:102A4000416B11F0040F07BF40F2FF518163042274
:102A50008263EFE7680400208160C1686FF30B01B7
:102A600041F48A61C16041F28832102100F02CB932
:102A70008160C26840F246416FF30B021143C160AE
:102A800041F28832062100F01FB900000023836064
:102A9000C1686FF30B0141F48061C1600B494FF4D1
:102AA000FA520968B1FBF2F141F288325143491EF2
:102AB00002D24FF0004306E0426B12F0800FF6D0D6
:102AC00040F2FF51816318467047000068040020FF
:102AD0004FF4D5714FF0400C00228160C1686FF354
:102AE0000B0141F48961C16010494FF4FA53096840
:102AF000B1FBF3F141F288335943491E02D24FF042
:102B0000004211E0436B13F0450FF6D0416B11F01A
:102B1000040F1CBFC0F838C0042205D1416B11F06E
:102B2000400F18BFC0F838C0104670476804002036
:102B30008260C26840F247416FF30B021143C160EB
:102B400041F28832072100F0BFB800000022826005
:102B5000C16840F2C2436FF30B011943C1601249CF
:102B60004FF4FA530968B1FBF3F141F2883359434A
:102B7000491E02D24FF000420AE0436B13F0450FAA
:102B8000F6D0416B11F0040F18BF042202D082630B
:102B900010467047416B11F0010F12BF012240F245
:102BA000FF518163F3D1F3E76804002000228160C4
:102BB000C16840F2C9436FF30B011943C160124968
:102BC0004FF4FA530968B1FBF3F141F288335943EA
:102BD000491E02D24FF000420AE0436B13F0450F4A
:102BE000F6D0416B11F0040F18BF042202D08263AB
:102BF00010467047416B11F0010F12BF012240F2E5
:102C0000FF518163F3D1F3E7680400200021816064
:102C1000C16840F273426FF30B011143C16041F28E
:102C20008832332100F050B838B400248460C3687F
:102C300040F243426FF30B031A43C260214A4FF440
:102C4000FA5303251268B2FBF3F241F2883353437F
:102C50005B1E02D24FF0004229E0426B12F0450F9A
:102C6000F6D0426B12F0040F1CBF042282631ED107
:102C7000426B12F0010F4FF0010218BF826316D1B0
:102C80000369DBB2AB4212D140F2FF5282631430CF
:102C900000900068224610F4604F04BF000C0880CA
:102CA00005D010F4804F18BF4FF4005202D038BC4A
:102CB0001046704710F4004F14BF4FF480524FF489
:102CC0008032F4E7680400205A4B4FF4FA5C81B07C
:102CD0001B68B3FBFCF35A43521E03D24FF0004073
:102CE00001B07047436B13F0450FF5D0426B12F003
:102CF000040F04D004218163084601B07047426B81
:102D000012F0010F04D001218163084601B0704721
:102D10000269D2B28A421EBF012001B0704740F260
:102D2000FF5181631430009000684349084202BF9C
:102D3000002001B0704710F0004F1EBF4FF0007030
:102D400001B0704710F0804F1EBF402001B07047A7
:102D500010F0005F1EBF802001B0704710F0805F50
:102D60001EBF4FF4807001B0704710F0006F1EBF9F
:102D70004FF4007001B0704710F0806F1EBF4FF429
:102D8000806001B0704710F0807F1EBF4FF400607C
:102D900001B0704710F4000F1EBF4FF4805001B017
:102DA000704710F4800F1EBF4FF4005001B0704701
:102DB00010F4001F1EBF4FF4804001B0704710F4A4
:102DC000801F1EBF4FF4004001B0704710F4802FE9
:102DD0001EBF4FF4003001B0704710F4003F1EBF1B
:102DE0004FF4802001B0704710F4803F1EBF4FF4B5
:102DF000002001B0704710F4004F1EBF4FF4801048
:102E000001B0704710F4804F1EBF4FF4001001B0A6
:102E1000704710F4005F1EBF4FF4800001B0704790
:102E200010F0080F14BF4FF400004FF4803001B0D1
:102E3000704700006804002008E0FFFD2DE9F04F16
:102E400089B00E460446FDF757FD0025074600955C
:102E50000195A84608212068FFF7FEFD00281CBF49
:102E600009B0BDE8F08FB4F8500001042068FFF706
:102E7000BAFD00281CBF09B0BDE8F08F4FF0FF304D
:102E80004FF00809CDE9020930204FF0020ACDE9E0
:102E9000040A0120CDE9068002A92068FFF769FD38
:102EA0002068FFF7B3FE00281CBF09B0BDE8F08F13
:102EB0002068406B40F22A4810EA080F08BFEB4632
:102EC00014D12068416B11F4001F04D0FFF788FD76
:102ED0004BF825006D1CFDF70FFDC01BB0F1FF3F47
:102EE00023D02068406B10EA080FEAD02068416BBD
:102EF00011F0080F1FBFC0F83890082009B0BDE8D6
:102F0000F08F416B11F0020F1FBFC0F838A00220F4
:102F100009B0BDE8F08F416B11F0200F0AD02021DD
:102F2000816309B00846BDE8F08F09B04FF000405A
:102F3000BDE8F08F40F2FF518163009800BA7060E5
:102F4000019800BA306009B00020BDE8F08F7047EA
:102F500006484168491C41600021017081680029D0
:102F600008BF70478168491E8160704710000020CB
:102F70002B4810B5016821F00F0141F005010160F7
:102F800000682848016841F48041016026480168D2
:102F900041F480310160016811F4003FFBD0244905
:102FA000224A0B68DFF88CC003EA0C031A430A605C
:102FB0000A6822F440320A60016841F080710160C1
:102FC000016811F0007FFBD01B48016821F0F0017F
:102FD0000160016821F4E05141F4A05101600168F1
:102FE00021F4604141F400410160016821F00301D6
:102FF00041F002010160016801F00C010829FAD1D9
:103000000E4C2046FEF798F94FF0E021086940F099
:10301000040008612046BDE81040FEF721BA000018
:10302000003C02400070004000380240085440005C
:10303000043802400080BFFF08380240007A030ACB
:103040000F48016841F4700101600E48016841F0C9
:10305000010101600C4A00211160026822F4102273
:1030600022F080720260031D084A1A60026822F48E
:1030700080220260064801600649580608607047D1
:1030800088ED00E00038024008380240103000248B
:103090000C38024008ED00E0FEE700000FB4054BDD
:1030A00010B503A9044A029800F018F810BC5DF8A6
:1030B00014FB00009DF500086C04002002E008C825
:1030C000121F08C1002AFAD170477047002001E0A2
:1030D00001C1121F002AFBD1704700002DE9FF4FEC
:1030E0008DB09B460F460446002606E025280BD0EF
:1030F0005A460F999047641C761C20780028F5D119
:1031000011B03046BDE8F08F0025A846012298494D
:1031100000E0054314F8013F203B02FA03F00842A7
:10312000F7D120782E2817D114F8010F45F00405A7
:103130002A280ED06FF02F022078A0F13001092943
:103140000AD808EB880102EB410100EB0108641C7E
:10315000F2E757F8048B641C20786C280DD004DC4F
:103160004C2812D06A2811D104E074280DD07A2896
:103170000CD10AE045F4001507E0617845F48015AC
:10318000814202D1641C05F58015641C2278692AED
:1031900045D008DC002AB3D0582A69D0632A10D061
:1031A000642A08D13BE0702A67D0732A13D0752AAD
:1031B0005CD0782A5CD010465A460F999047761C0E
:1031C000D3E017F8040B8DF8000000208DF8010003
:1031D000E946012003E057F8049B4FF0FF306907F0
:1031E0004FF0000501D40AE06D1C45450DDA85421B
:1031F000FADB19F805100029F6D106E06D1C8542AE
:10320000FCDB19F805100029F8D12E4404E019F868
:10321000010B5A460F9990476D1EF8D2A5E00A207F
:103220000021CDE90801C5F3025002280DD001CFDD
:10323000C117031E71F100030DDA4FF0000CD0EB43
:103240000C006CEB01012D2308E0FF1D27F00707A0
:10325000F7E80201EDE72B0504D52B238DF8283084
:1032600001233BE0EB0739D02023F7E70A2000E0F9
:1032700010200021CDE9080107E01020002145F0D1
:103280000405CDE908014FF00808C5F302500228F3
:103290000FD001CF00214FF0000A2B071FD5702A55
:1032A0000DD0DDE908C38CF0100C5CEA030C0CD0E7
:1032B00015E0FF1D27F00707F7E80201EBE74022C2
:1032C0008DF828204FF0010A0BE050EA010306D0E8
:1032D00030238DF828308DF8292002239A46582A69
:1032E00004D024A20DF120090B9209E026A2F9E7EF
:1032F000DDE90823FCF764FF0B9B9B5C09F8013DAB
:1033000050EA0102F4D1ADEB0900203008906807C3
:1033100001D44FF001080899884502DDA8EB0100AF
:1033200000E000208046002506E00AA85A46405DDD
:103330000F9990476D1C761C5545F6DB04E0302054
:103340005A460F999047761CB8F10001A8F1010880
:10335000F5DC05E019F8010B5A460F999047761CE9
:103360000899481E08900029F4DC641CC5E600009A
:10337000092801003031323334353637383961624B
:10338000636465660000000030313233343536370F
:1033900038394142434445460000000070B5CB48EF
:1033A000C08900F47041091310297CD2DFE801F0D4
:1033B00008080D0D95B9BEBEC4C4C4C4CACACACAE1
:1033C000C349C0F30A00085C94E000F00705082D2B
:1033D0007DD2DFE805F004070A7C1F7C7C27BD480E
:1033E000057878E0BB48457875E0BA48BA4A8578F0
:1033F00025F08001817000211170B84909681539E4
:10340000F12968D2017811F0800F04BF21F0030187
:10341000017060E0B24890F80011455C491C80F8EA
:10342000001158E0AF4C2188A57811F4704016D0F7
:10343000B0F5805F17D0B0F5005F1AD0B0F5405FEF
:1034400033D00025A848FFF729FEA248007810F0E5
:10345000040F208814BF2030401C20803BE06068AF
:10346000405CA070F1E7A068C1F30B01405CA07064
:10347000EBE7C1F30B00B0F5406F84BFA169A0F585
:1034800040600DD8B0F5006F84BF6169A0F50060A1
:1034900006D8B0F5806F86BF2169A0F58060E1682D
:1034A000085CA070D1E724E011E043F6107081427F
:1034B00005D301F00F00204490F82C50C5E7B1F57A
:1034C0007C5FC2D301F00F002044057FBDE7294691
:1034D0008648FFF7E3FD28460CE0A0F58041163949
:1034E00008BF00201AD0A0F58041173908BF01207D
:1034F00014D0000A75490882C889401C80B200F4C3
:1035000070410913102972D2DFE801F02222272727
:10351000AFC8CDCDD3D3D3D3D9D9D9D90CF048F8AE
:10352000E8E773490844A0F5A04003E07149084466
:10353000A0F5C0400078DDE7644949690844A0F57A
:103540000040F7E7614989690844A0F54040F1E788
:103550005F49C0F30A00085C94E000F00704082CFF
:103560007DD2DFE804F004070A7C1F7C7C275948E1
:10357000047878E05748447875E05648564A84788D
:1035800024F08001817000211170544909681539B7
:10359000F12968D2017811F0800F04BF21F00301F6
:1035A000017060E04E4890F80011445C491C80F8BE
:1035B000001158E04B4D2988AC7811F4704017D0B9
:1035C000B0F5805F18D0B0F5005F1BD0B0F5405F5C
:1035D00032D000244448FFF761FD3E48007810F0E7
:1035E000040F288814BF2030401C28803BE048E0AE
:1035F0006868405CA870F0E7A868C1F30B01405C04
:10360000A870EAE7C1F30B00B0F5406F84BFA96969
:10361000A0F540600DD8B0F5006F84BF6969A0F5D2
:10362000006006D8B0F5806F86BF2969A0F580607C
:10363000E968085CA870D0E743F61070814206D3B1
:1036400001F00F00284490F82C40C6E707E0B1F5E0
:103650007C5FC2D301F00F002844047FBDE7214600
:103660002248FFF71BFD20460CE0A0F580411639EB
:1036700008BF00200FD0A0F58041173908BF0120F6
:1036800009D0000A11490A8A02EB00200882C88981
:10369000801CC88170BD0BF08BFFF3E71449084410
:1036A000A0F5A04003E013490844A0F5C04000780D
:1036B000E8E7064949690844A0F50040F7E70349EF
:1036C00089690844A0F54040F1E70000240000208B
:1036D00094740020500400204D0400205404002065
:1036E000F0C6002094C4002078C6010838C701083D
:1036F000947C0020949C002070B5D648C08900F4CA
:103700007041091310297CD2DFE801F008080D0D83
:1037100095B9BEBEC4C4C4C4CACACACACE49C0F3DD
:103720000A00085C94E000F00705082D7DD2DFE870
:1037300005F004070A7C1F7C7C27C848057878E0E0
:10374000C648457875E0C548C54A857825F08001AA
:10375000817000211170C34909681539F12968D2B7
:10376000017811F0800F04BF21F00301017060E0C7
:10377000BD4890F80011455C491C80F8001158E0E4
:10378000BA4C2188A57811F4704016D0B0F5805F4E
:1037900017D0B0F5005F1AD0B0F5405F33D00025E8
:1037A000B348FFF77BFCAD48007810F0040F208889
:1037B00014BF2030401C20803BE06068405CA0705B
:1037C000F1E7A068C1F30B01405CA070EBE7C1F327
:1037D0000B00B0F5406F84BFA169A0F540600DD823
:1037E000B0F5006F84BF6169A0F5006006D8B0F540
:1037F000806F86BF2169A0F58060E168085CA070D9
:10380000D1E724E011E043F61070814205D301F0C6
:103810000F00204490F82C50C5E7B1F57C5FC2D36F
:1038200001F00F002044057FBDE729469148FFF7CE
:1038300035FC28460CE0A0F58041163908BF002071
:103840001AD0A0F58041173908BF012014D0000A12
:1038500080490882C889401C80B200F47041091375
:10386000102972D2DFE801F022222727AFD1D6D665
:10387000DCDCDCDCE2E2E2E20BF09AFEE8E77E4927
:103880000844A0F5A04003E07C490844A0F5C040EE
:103890000078DDE76F4949690844A0F50040F7E783
:1038A0006C4989690844A0F54040F1E76A49C0F3D2
:1038B0000A00085C94E000F00704082C7DD2DFE8E1
:1038C00004F004070A7C1F7C7C276448047878E0B5
:1038D0006248447875E06148614A847824F0800148
:1038E0008170002111705F4909681539F12968D28A
:1038F000017811F0800F04BF21F00301017060E036
:10390000594890F80011445C491C80F8001158E0B7
:10391000564D2988AC7811F4704017D0B0F5805F0F
:1039200018D0B0F5005F1BD0B0F5405F32D0002456
:103930004F48FFF7B3FB4948007810F0040F288880
:1039400014BF2030401C28803BE048E06868405CA1
:10395000A870F0E7A868C1F30B01405CA870EAE723
:10396000C1F30B00B0F5406F84BFA969A0F54060BA
:103970000DD8B0F5006F84BF6969A0F5006006D866
:10398000B0F5806F86BF2969A0F58060E968085CA2
:10399000A870D0E743F61070814206D301F00F0003
:1039A000284490F82C40C6E707E0B1F57C5FC2D30D
:1039B00001F00F002844047FBDE721462D48FFF7A2
:1039C0006DFB20460CE0A0F58041163908BF0020B1
:1039D00018D0A0F58041173908BF012012D0000A85
:1039E0001C49274B0A8A02EB002080B20882CA8950
:1039F000921CCA81CA7902EB420233F82220042ABF
:103A000023D119E00BF0D4FDEAE71B490844A0F5E7
:103A1000A04003E019490844A0F5C0400078DFE762
:103A20000C4949690844A0F50040F7E7094989694C
:103A30000844A0F54040F1E7CB78020A0344B2EB1A
:103A4000132F02D0CA69521CCA61CA781044088276
:103A500070BD000024000020947400205004002059
:103A60004D04002054040020F0C6002094C400201F
:103A700078C6010838C70108947C0020949C002077
:103A8000C419010870B5D648C08900F47041091303
:103A900010297CD2DFE801F008080D0D95B9BEBEF3
:103AA000C4C4C4C4CACACACACE49C0F30A00085CA6
:103AB00094E000F00705082D7DD2DFE805F004074B
:103AC0000A7C1F7C7C27C848057878E0C648457882
:103AD00075E0C548C54A857825F0800181700021D0
:103AE0001170C34909681539F12968D2017811F0BC
:103AF000800F04BF21F00301017060E0BD4890F821
:103B00000011455C491C80F8001158E0BA4C21882E
:103B1000A57811F4704016D0B0F5805F17D0B0F5DD
:103B2000005F1AD0B0F5405F33D00025B348FFF7EF
:103B3000B5FAAD48007810F0040F208814BF20308B
:103B4000401C20803BE06068405CA070F1E7A0680A
:103B5000C1F30B01405CA070EBE7C1F30B00B0F5C3
:103B6000406F84BFA169A0F540600DD8B0F5006F2B
:103B700084BF6169A0F5006006D8B0F5806F86BF8C
:103B80002169A0F58060E168085CA070D1E724E0BD
:103B900011E043F61070814205D301F00F0020447C
:103BA00090F82C50C5E7B1F57C5FC2D301F00F004F
:103BB0002044057FBDE729469148FFF76FFA284664
:103BC0000CE0A0F58041163908BF00201AD0A0F5FE
:103BD0008041173908BF012014D0000A80490882AB
:103BE000C889401C80B200F470410913102972D2B8
:103BF000DFE801F022222727AFD1D6D6DCDCDCDCDF
:103C0000E2E2E2E20BF0D4FCE8E77E490844A0F5EA
:103C1000A04003E07C490844A0F5C0400078DDE7FF
:103C20006F4949690844A0F50040F7E76C49896984
:103C30000844A0F54040F1E76A49C0F30A00085C77
:103C400094E000F00704082C7DD2DFE804F00407BC
:103C50000A7C1F7C7C276448047878E062484478BA
:103C600075E06148614A847824F080018170002108
:103C700011705F4909681539F12968D2017811F08E
:103C8000800F04BF21F00301017060E0594890F8F3
:103C90000011445C491C80F8001158E0564D2988F9
:103CA000AC7811F4704017D0B0F5805F18D0B0F543
:103CB000005F1BD0B0F5405F32D000244F48FFF7C3
:103CC000EDF94948007810F0040F288814BF20301F
:103CD000401C28803BE048E06868405CA870F0E742
:103CE000A868C1F30B01405CA870EAE7C1F30B00C0
:103CF000B0F5406F84BFA969A0F540600DD8B0F55C
:103D0000006F84BF6969A0F5006006D8B0F5806FC8
:103D100086BF2969A0F58060E968085CA870D0E7D3
:103D200043F61070814206D301F00F00284490F84A
:103D30002C40C6E707E0B1F57C5FC2D301F00F006D
:103D40002844047FBDE721462D48FFF7A7F9204608
:103D50000CE0A0F58041163908BF002018D0A0F56E
:103D60008041173908BF012012D0000A1C49274B97
:103D70000A8A02EB002080B20882CA89921CCA819A
:103D8000CA7902EB420233F82220042A23D119E037
:103D90000BF00EFCEAE71B490844A0F5A04003E045
:103DA00019490844A0F5C0400078DFE70C4949698B
:103DB0000844A0F50040F7E7094989690844A0F5DF
:103DC0004040F1E70B79020A0344B2EB132F02D013
:103DD000CA69521CCA610A791044088270BD000089
:103DE0002400002094740020500400204D04002082
:103DF00054040020F0C6002094C4002078C60108B6
:103E000038C70108947C0020949C0020C419010844
:103E100070B58D4C8D49E07900EB400001EB8000DE
:103E200080688047208A00F47041091310297CD2F1
:103E3000DFE801F008080D0D95DCE1E1E7E7E7E7D1
:103E4000EDEDEDED8249C0F30A00085C94E000F06E
:103E50000705082D7DD2DFE805F004070A7C1F7CEA
:103E60007C277C48057878E07A48457875E0794881
:103E7000794A857825F08001817000211170774999
:103E800009681539F12968D2017811F0800F04BF53
:103E900021F00301017060E0714890F80011455C69
:103EA000491C80F8001158E06E4C2188A57811F467
:103EB000704016D0B0F5805F17D0B0F5005F1AD013
:103EC000B0F5405F33D000256748FFF7E7F8614859
:103ED000007810F0040F208814BF2030401C208090
:103EE0003BE06068405CA070F1E7A068C1F30B01A3
:103EF000405CA070EBE7C1F30B00B0F5406F84BFEE
:103F0000A169A0F540600DD8B0F5006F84BF61696C
:103F1000A0F5006006D8B0F5806F86BF2169A0F5D6
:103F20008060E168085CA070D1E724E011E043F60E
:103F30001070814205D301F00F00204490F82C50FE
:103F4000C5E7B1F57C5FC2D301F00F002044057FC7
:103F5000BDE729464548FFF7A1F828460CE0A0F543
:103F60008041163908BF00203DD0A0F580411739A7
:103F700008BF012037D0000A334908724A7902F09D
:103F800001034B6291F802C06044184400F18003C1
:103F90000862B3F5807F2CBF42F0400202F0BF02FE
:103FA0004A71FF28D2B2CCBF42F0010202F0FE02F9
:103FB0004A71C0B2D2B2887012F0080F2DD002F050
:103FC000FE0200F00F034A71092B84BF801D887028
:103FD000C0B200F0F003902B22D96030887042F01C
:103FE000010048711CE00BF0E3FAC5E720490844E2
:103FF000A0F5A04003E01F490844A0F5C0400078A8
:10400000BAE7114949690844A0F50040F7E70E49AD
:1040100089690844A0F54040F1E7C869401CC861BF
:1040200088784A79002814BF02F0FD0242F00202AB
:104030004A7110F0800FD0B214BF40F0800000F041
:104040007F00487170BD000024000020C4190108E1
:1040500094740020500400204D04002054040020DB
:10406000F0C6002094C4002078C6010838C70108B3
:10407000947C0020949C002070B5714C7149E079CB
:1040800000EB400001EB800080688047208A00F44C
:104090007041091310297CD2DFE801F008080D0DEA
:1040A00095BBC0C0C6C6C6C6CCCCCCCC6649C0F396
:1040B0000A00085C94E000F00705082D7DD2DFE8D7
:1040C00005F004070A7C1F7C7C276048057878E0AF
:1040D0005E48457875E05D485D4A857825F0800149
:1040E0008170002111705B4909681539F12968D286
:1040F000017811F0800F04BF21F00301017060E02E
:10410000554890F80011455C491C80F8001158E0B2
:10411000524C2188A57811F4704016D0B0F5805F1C
:1041200017D0B0F5005F1AD0B0F5405F33D000254E
:104130004B48FEF7B3FF4548007810F0040F208885
:1041400014BF2030401C20803BE06068405CA070C1
:10415000F1E7A068C1F30B01405CA070EBE7C1F38D
:104160000B00B0F5406F84BFA169A0F540600DD889
:10417000B0F5006F84BF6169A0F5006006D8B0F5A6
:10418000806F86BF2169A0F58060E168085CA0703F
:10419000D1E724E011E043F61070814205D301F02D
:1041A0000F00204490F82C50C5E7B1F57C5FC2D3D6
:1041B00001F00F002044057FBDE729462948FEF79E
:1041C0006DFF28460CE0A0F58041163908BF00209D
:1041D0001CD0A0F58041173908BF012016D0000A75
:1041E000174908728A78104088704A7914BF02F023
:1041F000FD0242F002024A7110F0800FD0B214BFEB
:1042000040F0800000F07F00487170BD0BF0D0F9E5
:10421000E6E715490844A0F5A04003E01349084427
:10422000A0F5C0400078DBE7054949690844A0F5DE
:104230000040F7E7024989690844A0F54040F1E7EA
:1042400024000020C41901089474002050040020A8
:104250004D04002054040020F0C6002094C4002027
:1042600078C6010838C70108947C0020949C00207F
:1042700070B5F44CF449E07900EB400001EB8000AC
:1042800080688047208A00F47041091310297CD28D
:10429000DFE801F008080D0D95BDC2C2C8C8C8C846
:1042A000CECECECEE949C0F30A00085C94E000F01F
:1042B0000704082C7DD2DFE804F004070A7C1F7C89
:1042C0007C27E348047878E0E148447875E0E048EA
:1042D000E04A847824F08001817000211170DE4969
:1042E00009681539F12968D2017811F0800F04BFEF
:1042F00021F00301017060E0D84890F80011445C9F
:10430000491C80F8001158E0D54D2988AC7811F48B
:10431000704016D0B0F5805F17D0B0F5005F1AD0AE
:10432000B0F5405F33D00024CE48FEF7B7FEC84852
:10433000007810F0040F288814BF2030401C28801B
:104340003BE06868405CA870F1E7A868C1F30B0126
:10435000405CA870EBE7C1F30B00B0F5406F84BF81
:10436000A969A0F540600DD8B0F5006F84BF6969F8
:10437000A0F5006006D8B0F5806F86BF2969A0F56A
:104380008060E968085CA870D1E724E011E043F69A
:104390001070814205D301F00F00284490F82C40A2
:1043A000C5E7B1F57C5FC2D301F00F002844047F5C
:1043B000BDE72146AC48FEF771FE20460CE0A0F5B3
:1043C0008041163908BF00201ED0A0F58041173962
:1043D00008BF012018D0000A9A4C0022617901F030
:1043E000FE0141EAD01140066171000E2072218A5F
:1043F00001F470431B13082B80F01181DFE803F0F8
:104400001E1E2323B0FDFCFC0BF0D2F8E4E7974915
:104410000844A0F5A04003E095490844A0F5C04039
:104420000078D9E7874949690844A0F50040F7E7D3
:10443000844989690844A0F54040F1E7834AC1F303
:104440000A015054EBE001F0070108297ED2DFE8B1
:1044500001F0040683090B15232E7D49DEE07C491B
:104460004870DCE07D4906E07C4991F800218854E1
:1044700091F80001401C81F80001D0E075490A78EC
:10448000002A08BF7B4B03D0EF2888BF00207A4B5F
:10449000187082F00100C1E071490A7800EB022037
:1044A00008806C48017881F001010170B7E06C4D23
:1044B000298811F4704218BFB2F5805F08D0B2F5B8
:1044C000005F0FD0B2F5405F25D06C48FEF7E6FDE7
:1044D0005F48007810F0040F288814BF2030401C7B
:1044E00028809CE0C1F30B01B1F5406F84BFAA693D
:1044F000A1F540610DD8B1F5006F84BF6A69A1F5DF
:10450000006106D8B1F5806F86BF2A69A1F5806188
:10451000EA685054DCE701F01F0201F00F010F2A96
:10452000294498BF0877D3D981F82C00297811F055
:10453000030FCDD1287785F82C0085F8200085F869
:10454000300085F8240085F8340000E004E085F8A8
:10455000280085F83800BBE74948FEF79FFD5EE07C
:10456000A1F58043143B04D0A1F58043163B45D010
:1045700055E000210209102A1ED2DFE802F00808E7
:104580001D1D1D1D0C0C12121212181818182F497F
:1045900001EB002110E0364901EB0020A0F5C041FD
:1045A0000AE0616901EB0020A0F5004104E0A16987
:1045B00001EB0020A0F54041284A501A002804DDF4
:1045C000B0F5807FB8BF002005DB4FF48072234830
:1045D000FBF727FE0BE00B5C13540B1802EB000CEF
:1045E0005B78801C8CF80130B0F5807FF3DBE069EC
:1045F000A0F50070E06112E00CE006E000281CBFAE
:1046000020490A702049087009E0184A1144A1F5B0
:10461000A04103E0164A1144A1F5C0410870207A78
:104620006179002814BF01F0FD0141F002016171C0
:1046300010F0800FC8B214BF40F0800000F07F007F
:10464000607170BD24000020C4190108947400201A
:10465000500400204D04002054040020F0C6002027
:1046600094C4002078C6010838C70108947C002053
:10467000949C00204F0400204E040020A0C6010896
:1046800060C701082D0000202F0000200D4841794F
:1046900001F0FE02817842EAD1124900427111F024
:1046A000FF01817014BF02F0FD0242F0020242716C
:1046B00011F0800FD1B214BF41F0800101F07F01F1
:1046C000417170472400002070B56E4E707910F073
:1046D000010F1CBFF08900F470410CD009131029A0
:1046E00072D2DFE801F018181D1DA5BABFBFC5C5FD
:1046F000C5C5CACACACAF079634900EB400001EBDC
:10470000800080688047F089318A0844F081F06930
:10471000401CF06170BD5D49C0F30A00085C94E084
:1047200000F00705082D7DD2DFE805F004070A7CBC
:104730001F7C7C275648057878E05548457875E019
:104740005348544A857825F080018170002111700A
:10475000514909681539F12968D2017811F0800FA3
:1047600004BF21F00301017060E04C4890F8001193
:10477000455C491C80F8001158E0494C2188A57817
:1047800011F4704016D0B0F5805F17D0B0F5005F1F
:104790001BD0B0F5405F32D000254248FEF77EFCCA
:1047A0003B48007810F0040F208814BF2030401CD4
:1047B00020803BE06068405CA070F1E7A068C1F336
:1047C0000B01405CA070EBE73EE0C1F30B00B0F5DD
:1047D000406F84BFA169A0F540600DD8B0F5006FAF
:1047E00084BF6169A0F5006006D8B0F5806F86BF10
:1047F0002169A0F58060E168085CA070D0E743F60D
:104800001070814206D301F00F00204490F82C5024
:10481000C6E707E0B1F57C5FC2D301F00F0020448A
:10482000057FBDE729462048FEF738FC28460CE006
:10483000A0F58041163908BF00200BD0A0F58041BB
:10484000173908BF012005D0000A3072F089401CDA
:10485000F08170BD0AF0ACFEF7E714490844A0F5FA
:10486000A04003E012490844A0F5C0400078ECE7FE
:1048700071690844A0F50040F8E7B1690844A0F563
:104880004040F3E724000020C4190108947400207C
:10489000500400204D04002054040020F0C60020E5
:1048A00094C4002078C6010838C70108947C002011
:1048B000949C002070B56E4E707910F0010F04BF0B
:1048C000F08900F470410FD0F0796A4900EB4000A4
:1048D00001EB800080688047F089318A0844F081CC
:1048E000F069401CF06170BD091310297CD2DFE82B
:1048F00001F008080D0D95AAAFAFB5B5B5B5BABAB8
:10490000BABA5D49C0F30A00085C94E000F00705FC
:10491000082D7DD2DFE805F004070A7C1F7C7C2788
:104920005648057878E05548457875E05348544A2C
:10493000857825F080018170002111705149096846
:104940001539F12968D2017811F0800F04BF21F0E8
:104950000301017060E04C4890F80011455C491C6F
:1049600080F8001158E0494C2188A57811F4704076
:1049700016D0B0F5805F17D0B0F5005F1AD0B0F553
:10498000405F33D000254248FEF788FB3B48007863
:1049900010F0040F208814BF2030401C20803BE022
:1049A0006068405CA070F1E7A068C1F30B01405C57
:1049B000A070EBE7C1F30B00B0F5406F84BFA169B5
:1049C000A0F540600DD8B0F5006F84BF6169A0F517
:1049D000006006D8B0F5806F86BF2169A0F58060C1
:1049E000E168085CA070D1E724E011E043F61070A4
:1049F000814205D301F00F00204490F82C50C5E708
:104A0000B1F57C5FC2D301F00F002044057FBDE704
:104A100029462048FEF742FB28460CE0A0F58041DD
:104A2000163908BF00200BD0A0F58041173908BF08
:104A3000012005D0000A3072F089401CF08170BD61
:104A40000AF0B6FDF7E714490844A0F5A04003E0DA
:104A500012490844A0F5C0400078ECE771690844A9
:104A6000A0F50040F8E7B1690844A0F54040F3E73D
:104A700024000020C4190108947400205004002070
:104A80004D04002054040020F0C6002094C40020EF
:104A900078C6010838C70108947C0020949C002047
:104AA00070B56E4E707910F0020F04BFF08900F4FB
:104AB00070410FD0F0796A4900EB400001EB8000B3
:104AC00080688047F089318A0844F081F069401C91
:104AD000F06170BD091310297CD2DFE801F00808ED
:104AE0000D0D95AAAFAFB5B5B5B5BABABABA5D49AD
:104AF000C0F30A00085C94E000F00705082D7DD2A1
:104B0000DFE805F004070A7C1F7C7C2756480578FF
:104B100078E05548457875E05348544A857825F043
:104B20008001817000211170514909681539F129FE
:104B300068D2017811F0800F04BF21F003010170E9
:104B400060E04C4890F80011455C491C80F8001169
:104B500058E0494C2188A57811F4704016D0B0F582
:104B6000805F17D0B0F5005F1AD0B0F5405F33D04A
:104B700000254248FEF792FA3B48007810F0040FF7
:104B8000208814BF2030401C20803BE06068405CDF
:104B9000A070F1E7A068C1F30B01405CA070EBE7E7
:104BA000C1F30B00B0F5406F84BFA169A0F5406070
:104BB0000DD8B0F5006F84BF6169A0F5006006D81C
:104BC000B0F5806F86BF2169A0F58060E168085C60
:104BD000A070D1E724E011E043F61070814205D3C4
:104BE00001F00F00204490F82C50C5E7B1F57C5F30
:104BF000C2D301F00F002044057FBDE729462048BD
:104C0000FEF74CFA28460CE0A0F58041163908BFA3
:104C100000200BD0A0F58041173908BF012005D036
:104C2000000A3072F089401CF08170BD0AF0C0FCAF
:104C3000F7E714490844A0F5A04003E012490844EE
:104C4000A0F5C0400078ECE771690844A0F5004089
:104C5000F8E7B1690844A0F54040F3E724000020DC
:104C6000C419010894740020500400204D04002051
:104C700054040020F0C6002094C4002078C6010827
:104C800038C70108947C0020949C002070B56F4CBC
:104C90006F49E07900EB400001EB800080688047BD
:104CA000208A00F47041091310297CD2DFE801F05A
:104CB00008080D0D95B6BBBBC1C1C1C1C7C7C7C7E9
:104CC0006449C0F30A00085C94E000F00705082D71
:104CD0007DD2DFE805F004070A7C1F7C7C275E4854
:104CE000057878E05C48457875E05B485B4A8578F4
:104CF00025F080018170002111705949096815392A
:104D0000F12968D2017811F0800F04BF21F003016E
:104D1000017060E0534890F80011455C491C80F830
:104D2000001158E0504C2188A57811F4704016D03D
:104D3000B0F5805F17D0B0F5005F1AD0B0F5405FD6
:104D400033D000254948FEF7A9F94348007810F010
:104D5000040F208814BF2030401C20803BE0606896
:104D6000405CA070F1E7A068C1F30B01405CA0704B
:104D7000EBE7C1F30B00B0F5406F84BFA169A0F56C
:104D800040600DD8B0F5006F84BF6169A0F5006088
:104D900006D8B0F5806F86BF2169A0F58060E16814
:104DA000085CA070D1E724E011E043F61070814266
:104DB00005D301F00F00204490F82C50C5E7B1F561
:104DC0007C5FC2D301F00F002044057FBDE7294678
:104DD0002748FEF763F928460CE0A0F58041163914
:104DE00008BF002017D0A0F58041173908BF012067
:104DF00011D0000A154908728A7810424A7914BF06
:104E000002F0FD0242F0020202F03F0200F0C00098
:104E10001043487170BD0AF0CBFBEBE7154908441D
:104E2000A0F5A04003E014490844A0F5C040007874
:104E3000E0E7064949690844A0F50040F7E703495F
:104E400089690844A0F54040F1E7000024000020F3
:104E5000C419010894740020500400204D0400205F
:104E600054040020F0C6002094C4002078C6010835
:104E700038C70108947C0020949C002070B56E4EC9
:104E8000707910F0800F04BFF08900F470410FD0EA
:104E9000F0796A4900EB400001EB800080688047B0
:104EA000F089318A0844F081F069401CF06170BDDE
:104EB000091310297CD2DFE801F008080D0D95AA2E
:104EC000AFAFB5B5B5B5BABABABA5D49C0F30A0065
:104ED000085C94E000F00705082D7DD2DFE805F0BE
:104EE00004070A7C1F7C7C275648057878E05548E3
:104EF000457875E05348544A857825F080018170E3
:104F000000211170514909681539F12968D20178D9
:104F100011F0800F04BF21F00301017060E04C48E4
:104F200090F80011455C491C80F8001158E0494C8C
:104F30002188A57811F4704016D0B0F5805F17D0A5
:104F4000B0F5005F1AD0B0F5405F33D0002542487D
:104F5000FEF7A4F83B48007810F0040F208814BF37
:104F60002030401C20803BE06068405CA070F1E78E
:104F7000A068C1F30B01405CA070EBE7C1F30B002C
:104F8000B0F5406F84BFA169A0F540600DD8B0F5C1
:104F9000006F84BF6169A0F5006006D8B0F5806F2E
:104FA00086BF2169A0F58060E168085CA070D1E748
:104FB00024E011E043F61070814205D301F00F00A8
:104FC000204490F82C50C5E7B1F57C5FC2D301F0C6
:104FD0000F002044057FBDE729462048FEF75EF814
:104FE00028460CE0A0F58041163908BF00200BD000
:104FF000A0F58041173908BF012005D0000A3072A2
:10500000F089401CF08170BD0AF0D2FAF7E714492C
:105010000844A0F5A04003E012490844A0F5C040B0
:105020000078ECE771690844A0F50040F8E7B16941
:105030000844A0F54040F3E724000020C41901080B
:1050400094740020500400204D04002054040020DB
:10505000F0C6002094C4002078C6010838C70108B3
:10506000947C0020949C002070B56E4E707910F0F6
:10507000020F1CBFF08900F470410CD009131029F5
:1050800072D2DFE801F018181D1DA5BABFBFC5C553
:10509000C5C5CACACACAF079634900EB400001EB32
:1050A000800080688047F089318A0844F081F06987
:1050B000401CF06170BD5D49C0F30A00085C94E0DB
:1050C00000F00705082D7DD2DFE805F004070A7C13
:1050D0001F7C7C275648057878E05548457875E070
:1050E0005348544A857825F0800181700021117061
:1050F000514909681539F12968D2017811F0800FFA
:1051000004BF21F00301017060E04C4890F80011E9
:10511000455C491C80F8001158E0494C2188A5786D
:1051200011F4704016D0B0F5805F17D0B0F5005F75
:105130001BD0B0F5405F32D000254248FDF7AEFFEE
:105140003B48007810F0040F208814BF2030401C2A
:1051500020803BE06068405CA070F1E7A068C1F38C
:105160000B01405CA070EBE73EE0C1F30B00B0F533
:10517000406F84BFA169A0F540600DD8B0F5006F05
:1051800084BF6169A0F5006006D8B0F5806F86BF66
:105190002169A0F58060E168085CA070D0E743F663
:1051A0001070814206D301F00F00204490F82C507B
:1051B000C6E707E0B1F57C5FC2D301F00F002044E1
:1051C000057FBDE729462048FDF768FF28460CE02B
:1051D000A0F58041163908BF00200BD0A0F5804112
:1051E000173908BF012005D0000A3072F089401C31
:1051F000F08170BD0AF0DCF9F7E714490844A0F526
:10520000A04003E012490844A0F5C0400078ECE754
:1052100071690844A0F50040F8E7B1690844A0F5B9
:105220004040F3E724000020C419010894740020D2
:10523000500400204D04002054040020F0C600203B
:1052400094C4002078C6010838C70108947C002067
:10525000949C002070B56E4E707910F0800F1CBFCA
:10526000F08900F470410CD00913102972D2DFE8E4
:1052700001F018181D1DA5BABFBFC5C5C5C5CACA4E
:10528000CACAF079634900EB400001EB80008068F6
:105290008047F089318A0844F081F069401CF06150
:1052A00070BD5D49C0F30A00085C94E000F007059A
:1052B000082D7DD2DFE805F004070A7C1F7C7C27DF
:1052C0005648057878E05548457875E05348544A83
:1052D000857825F08001817000211170514909689D
:1052E0001539F12968D2017811F0800F04BF21F03F
:1052F0000301017060E04C4890F80011455C491CC6
:1053000080F8001158E0494C2188A57811F47040CC
:1053100016D0B0F5805F17D0B0F5005F1BD0B0F5A8
:10532000405F32D000254248FDF7B8FE3B48007888
:1053300010F0040F208814BF2030401C20803BE078
:105340006068405CA070F1E7A068C1F30B01405CAD
:10535000A070EBE73EE0C1F30B00B0F5406F84BFF7
:10536000A169A0F540600DD8B0F5006F84BF6169F8
:10537000A0F5006006D8B0F5806F86BF2169A0F562
:105380008060E168085CA070D0E743F6107081424D
:1053900006D301F00F00204490F82C50C6E707E038
:1053A000B1F57C5FC2D301F00F002044057FBDE75B
:1053B00029462048FDF772FE28460CE0A0F5804102
:1053C000163908BF00200BD0A0F58041173908BF5F
:1053D000012005D0000A3072F089401CF08170BDB8
:1053E0000AF0E6F8F7E714490844A0F5A04003E006
:1053F00012490844A0F5C0400078ECE77169084400
:10540000A0F50040F8E7B1690844A0F54040F3E793
:1054100024000020C41901089474002050040020C6
:105420004D04002054040020F0C6002094C4002045
:1054300078C6010838C70108947C0020949C00209D
:1054400010B5084C0849E07900EB400001EB800002
:1054500080688047E089218A0844E081E069401C37
:10546000E06110BD24000020C41901082DE9F05F9F
:10547000F94EDFF8E893FA4FF089FA4D401C80B2FC
:10548000F081B279000A02F58071521EB2710022D9
:105490001213DFF8D483F54C09F5006B09F5205A97
:1054A000082A80F0ED80DFE802F00404080895E3A4
:1054B000E7E709F8010000F0E3B801F00702E84966
:1054C000082A91F800C0E9498CF0010309887CD2D0
:1054D000DFE802F004077B0A0D16222788F8000097
:1054E000CEE088F80100CBE085F80001C8E095F82F
:1054F0000011685495F80001401C85F80001BFE0D8
:10550000BCF1000F08BFDA4903D0EF2888BF0020A4
:10551000D84908703B70B3E000EB012020803B705D
:10552000AEE011F4704218BFB2F5805F08D0B2F55A
:10553000005F0FD0B2F5405F25D0CF48FDF7AEFD3C
:1055400098F8000010F0040F208814BF2030401C91
:10555000208095E0C1F30B01B1F5406F84BFA269D3
:10556000A1F540610DD8B1F5006F84BF6269A1F566
:10557000006106D8B1F5806F86BF2269A1F5806110
:10558000E2685054DCE7B94A01F01F030F2B117891
:1055900001F00F01114498BF0877D1D981F82C0090
:1055A000217811F0030FCBD1207784F82C0084F8F8
:1055B000200084F8300084F8240084F8340084F853
:1055C000280084F83800BBE7FFE71146AB48FDF739
:1055D00065FD55E0A1F58042143A04D0A1F5804262
:1055E000163A3ED04CE000210209102A1CD2DFE816
:1055F00002F008081B1B1B1B0B0B101010101616BB
:10560000161609EB00210FE00AEB0020A0F5C041BF
:105610000AE0716901EB0020A0F5004104E0B169E6
:1056200001EB0020A0F54041681A002804DDB0F528
:10563000807FB8BF002005DB4FF480728948FAF7FD
:10564000F0FD09E00A5C2A540A182B185278801CD5
:105650005A70B0F5807FF5DBF069A0F50070F0615D
:105660000EE010B1864A002111708649087007E0EB
:105670005944A1F5A04102E05144A1F5C041087090
:10568000B079002200F58071401EB071B07B12131A
:10569000082A53D2DFE802F00404070791F9FDFD60
:1056A00009F80100F9E001F0070108297DD2DFE8DF
:1056B00001F00407800A0D16232C88F80000ECE0A6
:1056C00088F80100E9E085F80001E6E095F80011AE
:1056D000685495F80001401C85F80001DDE0397838
:1056E000002908BF624A03D0EF2888BF0020614A22
:1056F000107081F0010006E0217800EB012020808D
:10570000387880F001003870C7E0218811F47042C9
:1057100018BFB2F5805F08D0B2F5005F0FD0B2F5C8
:10572000405F25D05448FDF7B9FC98F8000010F010
:10573000040F208814BF2030401C2080ADE0C1F34E
:105740000B01B1F5406F84BFA269A1F540610DD88E
:10575000B1F5006F84BF6269A1F5006106D8B1F5AB
:10576000806F86BF2269A1F58061E2685054DCE752
:1057700001F01F0201F00F010F2A214498BF0877A2
:10578000D3D981F82C00217811F0030FCDD12077E7
:1057900084F82C0084F8200084F8300084F8240079
:1057A00084F8340084F8280000E002E084F838002F
:1057B000BBE73248FDF772FC6FE0A1F58042143A76
:1057C00004D0A1F58042163A3ED066E000210209DD
:1057D000102A1CD2DFE802F008081B1B1B1B0B0B56
:1057E000101010101616161609EB00210FE00AEB28
:1057F0000020A0F5C0410AE0716901EB0020A0F58E
:10580000004104E0B16901EB0020A0F54041681AB5
:10581000002804DDB0F5807FB8BF002005DB4FF421
:1058200080721048FAF7FDFC09E00A5C2A540A1855
:105830002B185278801C5A70B0F5807FF5DBF06928
:10584000A0F50070F06128E010B10D4A0021117040
:105850000C49087021E01CE0240000209474002012
:105860004D040020F0C600205004002094C4002005
:105870004F0400204E040020A0C6010860C70108A4
:105880002D0000202F000020FFE75944A1F5A04182
:1058900002E05144A1F5C0410870B079002300F541
:1058A0008071401EB0711A4670791B13082B53D2B9
:1058B000DFE803F00404070791DFE3E309F80100E0
:1058C000DFE001F0070108297DD2DFE801F00407DD
:1058D000800A0D16232C88F80000D2E088F8010019
:1058E000CFE085F80001CCE095F80011685495F8F8
:1058F0000001401C85F80001C3E03978002908BF89
:10590000B94A03D0EF2888BF0020B84A107081F050
:10591000010006E0217800EB01202080387880F03B
:1059200001003870ADE0218811F4704218BFB2F563
:10593000805F08D0B2F5005F0FD0B2F5405F25D090
:10594000AB48FDF7ABFB98F8000010F0040F20887F
:1059500014BF2030401C208093E0C1F30B01B1F54F
:10596000406F84BFA269A1F540610DD8B1F5006F09
:1059700084BF6269A1F5006106D8B1F5806F86BF6A
:105980002269A1F58061E2685054DCE701F01F0252
:1059900001F00F010F2A214498BF0877D3D981F86D
:1059A0002C00217811F0030FCDD1207784F82C0042
:1059B00084F8200084F8300084F8240084F834004F
:1059C00084F8280000E002E084F83800BBE789484A
:1059D000FDF764FB55E0A1F58043143B04D0A1F52D
:1059E0008043163B3ED04CE000210209102A1CD215
:1059F000DFE802F008081B1B1B1B0B0B101010101C
:105A00001616161609EB00210FE00AEB0020A0F590
:105A1000C0410AE0716901EB0020A0F5004104E0FB
:105A2000B16901EB0020A0F54041681A002804DDAF
:105A3000B0F5807FB8BF002005DB4FF480726E4860
:105A4000FAF7EFFB09E00A5C2A540A182B1852787F
:105A5000801C5A70B0F5807FF5DBF069A0F500700E
:105A6000F0610EE000281CBF64490A7064490870A8
:105A700007E05944A1F5A04102E05144A1F5C0411D
:105A8000087070794FF4704140F014007071091380
:105A90004FF6FE70102925D2DFE801F008080B0B45
:105AA000241115151A1A1A1A1F1F1F1F99F8FE77AD
:105AB00019E006215348FDF7F1FA062713E0584490
:105AC000A0F5A04002E05044A0F5C04007780AE0ED
:105AD00071690844A0F50040F8E7B1690844A0F5F1
