:020000040800F2
:10000000A87700108D020008D7300008D112000830
:10001000D53000089F0500080138000800000000E6
:10002000000000000000000000000000B7360008DB
:10003000B105000800000000D9300008B9360008FA
:10004000A7020008A7020008A7020008A7020008EC
:10005000A7020008A7020008A7020008A7020008DC
:10006000A7020008A7020008A7020008A7020008CC
:10007000A7020008A7020008A7020008A7020008BC
:10008000A7020008A7020008A7020008A7020008AC
:10009000A7020008A7020008A7020008A70200089C
:1000A000A7020008A7020008A7020008A70200088C
:1000B000A7020008A7020008A7020008A70200087C
:1000C000A7020008A7020008A7020008A70200086C
:1000D000A7020008A7020008A7020008A70200085C
:1000E000A7020008A7020008A7020008A70200084C
:1000F000A7020008A7020008A7020008A70200083C
:10010000A7020008A7020008A7020008A70200082B
:10011000A7020008A7020008A7020008A70200081B
:10012000A7020008A7020008A1050008A70200080E
:10013000A7020008A7020008A7020008A7020008FB
:10014000A7020008A7020008A7020008A7020008EB
:10015000A3050008A5050008A7020008A7020008DB
:10016000A7020008A7020008A7020008A7020008CB
:10017000A7020008A7020008A7020008000000006C
:10018000A7020008A702000800F002F800F06EF8CD
:100190000AA090E8000C82448344AAF10107DA45E2
:1001A00001D100F063F8AFF2090EBAE80F0013F0C6
:1001B000010F18BFFB1A43F001031847ECEE0200D1
:1001C0002CEF020010F8013B0A4413F0030408BFAF
:1001D00010F8014B1D1108BF10F8015B641E05D01B
:1001E00010F8016B641E01F8016BF9D1002D15D0D8
:1001F00010F8014B03F00C030C2BA1EB04040ABF15
:1002000010F8013BA4EB8314A4EB032405F10103D4
:1002100014F8016B5B1E01F8016BF9D5914238BFF0
:1002200010F8013BD1D37047103A24BF78C878C189
:10023000FAD8520724BF30C830C144BF04680C60EC
:10024000704700000023002400250026103A28BF34
:1002500078C1FBD8520728BF30C148BF0B60704738
:100260001FB50FF0C8FA1FBD10B510BD00F062F940
:100270001146FFF7F5FF0CF043FB00F080F903B4E3
:10028000FFF7F2FF03BC00F083F900000948804744
:1002900009480047FEE7FEE7FEE7FEE7FEE7FEE768
:1002A000FEE7FEE7FEE7FEE704480549054A064B80
:1002B00070470000A937000889010008A8710010E4
:1002C000A8770010A8730010A8730010431A28BF65
:1002D0009A4240F27280032A1044114440F2268070
:1002E00010F0030F1EBF11F8013D521E00F8013D32
:1002F00010F0030F7FF4F6AF11F0030300F0B580A8
:10030000083AC0F00B8051F8043D083A51F804CD8A
:1003100040F8043D40F804CDFFF7F3BF121D5CBF69
:1003200051F8043D40F8043DAFF30080D20724BFEC
:1003300011F8013D11F801CD48BF11F8012C24BF7F
:1003400000F8013D00F801CD48BF00F8012C7047CE
:100350004FF0000200B5134694469646203922BF5E
:10036000A0E80C50A0E80C50B1F12001BFF4F7AFA9
:10037000090728BFA0E80C5048BF0CC05DF804EB8B
:10038000890028BF40F8042B08BF704748BF20F8F9
:10039000022B11F0804F18BF00F8012B70477047F7
:1003A0007047704710B500F08BF8006810BD10B5AD
:1003B000044600F085F8046010BD032A40F2308046
:1003C00010F0030C00F0158011F8013BBCF1020F96
:1003D000624498BF11F801CB00F8013B38BF11F817
:1003E000013BA2F1040298BF00F801CB38BF00F82E
:1003F000013B11F0030300F06780083AC0F0088069
:1004000051F8043B083A51F804CBA0E80810F5E78E
:10041000121D5CBF51F8043B40F8043BAFF3008071
:10042000D20724BF11F8013B11F801CB48BF11F8E6
:10043000012B24BF00F8013B00F801CB48BF00F8B6
:10044000012B7047431A28BF9A4240F23D80104466
:1004500010F0030F11441EBF11F8013D521E00F8A9
:10046000013D10F0030F7FF4F6AF103AC0F00A80A0
:1004700010B531E91850103A20E91850BFF4F9AF1F
:10048000BDE81040530724BF31E9081020E90810E7
:1004900044BF51F8043D40F8043D12F0030F08BF7B
:1004A0007047D20728BF31F8023D48BF11F8012C30
:1004B00028BF20F8023D48BF00F8012C704700001B
:1004C000004870474471001010B5203AC0F00B800E
:1004D000B1E81850203AA0E81850B1E81850A0E848
:1004E0001850BFF4F5AF5FEA027C24BFB1E81850A2
:1004F000A0E8185044BF18C918C0BDE810405FEA12
:10050000827C24BF51F8043B40F8043B08BF70478D
:10051000D20728BF31F8023B48BF11F8012B28BF92
:1005200020F8023B48BF00F8012B70470048704795
:10053000447100107546FFF7F9FFAE4605006946A5
:10054000534620F00700854618B020B5FFF7ACFEF3
:10055000BDE820404FF000064FF000074FF00008C4
:100560004FF0000B21F00701AC46ACE8C009ACE845
:10057000C009ACE8C009ACE8C0098D46704710B5A9
:100580000446AFF300802046BDE81040FFF777BE79
:1005900001491820ABBEFEE7260002007047FEE7C7
:1005A00070477047014800F005B800006470001003
:1005B000704770472DE9F8430446002700977348B9
:1005C0004FF41651A56D0068B0FBF1F92E6894F850
:1005D0005C00082101FA00F0304211D02068026866
:1005E00012F0040F0CD0026822F00402026094F8AA
:1005F0005C0001FA00F0A860606D40F001006065E9
:1006000094F85C004FF0010808FA00F0304209D07D
:100610002168496911F0800F04D0A860606D40F036
:100620000200606594F85C1004208840304209D0D4
:100630002168096811F0020F04D0A860606D40F0D5
:100640000400606594F85C1010208840304220D08F
:100650002168096811F0080F1BD0A86020680168A4
:1006600011F4802F09D0006810F4002F02D0A16C83
:1006700079B10CE0216C51B90BE0016811F4807F75
:1006800003D1016821F008010160216C09B1204605
:10069000884794F85C102020884030424AD0216876
:1006A000096811F0100F45D0A86094F835000528AE
:1006B0002068016809D011F4802F2BD0006810F455
:1006C000002F24D0E16B21B332E021F0160101604C
:1006D0002068416921F080014161206C002804BF3D
:1006E000A06C002804D02068016821F00801016096
:1006F00094F85C004FF03F0101FA00F0A86084F824
:10070000347084F83580216DD1BBBDE8F883616C0D
:1007100071B90FE0016811F4807F07D1016821F001
:100720001001016084F8347084F83580E16B09B100
:1007300020468847606D002808BFBDE8F883606DDB
:1007400010F0010F17D04FF0050084F83500206835
:10075000016821F001010160009800F101000090A2
:10076000484504D82068006810F0010FF4D184F8DF
:10077000347084F83580E16C002908BFBDE8F88347
:10078000204601B0BDE8F043084700009C0000107F
:1007900070B5044600F0DCF90546002C04BF0120CA
:1007A00070BD002684F83460022084F8350020688B
:1007B000016821F0010101602068006810F0010F5C
:1007C00010D000BF00F0C4F9401B052805D9202037
:1007D0006065032084F8350070BD2068006810F063
:1007E000010FEFD1216808683D4A1040D4E9012388
:1007F0001A43D4E9033C43EA0C031A4363691A43DE
:10080000A3691A43E3691A43236A1A431043626ACD
:10081000042A03D1D4E90B231A4310430860D4F807
:1008200000C0DCF81400012320F00701606A40EAF0
:100830000102042837D1A16AE06A0A4318B3A56906
:1008400055B1B5F5005F14D000291CBF012902295C
:1008500021D003291CD026E019B1012905D0022995
:1008600021D110F0807F1ED015E0B0F1C07F1AD1E9
:1008700011E081B1012907D002290CD0032908BF5A
:10088000B0F1C07F07D00EE010F0807F03D10AE006
:1008900010F0807F07D04FF04000606584F835305D
:1008A0004FF0010070BDCCF8142020680D4AC1B291
:1008B000A1F11001A2FB01210B4A4FEA11110329FA
:1008C000525CE2656FF3090088BF001D3F21914033
:1008D000A0658160666584F83530002070BD000039
:1008E0003F8010F0ABAAAAAA28EC020870B5044613
:1008F00000F02EF90546B4F1FF3F02D0044800781D
:10090000044400F025F9401BA042FAD370BD00005A
:10091000900000102DE9F84F0022884EDFF820E209
:1009200001274FF0030A4FF00F0800BF0B6807FACA
:1009300002F42340A34240F0FB80D1F804C0BCF194
:10094000020F18BFBCF1120F15D14FEAD20C00EB09
:100950008C0CDCF820504FEA42794FEAD96908FA4A
:1009600009FB25EA0B05D1F810B00BFA09F949EAA1
:100970000505CCF82050D0F800904FEA420C91F8D1
:1009800004B00AFA0CF50BF0030B29EA05090BFA7F
:100990000CFB4BEA0909C0F80090D1F80490B9F1BA
:1009A000010F18BFB9F1020F05D0B9F1110F18BF2F
:1009B000B9F1120F18D1D0F80890D1F80CB029EA8B
:1009C00005090BFA0CFB4BEA0909C0F80890D0F8AE
:1009D000049029EA040491F80490C9F3001909FA73
:1009E00002F949EA04044460C46824EA05048D68F5
:1009F00005FA0CFC4CEA040CC0F80CC0D1F804C099
:100A00001CF0805F7ED0D6F800C04CF4804CC6F855
:100A100000C0D6F800C00CF4804CCDF800C022F025
:100A2000030C0CF1804505F59835D5F808C84FEA58
:100A300082744FEA147408FA04F92CEA090CA0F144
:100A40008049B9F5003938D0A0F18049B9F50139AC
:100A500008BF4FF0010930D0A0F18049B9F5023943
:100A600008BF4FF0020928D0A0F18049B9F5033939
:100A700008BF4FF0030920D0A0F18049B9F504392F
:100A800008BF4FF0040918D0A0F18049B9F5053925
:100A900008BF4FF0050910D0A0F18049B9F506391B
:100AA00008BF4FF0060908D0A0F18049B9F5073911
:100AB0000CBF4FF007094FF0080909FA04F444EAA3
:100AC0000C0CC5F808C8DEF800C04C682CEA030C12
:100AD00014F4803F18BF4CEA030CCEF800C0194C48
:100AE000D4F800C04D682CEA030C15F4003F18BF81
:100AF0004CEA030CC4F800C0134CD4F800C02CEA34
:100B0000030C00E014E04D6815F4801F18BF4CEA98
:100B1000030CC4F800C00D4CD4F800C04D682CEA9A
:100B2000030C15F4001F18BF4CEA030CC4F800C0F6
:100B3000521C102AFFF4FAAEBDE8F88F4438024088
:100B4000003C0140043C0140083C01400C3C014099
:100B50000148406870470000100000100B4810B5B5
:100B6000016841F400710160016841F48061016035
:100B7000016841F480710160032000F081F80020D9
:100B800000F006F800F024F8002010BD003C024000
:100B900070B50D4D04464FF47A712878B1FBF0F032
:100BA0000A490968B1FBF0F000F07CFB48B9102C51
:100BB00007D200222146501E00F030F800206C6061
:100BC00070BD012070BD0000900000109C0000105E
:100BD0000A4881B0016841F480410160006800F476
:100BE000804000900648016841F080510160006833
:100BF00000F08050009001B070470000443802407F
:100C00004038024000F01F01012202FA01F14009C0
:100C1000800000F1E020C0F800117047174B10B4BD
:100C20001B68C3F30223C3F1070CBCF1040F88BF98
:100C30004FF0040C1C1D072C34BF0023DB1E0124C5
:100C400004FA0CFCACF1010C0CEA0101994004FA25
:100C500003F35B1E1A40114300284FEA0111A1BFA4
:100C600000F1E02080F8001410BC704700F00F0085
:100C700000F1E02080F8141D10BC70470CED00E07E
:100C8000074900F007000A684FF6FF031A4042EADE
:100C9000002040F0FD7040F0806008607047000068
:100CA0000CED00E02DE9F041044684B003200D4630
:100CB00084F83400606C03285DD0B5F5805F04BF14
:100CC000A06B40F0805032D000264FF400684FF007
:100CD0008067B5F5006F06D0002D1CBFA06B40F0FB
:100CE000006026D023E0009601960021206802F0E3
:100CF0000AFA10F0007F01D0404639E069462046EC
:100D000002F050FCA0BB019810F4802F0DD0B4F875
:100D100050000104206802F01AFA48BB0221206842
:100D200002F05AFA20BB304622E0384620E0A063A9
:100D300025E0009601960021206802F0E4F910F009
:100D4000007FD9D16946204602F02CFC80B9019879
:100D500010F4803FE9D0B4F850000104206802F09C
:100D6000F6F928B90021206802F036FA0028DAD016
:100D7000A16B0843DBE7A06B40F08050A063A06B41
:100D8000012648B1216840F2FF50886384F834603E
:100D900004B00120BDE8F081D4E9050CD4E90112CA
:100DA000E368CDE90050CDF808C0206802F0B2F940
:100DB00084F8346004B00020BDE8F08170B4426E65
:100DC000120E93090B70C2F383034B7002F00302FF
:100DD0008A70426E120CCA70B0F86420120A0A714E
:100DE00090F864204A71826E4FF6FF73120E03EA88
:100DF0000212CA80826ECB88C2F3074243EA121302
:100E0000CB8002F00F020A72B0F86820C2F307220A
:100E1000D3094B72C2F380138B72C2F34013CB72AF
:100E2000C2F300130B734FF0000C81F80DC0456C3A
:100E30004FF40074012375B1012D45D0026840F2D2
:100E4000FF519163816B41F08051816380F83430B0
:100E500070BC012070479207120D0A6190F868205B
:100E60000D6945EA82020A61C26E0D69120E45EAF9
:100E700092150D61C2F3C2050D7502F007024A75A5
:100E8000C26EC2F3074255098D75C2F38205CD7556
:100E90009207520F0A76B0F86C200D7EC2F307223B
:100EA00045EAD2150D760D696D1C45650E7EB61CA2
:100EB00005FA06F646650D7A03FA05F585656D0AAD
:100EC0007543C0E917541CE090F868209206920A16
:100ED0000A61C26E0D69120E45EA02220A61C26EF3
:100EE0000D69C2F307422A430A61B0F86C200D690C
:100EF000C2F307226D1C4FEA85254565C0E91645FA
:100F00000466C2F380144C764FEA82624FEA526262
:100F10008A7690F86C208C7E44EAD2148C7602F0AB
:100F20007F02CA76026F4FEA12624FEAD2140C7740
:100F3000C2F341144C77C2F382048C774FEA827279
:100F40004FEA1272CA77026FCC7FC2F3074244EABB
:100F50009214CC77C2F3401481F8204081F821C06C
:100F600002F0010281F82220B0F87020C2F30722BB
:100F70004FEAD21C81F823C0C2F3801C81F824C040
:100F8000C2F3401C81F825C0C2F3001C81F826C0C2
:100F9000C2F3810C81F827C002F0030281F82820F7
:100FA00090F870004FEA500081F8290081F82A304B
:100FB00070BC4FF000007047002804BF012070474C
:100FC00070B5044690F83400002518B925772046FE
:100FD00000F0F0F8032084F83400204600F008F810
:100FE000A5632563012084F83400002070BD000053
:100FF0002DE9F043002591B0044676200095CDE917
:1010000001502B462A462946206802F083F8684F93
:1010100047F8A05F206802F093F801263E600220A6
:10102000FFF764FC0095206802F0E4F800287DD109
:10103000206802F001F94FF080784FF6FF77002822
:101040001ABFA5644FF08059A66417D00098411CC0
:101050000091B84217D00021206802F078F820B93A
:101060000021206802F080F808B1484688E000219D
:10107000206802F048F8C00FE8D01EE00098411C3C
:101080000091B84201D140467AE00021206802F088
:101090005EF8002874D14FF08041206802F064F8B7
:1010A00000286DD10021206802F02DF8C10FE5D095
:1010B00010F0804F18BF666400D16564ADF8106011
:1010C000206802F01CF8002808BF4FF0806057D05D
:1010D000606C032842D0206802F0ECF800284FD161
:1010E0000021206802F00FF860670421206802F0F8
:1010F0000AF8A0670821206802F005F8E0670C21D3
:10110000206802F000F8C4F88000606C032825D045
:1011100004A9206802F03CF940B9606C03281DD096
:10112000BDF8100020650104206800E028E002F00E
:10113000F1F828BB0021206801F0E5FF606604217A
:10114000206801F0E0FFA0660821206801F0DBFFC5
:10115000E0660C21206801F0D6FF2067042120689A
:1011600001F0D1FF010DE164204605A9FFF726FE3D
:10117000B4F8500000230204206802F08DF840B15A
:1011800084F83460A16B0843A06311B00120BDE86E
:10119000F083D4E90401A2690292CDE9000194E848
:1011A0000F0001F0B7FF11B00020BDE8F083000090
:1011B000008025422DE9F04387B0002605460096C1
:1011C00001960296039604960068A0F18041B1F55D
:1011D00096311CBF07B0BDE8F0832C48016841F48C
:1011E00000610160006800F4006005902848016813
:1011F00041F004010160016801F0040105910168FA
:1012000041F0080101600068022400F00800059028
:101210004FF4F850CDE9000403274FF00C09CDE955
:10122000037969461B48FFF775FB4FF0040801AAD4
:10123000CDF8008082E8D00269461748FFF76AFBC4
:10124000174C164820604FF00060C4E901064014B6
:10125000C4E90360800060618000A0612020E0613B
:101260000003C4E908088001C4E90A708010206303
:101270002046FFF78DFA002818BFFFF79AF9EC63B4
:101280002C64A56307B0BDE8F08300004438024039
:101290003038024000080240000C0240A0640240C6
:1012A00064700010411EB1F1807F24BF012070479F
:1012B0004FF0E0204161054AF02182F8141D002121
:1012C0008161072101610020704700000FE000E00C
:1012D000FEE700001348006810F4007F1CBF0220E6
:1012E000704710B500F03AF950B10F4881780F48B7
:1012F000032902D0022909D002E00078FB2801D09E
:10130000002010BD00F098F8012010BD0178F129EF
:1013100004BF8178072902D105494079C8704FF090
:10132000010010BD100C02407C000010C4700010C1
:101330004400001000220146052000F019BA000008
:10134000F0B53748016841F040010160811535482A
:101350008161C114816181148161334A8903116003
:10136000324C0221216021680029FCD14FF48061B8
:10137000816100212E4D0E46286810F4007F1CBFAD
:101380000120206008D020680028FCD1481CC1B290
:101390007D29F1D30020F0BD0021286810F4007FE2
:1013A0001CBF0120206006D020680028FCD1481C0A
:1013B000C1B27D29F1D300F0D1F80021286810F4E2
:1013C000007F1CBF0120206006D020680028FCD1CF
:1013D000481CC1B27D29F1D300F0C0F8154FF920A7
:1013E000022138707E70084600F03AF90021286822
:1013F00010F4007F1CBF0120206006D02068002868
:10140000FCD1481CC1B27D29F1D300F0A7F8002817
:10141000C0D03878F82808BF0120BBD1F0BD00004B
:1014200000380040000C0240180C02401800001068
:10143000100C0240C47000102DE9F0034448454BE5
:1014400000270088D3F8022020F40040001F01B2DA
:101450005878491F40EA02223F48B8460929C2632A
:1014600093F807C0B3F80960B3F80B40B3F80D2048
:101470000CF00305C8BFB3F80F700B29C8BFB3F851
:1014800011805979012922D0042927D002292CD092
:10149000032931D0052918BF082934D0112902BFEA
:1014A000C286BDE8F0037047132901BF597A417025
:1014B000BDE8F0037047274A1E29927A2DD0F12902
:1014C00004BFBCF1070FC270BDE8F003704705828E
:1014D00046818481C281BDE8F0037047058346825E
:1014E0008482C282BDE8F00370470584468384830A
:1014F000C283BDE8F0037047058546848484C284B6
:10150000BDE8F0037047858646858485C2850786D9
:10151000A0F83280BDE8F00370478270006CA0EB49
:1015200003010B2903DD1429B8BF002106DBBDE848
:10153000F003092203F10B01FEF7C8BE5A18D27A54
:101540004254491CC9B20929F8D3BDE8F0037047D9
:101550007C000010C470001044000010394800687E
:1015600010F4007F1CBF002070474FF08070364998
:10157000086036480022016811F0020FFBD0344B9E
:101580001A60016811F0010FFBD019684FF0000CD0
:10159000C9B2026812F0020FFBD0C3F800C00268A3
:1015A00012F0010FFBD030B41A68002402F0FF0CD7
:1015B000026812F0020FFBD01C60026812F0010FEB
:1015C000FBD01A680025D4B2026812F0020FFBD0DB
:1015D0001D60026812F0010FFBD01D681D4A1170DA
:1015E00041EA0C2182F801C021F40041947009B253
:1015F000D570002902BF002030BC7047091F0FFAC8
:1016000081FC0022BCF1000FC8BF134D12DDFF2486
:10161000016811F0020FFBD01C60016811F0010F8E
:10162000FBD01968802AC9B238BFA954511C8AB2AC
:101630006245ECDB09494FF48070886130BC0120C1
:1016400070470000100C0240180C0240083800409F
:101650000C3800407C000010C4700010000C0240E8
:1016600030B40A1DD4B23A4D3A4A4FF0000C2B6800
:1016700013F4007F1CBF012313600CD01368002BF0
:10168000FCD10CF1010303F0FF0CBCF17D0FEED394
:1016900030BC00207047304B4FF080721A602F4AE8
:1016A000136813F0020FFBD02D4B1C60D2F800C062
:1016B0001CF0010FFAD0D3F800C00024D2F800C00B
:1016C0001CF0020FFAD01C60D2F800C01CF0010F11
:1016D000FAD0D3F800C000BFD2F800C01CF0020F4F
:1016E000FAD01860D2F800C01CF0010FFAD0D3F87D
:1016F00000C01C4C14F800C00CF101052554106802
:1017000010F0020FFBD0C3F800C0106810F0010FFA
:10171000FBD018680020002988BF134C11D9255C24
:10172000D2F800C01CF0020FFAD01D60D2F800C041
:101730001CF0010FFAD0D3F800C0401CC0B28142A7
:10174000EDD80A494FF48070886130BC01207047A1
:10175000100C024018000010180C0240083800401D
:101760000C38004088000010C4700010000C0240CB
:101770004FF47A73A1FB033C30B41249FD241D0AD7
:101780000C70487000208870C870087145EA0C64BD
:101790004B711D0C8C7145EA0C441B0ECC7143EA55
:1017A0000C230B7248728872C87208734A73100A4D
:1017B0008873100CC873100E0874112130BC0220FD
:1017C000FFF74EBFC470001030B4DFF854C04A6851
:1017D0000123DCF80840DCF80851DCF808C22C438F
:1017E00044EA0C0C1CF0010F18BF002302D030BCDF
:1017F00018467047DFF82CC052B10C682243D1E97B
:10180000024121431143426802EA0C02114304E001
:101810004268096802EA0C0211434160E7E70000F0
:1018200000200140E010FCFF8368012213F0010F4B
:1018300018BF002201D010467047D1F808C00B68CD
:1018400043EA0C03D0F804C02CF4807C2CF0407CDC
:1018500043EA0C0343608368496823F40063194337
:101860008160E8E710B44B68D0F808C001221CF092
:10187000010F18BF002202D010BC10467047002B89
:1018800004BF436823F4684309D0D1F808C043EA91
:101890000C03D0F804C02CF4684C43EA0C034360FA
:1018A000D1E9033C43EA0C03D0F808C0084C0CEA29
:1018B000040C0C6804F070644CEA040C43EA0C035A
:1018C00083604968C36A23F470031943C162D3E794
:1018D000FDFCFFC030B44FF0010C01F01001536863
:1018E00005680CFA01F4AC4308BF4FF0000C1BD0A4
:1018F0007BB114682343D2E9024222431A430368AE
:101900008A4040F6FA7404FA01F123EA0101114316
:1019100009E00368FA248C40A3431468D268224388
:1019200002FA01F11943016030BC604670470000C3
:101930002DE9F0010A6892FAA2F3B3FA83F3DA40D0
:1019400071D001254FF0030C5FF00F040A6805FA0F
:1019500003F632407DD04E68076892FAA2F8B8FAD2
:1019600088F84FEA48080CFA08F827EA080792FABC
:10197000A2F8B8FA88F84FEA480806FA08F63E4393
:1019800006604E68012E18BF022E16D18E68876839
:1019900092FAA2F8B8FA88F84FEA48080CFA08F860
:1019A00027EA080792FAA2F8B8FA88F84FEA480836
:1019B00006FA08F647EA060686600E69C76892FAD4
:1019C000A2F8B8FA88F84FEA48080CFA08F827EAAB
:1019D000080792FAA2F8B8FA88F84FEA480806FA17
:1019E00008F647EA0606C6604E68022E31D192FA22
:1019F000A2F6B6FA86F6082E4E6915D2076A92FA52
:101A0000A2F8B8FA88F84FEA880804FA08F892FAB7
:101A1000A2F2B2FA82F2920027EA080706FA02F26C
:101A20003A43026215E019E0476A120A92FAA2F8F4
:101A3000B8FA88F84FEA880804FA08F892FAA2F28D
:101A4000B2FA82F2920027EA080706FA02F23A4353
:101A500042620A685B1CDA407FF478AF4A68012A68
:101A600018BF022A09D10A68C968436802FB01F15C
:101A700023EA020343EA01014160BDE8F0014FF0AF
:101A8000010070474FF47A71B0FBF1F0411E4FF046
:101A9000E020416100218161052101617047000062
:101AA000234A10B4116811F00C03224922D04FEAE6
:101AB000610C042B08BF61461CD0082B1AD11E4BA9
:101AC0001C6814F4800403D0B4F5800F08BF61468D
:101AD000D3F800C00CF03F0CB1FBFCFC19681B688C
:101AE000C1F388110CFB01F1C3F301435B1C5B00E4
:101AF000B1FBF3F101601368DFF840C003F0F003BD
:101B00001B091CF80330D94041601368C3F3822CD1
:101B10000B4B13F80CC021FA0CFCC0F808C012687B
:101B2000C2F342329A5CD140C16010BC70470000E1
:101B3000083802400024F4000438024030EC020867
:101B400040EC02080368002213F0400F27D1D1E9CE
:101B500000231A43D1E9023C43EA0C031A430B6900
:101B60001A434B691A438B691A43CB691A430B6AB0
:101B70001A43036823F0BF0323F47F431A43026030
:101B800042684B6922F0040242EA134242600A6A48
:101B9000B2F5005F02D1898C89B201610122C1696D
:101BA00021F40061C16110467047000001490860DE
:101BB000704700009C000010F0B402682C4B2D4CC4
:101BC0002D4D2E4EDFF8B8C0984218BFB0F1804FAF
:101BD00007D0A04218BFA84203D0B04218BF60454A
:101BE00004D14F6822F0700242EA0702984218BFFF
:101BF000B0F1804F25D0A04218BFA84221D0B042FA
:101C000018BF60451DD0A0F18044B4F5A0341CBFBE
:101C1000A0F18044B4F5A23413D0A0F18044B4F50F
:101C2000A4341CBFA0F18044B4F5C05409D0A0F185
:101C30008044B4F5E0541CBFA0F18044B4F50054D6
:101C400003D1CC6822F44072224302608A68C262E7
:101C50000A888262984212BF6045097C016341692B
:101C600041F001014161F0BC4FF0010070470000FC
:101C7000000001400004004000080040000C00404B
:101C800000040140F0B400250123DFF8B8C16E4C18
:101C9000012909D010293BD0B1F5807F71D0B1F571
:101CA000805F6DD000F0CAB8016A21F001010162C5
:101CB000056A41688669176826F073063E4317690E
:101CC00025F002053D43576825F001053D43604579
:101CD00018BFA04215D1546925F0080C4CEA840CB9
:101CE00094682CF0040C4CEA8405D2F818C021F456
:101CF000807141EA0C01D2F81CC021F4007141EA64
:101D00004C0141608661D168416305621D4695E0E2
:101D1000016A21F010010162056A4168866917684D
:101D200026F4E64646EA0726176925F0200545EA27
:101D30000715576825F0100545EA0715604518BFD7
:101D4000A04215D1546925F0800C4CEA841C94689B
:101D50002CF0400C4CEA8415D2F818C021F48061B4
:101D600041EA8C01D2F81CC021F4006141EACC01A7
:101D700041608661D168816305621D465EE000E0D6
:101D800036E0016A21F480710162056A4168C66922
:101D9000176826F0730646EA0706176925F40075EA
:101DA00045EA0725576825F4807545EA072560450B
:101DB00018BFA04215D1546925F4006C4CEA842C5C
:101DC00094682CF4806C4CEA8425D2F818C021F475
:101DD000805141EA0C11D2F81CC021F4005141EAB3
:101DE0004C114160C661D168C16305621D4625E0A2
:101DF000016A21F480510162056A4168C669176869
:101E000026F4E64646EA0726176925F4005545EA12
:101E10000735576825F4805545EA0735604518BFF2
:101E2000A04205D1D2F818C021F4804141EA8C11BA
:101E30004160C661D168016405621D462846F0BC58
:101E40007047000000000140000401402DE9F0410E
:101E50000446C06884B00D46002610F4005F7DD1B2
:101E6000E9686868AA690843296911430843E16879
:101E700021F4037121F414410843E060A86821694A
:101E800021F44051084320616869616921F440717F
:101E9000084360616846FFF703FEA4F18040B0F597
:101EA000883019D0A4F18040B0F588401CBFA4F15F
:101EB0008040B0F5904011D0A4F18040B0F58A3058
:101EC0000AD0A4F18040B0F598401CBFA4F1804036
:101ED000B0F5A04002D04BE0039800E00298002843
:101EE0001CBF2B68002B43D0D5F818C03D49BCF56A
:101EF000004F00EBC00C4FF001064FF032020CEB2C
:101F0000001039D09B00B0FBF3FCA1FB0C7CB0FBB4
:101F1000F3F54FEA5C1C6FF018070CFB07FC05EBB0
:101F20008C0C02EB0C1CA1FB0C5C4FEA5C1C0CF053
:101F3000F005B0FBF3FCA1FB0C7C4FEA5C1C05EB4D
:101F40000C1CB0FBF3F5B0FBF3F0A1FB0030400933
:101F50006FF01803584305EB800000E008E002EB47
:101F60000010A1FB0010C0F34310604480B2A060D9
:101F700004B03046BDE8F0815B00B0FBF3FCA1FB90
:101F80000C5C4FEA5C1C4FEA0C15B0FBF3FCA1FBA8
:101F90000C8CB0FBF3F74FEA5C1C6FF018080CFBDD
:101FA00008FC07EB8C0C02EBCC0CA1FB0C7C4FEA81
:101FB0005C1C0CF0F80C05EB4C0CB0FBF3F5B0FB23
:101FC000F3F0A1FB0030400900FB08F005EB8000B6
:101FD00002EBC000A1FB0010C0F34210604480B2CD
:101FE000A060C5E71F85EB51F0B593B000241294B3
:101FF00010941194009403940494A84801940294BA
:102000000D940E940F940C94089409940A940B94D4
:10201000016841F480710160006800F480700590EF
:102020009F48016841F001010160006806A900F0C5
:10203000010005900F200690032007909948FFF7B4
:1020400077FC9A48984902788A58037822F06062AF
:10205000CA5002788A58037822F0C002CA50027827
:102060008A58037822F44032CA5002788A5803789A
:1020700022F49072CA5002788A58037822F40072CF
:10208000CA5002788A58037842F48062CA500278B3
:102090008A58037822F4C05242F40062CA5002788F
:1020A0008A58037822F4C04242F40052CA5002789F
:1020B0007F4951587E4821F0040111508015109439
:1020C000CDE911407B4D10A92846FFF7ADFB4FF439
:1020D00040160220CDE90240CDE9004630130490BD
:1020E00069462846FFF7BEFBA86840F48060A860F8
:1020F000686820F0200068604FF48030CDE90C045F
:102100000CA96D48FFF760FB6815311391FAA1F136
:10211000B1FA81F120FA01F105EB8101CA6A22F0DE
:102120001F02CA62010491FAA1F2B2FA82F2D1400E
:1021300005EB81034FF0F87191FAA1F2B2FA82F245
:1021400024FA02F70722D3F80CC002FA07F72CEAA8
:10215000070C91FAA1F7B7FA87F7FC4002FA04F4EA
:102160004CEA040CC3F80CC0331393FAA3F3B3FA8C
:1021700083F320FA03F305EB830391FAA1F4D3F878
:102180002CC0B4FA84F42CF4787C4CF0200CC3F806
:102190002CC0030493FAA3FCBCFA8CFC23FA0CF3C6
:1021A00005EB830326FA04F4D3F80CC002FA04F416
:1021B0002CEA040C91FAA1F4B4FA84F426FA04F49B
:1021C00002FA04F44CEA040CC3F80CC0331393FA7B
:1021D000A3F3B3FA83F320FA03F305EB830391FA35
:1021E000A1F6D3F82CC0B6FA86F62CF4F84C4CF4D1
:1021F000006CC3F82CC0030493FAA3FCBCFA8CFC5B
:1022000023FA0CF305EB83034FF4C00C2CFA06FC05
:10221000DC6802FA0CFC24EA0C0491FAA1F64FF4F3
:10222000C00CB6FA86F62CFA06FC02FA0CFC44EA5C
:102230000C0CC3F80CC04FF4407393FAA3F3B3FA39
:1022400083F3D84005EB800091FAA1F4C36AB4FA95
:1022500084F423F4782343F4C033C3624FF0007056
:1022600090FAA0F3B3FA83F3D840EB0105EB8000BA
:1022700091FAA1F123FA04F4D0F80CC0B1FA81F17B
:1022800002FA04F423FA01F12CEA040C02FA01F137
:102290004CEA0101C16013B0F0BD000044380240B7
:1022A0003038024000000240006402404507010847
:1022B00014640240002001400023014010B58CB09E
:1022C00000244048019402940394009406940794D7
:1022D00008940994016841F000510160006800F021
:1022E00000500A903848016841F00101016000681F
:1022F00004A900F001000A9010200490032005902A
:102300003248FFF715FB3348314942798A584379FF
:1023100042F06062CA5042798A58437922F0C00282
:1023200042F04002CA5042798A58437922F440323E
:10233000CA5042798A58437922F49072CA5042793D
:102340008A58437922F40072CA5042798A584379F4
:1023500042F48062CA5042798A58437922F4C052CA
:1023600042F40062CA5042798A58437922F4C0424A
:1023700042F40052CA50427917495258407922F02B
:102380000402425015480068C0F30220011D0729CD
:1023900034BF0020C01E04FA00F01149000181F88A
:1023A000000410494FF48000C1F800013820CDE945
:1023B00000046A460C490D480394FFF78BFA0CB0F1
:1023C00010BD00004038024030380240000002409A
:1023D000006002404D070108146002400CED00E06F
:1023E00036E000E004E000E001001002007400406C
:1023F000F8B55648016841F400110160016801F424
:1024000000110091016841F4800101600068504CA6
:1024100000F4800000902068C0F30220011D07290D
:1024200034BF0020C01E00254A4905FA00F0000113
:1024300081F800044FF0E0214FF48040C1F8000122
:102440002068C0F30220021D072A34BF0020C01EEE
:1024500005FA00F0404A000182F800044FF4004001
:10246000C1F800012068C0F30220021D072A34BF12
:102470000020C01E05FA00F0384A000182F800046E
:1024800010221003C1F800012068C0F30220031DD0
:10249000072B34BF0020C01E05FA00F0304B0001AE
:1024A00083F800044FF40030C1F800012068C0F345
:1024B0000220011D072934BF0020C01E05FA00F0CC
:1024C0002849000181F8000427494FF08070C1F8C5
:1024D00000012068C0F30220031D072B34BF002039
:1024E000C01E05FA00F0214B000183F800044FF0F4
:1024F0008060C1F800012068C0F30220011D072997
:1025000034BF0020C01E05FA00F01949000181F80F
:102510000004184EC6F80021002211464520FEF79F
:102520007DFB4520FEF76EFB2068C0F30220011DF5
:10253000072934BF0020C01E05FA00F00E49000133
:1025400081F800044020C6F80001F8BD3038024090
:102550000CED00E00EE000E00FE000E010E000E035
:1025600011E000E038E000E004E000E03AE000E0E4
:1025700044E000E008E000E046E000E0F0B587B0AD
:10258000002445480194029403940594016841F0A5
:1025900010010160016801F010010691016841F02D
:1025A00004010160016801F004010691016841F035
:1025B00080010160016801F080010691016841F02D
:1025C00001010160016801F001010691016841F01B
:1025D00002010160016801F002010691016841F009
:1025E0000801016000682D4900F0080006904FF4D2
:1025F000401008602A494FF07F4008604FF6FF7096
:1026000001250090694604952648FFF791F94EF29E
:10261000CF000326CDE90006234F694604943846CF
:10262000FFF786F930200090CDE901540394694604
:1026300038460494FFF77CF941F63F70CDE9000677
:10264000694604941948FFF773F94FF47D400090F0
:10265000CDE90154164F0394694638460494FFF7B8
:1026600067F96802CDE90004694604953846FFF72A
:102670005FF94FF41F40CDE90006694604940D4808
:10268000FFF756F99B20CDE90006694604943846C9
:10269000FFF74EF907B0F0BD30380240180802408D
:1026A000180C0240001002400008024000040240E2
:1026B000000C0240000002400F4810B50D490160B7
:1026C000002141608160C160016141618161FEF76B
:1026D00073FC002818BFFDF76CFF4FF4006106483B
:1026E000FEF7E0FA002808BF10BDBDE81040FDF776
:1026F00060BF0000002C0140E06F001010B592B0E8
:10270000002403940494544800940194029408947F
:1027100009940594069407940D940E94016841F46D
:1027200080510160006800F4805010904B480168AF
:1027300041F00101016000680AA900F00100109059
:10274000A0200A9002200B9003200C9005200F90EF
:102750004348FFF7EDF84448424942798A584379A3
:1027600022F0606242F0C062CA5042798A584379CE
:1027700022F0C00242F04002CA5042798A5843799E
:1027800042F44032CA5042798A58437922F4907216
:10279000CA5042798A58437922F40072CA50427969
:1027A0008A58437942F48062CA5042798A58437900
:1027B00022F4C052CA5042798A58437922F4C04266
:1027C000CA504379294A9B5890F805C043F0040346
:1027D0004CF8023043799B5890F805C043F003034E
:1027E0004CF8023042798A58437942F0C072CA509C
:1027F00042798A58407922F4C0020A501C48006885
:10280000C0F30220011D072934BF0020C01E04FAB6
:1028100000F01849000181F8000417490820C1F8A8
:1028200000014FF48270CDE900404FF40070CDE913
:10283000044003940A20CDE90840029406940794CA
:102840000E4C69462046FFF77DF9606820F01000C5
:10285000606012B010BD00004438024030380240C1
:102860000000024000640240550701081464024061
:102870000CED00E023E000E004E000E00030014067
:1028800010B592B00024039404946D480094019410
:102890000294089409940594069407940D940E9458
:1028A000016841F480410160006800F480401090AC
:1028B0006448016841F00201016000680AA900F063
:1028C000020010904FF460400A9002200B90032009
:1028D0000C9005200F905C48FFF72AF85C485B4994
:1028E000C2788A58C37822F06062CA50C2788A5887
:1028F000C37822F0C002CA50C2788A58C37822F442
:102900004032CA50C2788A58C37822F49072CA50B2
:10291000C2788A58C37822F40072CA50C2788A58A2
:10292000C37842F48062CA50C2788A58C37822F4CD
:10293000C052CA50C2788A58C37822F4C042CA50E2
:10294000C378444A9B5890F803C023F004034CF822
:1029500002300379CB5890F804C023F0606341F84B
:102960000C300379CB5890F804C023F0C00343F037
:10297000400341F80C300379CB5890F804C023F49D
:10298000403341F80C300379CB5890F804C023F45D
:10299000907341F80C300379CB5890F804C023F4BD
:1029A000007341F80C300379CB5890F804C043F41D
:1029B000806341F80C300379CB5890F804C023F4BD
:1029C000C05341F80C300379CB5890F804C023F47D
:1029D000C04341F80C3001798958007921F0040195
:1029E00081501D480068C0F30220011D072934BF33
:1029F0000020C01E04FA00F01849000181F800040C
:102A000017491020C1F800014FF48270CDE9004051
:102A10004FF40070CDE9044002941820CDE906047B
:102A200003940A20CDE908400E4C69462046FFF782
:102A300089F8606820F01000606012B010BD0000DE
:102A4000403802403038024000040240006002403A
:102A500055070108146002400CED00E024E000E09E
:102A600004E000E00038004000B587B000210B48CA
:102A700000910191029103910491026842F40032A5
:102A80000260006800F400300590ADF8001069465F
:102A90000348FFF791F807B000BD0000443802403A
:102AA0000044014000B587B000210B48009101911E
:102AB000029103910491026842F48022026000684E
:102AC00000F480200590ADF8001069460348FFF738
:102AD00073F807B000BD00004438024000480140D0
:102AE00010B586B000210E4800910191029103912A
:102AF0000491026842F0400202600068094C00F054
:102B000040000590ADF8001069462046FFF754F8E4
:102B1000A06820F0070020F48040A06006B010BD3F
:102B200040380240001800402DE9F04395B00024E1
:102B30000F941094119412940E94009401940294A2
:102B400003943348049405940694079408940994D4
:102B50000A940B940C940D94016841F0800101607B
:102B6000006800F0800013902A480068C0F302203B
:102B7000011D072934BF0020C01E0126264904FA82
:102B800000F0000181F80004244930034FF00408EC
:102B9000C1F80001DFF88890ADF838400EA948462A
:102BA000FFF70AF81F48214F082201781E480D1828
:102BB0003978286802FA01F1084328606020CDE9DD
:102BC0000006CDE9026402266A46012148460496C1
:102BD000FFF758F83978286808FA01F18843286027
:102BE0001348016841F001010160006808A900F084
:102BF0000100139040200890CDE909640920CDE937
:102C00000C400B940B48FEF793FE15B0BDE8F08323
:102C1000403802400CED00E02CE000E004E000E071
:102C2000001C00405D070108181C004064070108F3
:102C3000303802400000024000B587B000210B4848
:102C400000910191029103910491026842F4807213
:102C50000260006800F480700590ADF800106946CD
:102C60000348FEF7A9FF07B000BD0000403802404E
:102C70000020004010B586B000211B480091019152
:102C8000029103910491026842F010020260006810
:102C900000F01000059015480068C0F30220021DE6
:102CA000072A34BF0020C01E01FA00F010490001BD
:102CB00081F800040F494FF48000C1F8000153204F
:102CC000ADF8000044F21A100B4C02906946204601
:102CD000FEF772FF606820F070006060A06820F06E
:102CE0008000A06006B010BD403802400CED00E04E
:102CF00036E000E004E000E00010004010B586B0CF
:102D000000210F4800910191029103910491026802
:102D100042F02002026000680A4C00F0200005909A
:102D2000ADF8001069462046FEF746FF606820F0C7
:102D300070006060A06820F08000A06006B010BD48
:102D4000403802400014004010B586B000210E4803
:102D500000910191029103910491026842F4803242
:102D600002600068094C00F480300590ADF8001056
:102D700069462046FEF720FFA06820F0070020F4F7
:102D80008040A06006B010BD4438024000400140C1
:102D900010B58EB0002401946E48009406940294FD
:102DA0000394049405940B94016841F010010160B0
:102DB000006800F0100007906748016841F00201C8
:102DC0000160006808A900F002000790C020089088
:102DD0000220099003200A9001200C9007200D90FA
:102DE0005E48FEF7A5FD5F485D49C2798A58C37900
:102DF00022F0606242F00062CA50C2798A58C379F8
:102E000022F0C00242F04002CA50C2798A58C37907
:102E100022F44032CA50C2798A58C37922F490729F
:102E2000CA50C2798A58C37922F40072CA50C27952
:102E30008A58C37942F48062CA50C2798A58C379E9
:102E400022F4C052CA50C2798A58C37922F4C042CF
:102E5000CA50C379444A9B5890F807C023F0040332
:102E60004CF802308378CB5890F802C023F06063AE
:102E700043F0006341F80C308378CB5890F802C0DF
:102E800023F0C00341F80C308378CB5890F802C08F
:102E900023F4403341F80C308378CB5890F802C0CB
:102EA00023F4907341F80C308378CB5890F802C02B
:102EB00023F4007341F80C308378CB5890F802C0AB
:102EC00043F4806341F80C308378CB5890F802C00B
:102ED00023F4C05341F80C308378CB5890F802C0EB
:102EE00023F4C04341F80C3081788958807821F070
:102EF000040181501D480068C0F30220011D07290C
:102F000034BF0020C01E04FA00F01949000181F806
:102F1000000418492020C1F800014FF4E130CDE948
:102F200000040C200294CDE9034005940694124C51
:102F300069462046FEF78AFF206920F49040206110
:102F4000606920F02A006061E06840F40050E060B1
:102F50000EB010BD44380240303802400004024038
:102F6000006402406B070108146402400CED00E0AD
:102F700025E000E004E000E00010014010B58EB054
:102F80000024019449480094069402940394049404
:102F900005940B94016841F400310160006800F46D
:102FA000003007904248016841F008010160006864
:102FB00008A900F0080007906020089002200990FE
:102FC00003200A9001200C9007200D903948FEF74D
:102FD000AFFC3A48384982798A58837922F0606296
:102FE00042F00062CA5082798A58837922F0C00286
:102FF00042F04002CA5082798A58837922F44032E2
:10300000CA5082798A58837922F49072CA508279A0
:103010008A58837922F40072CA5082798A58837957
:1030200042F48062CA5082798A58837922F4C0526D
:10303000CA5082798A58837922F4C042CA50827970
:103040001F495258807922F0040242501D480068FE
:10305000C0F30220011D072934BF0020C01E04FA5E
:1030600000F01949000181F8000418494020C1F816
:1030700000014FF4E130CDE900040C200294CDE9C9
:10308000034005940694124C69462046FEF7DEFE86
:10309000206920F490402061606920F02A0060617E
:1030A000E06840F40050E0600EB010BD40380240CF
:1030B00030380240000C0240006002406B070108FB
:1030C000146002400CED00E026E000E004E000E0C7
:1030D00000440040FEE7704770470A6842624A6851
:1030E0008262D1E902231A43D1E904311943114321
:1030F000C26A22F0F7021143C162002070470068E3
:1031000000F00300704781B008441430009000685C
:1031100001B0704730B41143DDE9024543EA0402CF
:103120001143DDF810C02943426841EA0C0122F046
:10313000FF0222F4FC421143416030BC0020704782
:103140000321016000207047D0F880007047816043
:10315000C26840F277416FF30B021143C16041F244
:103160008832372100F064B941F4801141F0004108
:1031700000228160C16840F269436FF30B0119437B
:10318000C1600E494FF4FA530968B1FBF3F141F203
:1031900088335943491E03D24FF00042104670470E
:1031A000436B13F0450FF5D0416B11F0040F07BFCF
:1031B00040F2FF51816304228263EFE79C0000101C
:1031C0008160C1686FF30B0141F48A61C16041F213
:1031D0008832102100F02CB98160C26840F246416B
:1031E0006FF30B021143C16041F28832062100F0F7
:1031F0001FB9000000238360C1686FF30B0141F425
:103200008061C1600B494FF4FA520968B1FBF2F1D9
:1032100041F288325143491E02D24FF0004306E08A
:10322000426B12F0800FF6D040F2FF5181631846D6
:10323000704700009C0000104FF4D5714FF0400C17
:1032400000228160C1686FF30B0141F48961C160A4
:1032500010494FF4FA530968B1FBF3F141F2883396
:103260005943491E02D24FF0004211E0436B13F064
:10327000450FF6D0416B11F0040F1CBFC0F838C0E9
:10328000042205D1416B11F0400F18BFC0F838C0BF
:10329000104670479C0000108260C26840F24741AF
:1032A0006FF30B021143C16041F28832072100F035
:1032B000BFB8000000228260C16840F2C2436FF3D1
:1032C0000B011943C16012494FF4FA530968B1FB6D
:1032D000F3F141F288335943491E02D24FF00042C4
:1032E0000AE0436B13F0450FF6D0416B11F0040F69
:1032F00018BF042202D0826310467047416B11F060
:10330000010F12BF012240F2FF518163F3D1F3E7B5
:103310009C00001000228160C16840F2C9436FF335
:103320000B011943C16012494FF4FA530968B1FB0C
:10333000F3F141F288335943491E02D24FF0004263
:103340000AE0436B13F0450FF6D0416B11F0040F08
:1033500018BF042202D0826310467047416B11F0FF
:10336000010F12BF012240F2FF518163F3D1F3E755
:103370009C00001000218160C16840F273426FF32D
:103380000B011143C16041F28832332100F050B883
:1033900038B400248460C36840F243426FF30B03E7
:1033A0001A43C260214A4FF4FA5303251268B2FB54
:1033B000F3F241F2883353435B1E02D24FF00042D6
:1033C00029E0426B12F0450FF6D0426B12F0040F69
:1033D0001CBF042282631ED1426B12F0010F4FF01A
:1033E000010218BF826316D10369DBB2AB4212D16E
:1033F00040F2FF528263143000900068224610F4BD
:10340000604F04BF000C088005D010F4804F18BF37
:103410004FF4005202D038BC1046704710F4004FF1
:1034200014BF4FF480524FF48032F4E79C00001038
:103430005A4B4FF4FA5C81B01B68B3FBFCF35A4360
:10344000521E03D24FF0004001B07047436B13F09F
:10345000450FF5D0426B12F0040F04D004218163B4
:10346000084601B07047426B12F0010F04D00121F1
:103470008163084601B070470269D2B28A421EBF1A
:10348000012001B0704740F2FF5181631430009079
:1034900000684349084202BF002001B0704710F0A5
:1034A000004F1EBF4FF0007001B0704710F0804F0A
:1034B0001EBF402001B0704710F0005F1EBF80208B
:1034C00001B0704710F0805F1EBF4FF4807001B0F4
:1034D000704710F0006F1EBF4FF4007001B07047CE
:1034E00010F0806F1EBF4FF4806001B0704710F085
:1034F000807F1EBF4FF4006001B0704710F4000FD2
:103500001EBF4FF4805001B0704710F4800F1EBFF3
:103510004FF4005001B0704710F4001F1EBF4FF46D
:10352000804001B0704710F4801F1EBF4FF4004070
:1035300001B0704710F4802F1EBF4FF4003001B06F
:10354000704710F4003F1EBF4FF4802001B0704759
:1035500010F4803F1EBF4FF4002001B0704710F4FC
:10356000004F1EBF4FF4801001B0704710F4804F21
:103570001EBF4FF4001001B0704710F4005F1EBF73
:103580004FF4800001B0704710F0080F14BF4FF4E3
:1035900000004FF4803001B0704700009C00001024
:1035A00008E0FFFD2DE9F04F89B00E460446FDF717
:1035B000CFFA0025074600950195A8460821206806
:1035C000FFF7FEFD00281CBF09B0BDE8F08FB4F87E
:1035D000500001042068FFF7BAFD00281CBF09B0A5
:1035E000BDE8F08F4FF0FF304FF00809CDE9020938
:1035F00030204FF0020ACDE9040A0120CDE906800F
:1036000002A92068FFF769FD2068FFF7B3FE0028D4
:103610001CBF09B0BDE8F08F2068406B40F22A481B
:1036200010EA080F08BFEB4614D12068416B11F473
:10363000001F04D0FFF788FD4BF825006D1CFDF737
:1036400087FAC01BB0F1FF3F23D02068406B10EA1F
:10365000080FEAD02068416B11F0080F1FBFC0F8B7
:103660003890082009B0BDE8F08F416B11F0020FCF
:103670001FBFC0F838A0022009B0BDE8F08F416B31
:1036800011F0200F0AD02021816309B00846BDE85F
:10369000F08F09B04FF00040BDE8F08F40F2FF51CD
:1036A0008163009800BA7060019800BA306009B078
:1036B0000020BDE8F08F704706484168491C416012
:1036C000002101708168002908BF70478168491E88
:1036D00081607047100000102B4810B5016821F080
:1036E0000F0141F00501016000682848016841F4BC
:1036F000804101602648016841F480310160016821
:1037000011F4003FFBD02449224A0B68DFF88CC03B
:1037100003EA0C031A430A600A6822F440320A6082
:10372000016841F080710160016811F0007FFBD0F9
:103730001B48016821F0F0010160016821F4E051AB
:1037400041F4A0510160016821F4604141F400415D
:103750000160016821F0030141F00201016001688C
:1037600001F00C010829FAD10E4C2046FEF78AF927
:103770004FF0E021086940F0040008612046BDE8F0
:103780001040FEF713BA0000003C024000700040F9
:103790000038024008544000043802400080BFFF57
:1037A00008380240007A030A0F48016841F47001AA
:1037B00001600E48016841F0010101600C4A0021DE
:1037C0001160026822F4102222F080720260031D50
:1037D000084A1A60026822F48022026006480160EA
:1037E000064958060860704788ED00E0003802403E
:1037F00008380240103000240C38024008ED00E088
:10380000FEE703B401984100009850EAC12018BFB8
:1038100004204A0D18BF40F0010040F2FF72B2EBE5
:10382000515F08BF40F00200012808BF052002B028
:10383000704700000000000070B5C1482DED020B7C
:103840002DED0E8B82B0119D25F000449FEDBEDB67
:103850009FEDBFEB84423EDBA4F140511098A1F1F3
:103860007F6108430FD0BC48844202DC28D1109805
:1038700030B39DED100B02B0BDEC0E8B02B0BDE875
:10388000704001F0A9BA9DED100B53EC1D2B51ECCB
:10389000100B0BF049FC9DED100B41EC180B53EC99
:1038A0001E2B51EC100B0BF03FFC53EC182B0BF0C4
:1038B000D3F941EC100B02B0BDEC0E8B02B070BD21
:1038C0000120FCF774FD02B0BDEC0E8B02B0BDE828
:1038D000704001F095BAA1489FEDA18B844256DA61
:1038E0009DED100BB4F1795F0ADA51EC100BFFF784
:1038F00088FF042808BF01F0A3FA9DED100BDAE75A
:1039000053EC102B51EC100B0BF00EFC41EC190B8F
:1039100095480621B0EE490AF0EE690A784401F0B4
:10392000C7F953EC192B51EC100B0BF0FDFB41ECDC
:103930001A0B8E48B0EE490AF0EE690A0421784469
:1039400001F0B6F953EC192B51EC100B0BF0ECFB1A
:1039500053EC182B0BF080F941EC100B51EC1A0BC7
:1039600053EC102B0BF034FACDE900019DED000B68
:1039700053EC102B9DED100B51EC100B0BF0D4FB06
:103980009DED101B53EC112B0BF066F9D2E09DED71
:10399000100B51EC100B08F069FD53EC182B0BF0D9
:1039A000F7FC9FED730BCDE9000153EC102B9DED5F
:1039B000000B51EC100B0BF0B7FB41EC190B6E48F0
:1039C0000621B0EE490AF0EE690A784401F070F978
:1039D00053EC192B51EC100B0BF0A6FB41EC1B0B1D
:1039E0006648B0EE490AF0EE690A0421784401F015
:1039F0005FF953EC192B51EC100B0BF095FB53ECCA
:103A0000182B0BF029F941EC1C0B51EC190B0AF0A7
:103A100071FA41EC180B5A489FED5BABA04222DCD7
:103A200053EC1C2B51EC1B0B0BF0D2F9CDE9000130
:103A30009DED000B51EC180B53EC102B0BF074FBAD
:103A400053EC182B0BF008F953EC1A2B0BF06CFB12
:103A500053EC1D2B0BF074FD53EC1E2B0BF098FC5C
:103A600041EC100B5FE08DED008B002000909DED90
:103A7000000B51EC180B53EC102B0BF0EDF89DEDF7
:103A8000000B41EC1E0B53EC102B51EC100B0BF008
:103A90004BFB53EC192B0BF07BFC53EC1E2B0BF068
:103AA00097F941EC190B53EC1C2B51EC1B0B0BF051
:103AB0008FF941EC1B0B53EC1A2B51EC190B0BF04B
:103AC00033FB53EC1D2B0BF063FC41EC190B53EC57
:103AD0001A2B51EC180B0BF027FB53EC1B2B0BF0A4
:103AE00023FB53EC192B0BF02BFD9DED000B41EC50
:103AF000180B53EC1A2B51EC100B0BF015FB9FED30
:103B0000249B53EC192B0BF043FC41EC100B51ECB4
:103B1000180B53EC102B0BF013FD53EC192B0BF07F
:103B200037FC41EC100B002D3FF7C5AE51EC100BEC
:103B30000BF054F841EC100BBDE600000000000053
:103B40000000F03F00000000075C143326A6913C03
:103B5000182D4454FB21F93F0000F07F0000E03FA6
:103B6000000000000000F03F28B3020036B302005E
:103B7000000000000000E03F7AB2020088B20200BC
:103B80003333EF3F00000000000000000000004061
:103B9000182D4454FB21E93F70B59B482DED020BD5
:103BA0002DED068B079D25F00044A04218DC9748B8
:103BB000844202DC0AD1069840B19DED060BBDECB3
:103BC000068B02B0BDE8704001F006B9002DCCBFF5
:103BD0009FED8F0B9FED900BBDEC068B02B070BD7F
:103BE0008F48A04215DD8F48A042D8BF4FF0FF3468
:103BF00058DD9DED060B51EC100BFFF702FE04287B
:103C000008BF01F01DF99DED060BBDEC068B02B05F
:103C100070BD9DED060B51EC100B08F027FCCDE9B3
:103C2000060181489FED828BA0423CDD8248A04284
:103C30001FDD00249FED82AB9DED060B53EC1A2B8C
:103C400051EC100B0BF008F89DED060B41EC190B35
:103C500053EC1A2B51EC100B0BF066FA53EC182BAB
:103C60000BF06EFC53EC192B0BF0B2F8CDE906010A
:103C700049E09DED060B012453EC182B51EC100B81
:103C80000AF0EAFF9DED060B41EC190B53EC182BE3
:103C900051EC100B0BF054FC53EC192B0BF098F873
:103CA000CDE906012FE06848A0421FDD02249FED08
:103CB000689B9DED060B53EC192B51EC100B0BF090
:103CC00033FA53EC182B0AF0C7FF9DED060B41ECBD
:103CD000180B53EC192B51EC100B0BF031FC53EC7F
:103CE000182B0BF075F8CDE906010CE09DED060BE5
:103CF000032453EC102B9FED580B51EC100B0BF0E1
:103D000067F8CDE906019DED060B53EC102B51EC45
:103D1000100B0BF009FA41EC180B53EC182B0BF0BD
:103D200003FA41EC190B4E480621B0EE490AF0EEB9
:103D3000690A784400F0BCFF53EC182B51EC100BCF
:103D40000BF0F2F941EC180B4648B0EE490AF0EEE0
:103D5000690A0521784400F0ABFF53EC192B51ECB4
:103D6000100B0BF0E1F941EC100B51EC180B53EC7C
:103D7000102B002C0EDA0AF06FFF9DED061B53ECA2
:103D8000112B0BF0D1F99DED061B53EC112B0BF011
:103D9000FFFA35E00AF060FF9DED061B53EC112B96
:103DA0000BF0C2F941EC100B2F48784400EBC40033
:103DB00090ED001B51EC100B53EC112B0BF0C0FBE2
:103DC0009DED061B53EC112B0BF0BAFB41EC100BD5
:103DD0002648784400EBC40090ED001B51EC100B1A
:103DE00053EC112B0BF0D4FA41EC100B002DA2BFB9
:103DF000BDEC068B02B070BD51EC100B0AF0EEFE6C
:103E000041EC100B01E70000000010440000F07FBF
:103E1000182D4454FB21F93F182D4454FB21F9BFC0
:103E20000000DC3F0000203E0000F33F00000000E7
:103E3000000000000000F03F0000E63F000000002E
:103E4000000000000000004000800340000000006F
:103E5000000000000000F83F000000000000F0BF7C
:103E600052B0020008B0020092AF02004AAF020056
:103E700070B56B4E2DED040B2DED028B82B0DDF88D
:103E80001CC0DDE905235C422CF000411C4341EAE3
:103E9000D474049D22F00040B44205D86C422C43F7
:103EA00040EAD474B4420BD99DED061B9DED040B82
:103EB00002B0BDEC028B04B0BDE8704000F096BFCC
:103EC000ACF14054A4F17F641C430BD0022404EAFB
:103ED000AC7444EAD27405439FED538B9FED542B91
:103EE00007D015E09DED040B51EC100B00F0B8FF6E
:103EF00042E0002C11BF012C9DED040B02B0BDEC83
:103F0000028B04BF04B070BD022C38D0032C3BD010
:103F10000B439FED491B9FED4A0B0AD0B14218D1CC
:103F2000B04209D121F0804120F0804007910590F6
:103F30000FE0002A15DA10E0434B7B44002C08BF49
:103F400093ED000B0DD0012C10D0022C17D0032CB8
:103F50001AD0B0421DD1002A03DAB0EE410AF0EEC9
:103F6000610A02B0BDEC028B04B070BD93ED000B92
:103F700051EC100B0AF032FE41EC100BF1E7B0EE01
:103F8000480AF0EE680AECE7B0EE420AF0EE620A88
:103F9000E7E7401A00153C28C8BF8DED000B19DC7F
:103FA000BCF1000FBEBF10F13C0F9FED290B8DED52
:103FB000000B0FDB9DED060B53EC102B9DED040B5E
:103FC00051EC100B0AF004FF08F050FA00F048FF23
:103FD000CDE90001002C08BF9DED000BC1D0012CE4
:103FE00010D0022C9FED1C0B53EC102B9DED000B01
:103FF00051EC100B0DD00BF0A3FA53EC182B0BF077
:104000009FFAB9E7019880F0004001909DED000B08
:10401000A7E70BF095FA53EC182B0BF0B9F9ABE7C7
:104020000000F07F00000000182D4454FB210940DF
:10403000182D4454FB2109C0182D4454FB21F9BF0D
:10404000182D4454FB21F93F7AAE02000000000015
:104050000000000000000000075C143326A6A13C0D
:104060002DE9F04D2DED040B2DED0E8B96B0DDE915
:104070002550279CDDF890A025F0004624F000484C
:10408000BAF1000F14BF0121002101EB4502FC49E8
:1040900053184A1093422AD3002814BF0123002347
:1040A00003EB44030B44F7498B4220D358EA000149
:1040B0009FEDF59B76D0DFF8D8B35D4503D1BAF11B
:1040C000000F05D188E0BAF1000F08BF002100D031
:1040D000012101EB450111F5001F08D8002814BF8C
:1040E0000121002101EB440111F5001F0BD99DEDC9
:1040F000261B9DED240B16B0BDEC0E8B04B0BDE865
:10410000F04D00F073BE0027002DBCBFE14988458B
:1041100021DAE1498845A8BF02271CDAC3451ADC29
:10412000DE4901EB2851142908DDC1F1340220FADF
:1041300002F101FA02F282420DD108E058B9C1F150
:10414000140228FA02F101FA02F2424503D101F009
:104150000101C1F1020756EA0A0124D1002C22DA3A
:10416000002D18BF022F01D0012F0AD00220FCF72A
:104170001EF916B0BDEC0E8B04B0BDE8F04D00F09A
:1041800013BE0220FCF713F900F00EFE51EC100BE9
:104190000AF024FD41EC100B16B0BDEC0E8B04B000
:1041A000BDE8F08D18E09FEDBEAB9FEDBF8B002802
:1041B00071D1B848804522D105F1804010F58010BA
:1041C00008BFBAF1000F07D0B3450ADC002CA8BF26
:1041D0009DED260BE0DA0DE0B0EE490AF0EE690A3B
:1041E000DAE7002C06DA9DED260B51EC100B0AF0F5
:1041F000F5FC6FE0AE48784490ED000BCCE7D84575
:104200004DD1002C48DA2EB186423AD1BAF1000FD6
:1042100042D126E0BAF1000F13D00220FCF7C7F814
:1042200000F0FEFD8DED020B9DED240B8DED000BDE
:1042300010EE900A039961F31E0003909DED020BAE
:10424000AAE78DED02AB9DED240B1AEE901A10EE4D
:10425000900A8DED000B61F31E0003909DED020BA3
:104260009AE78DED028B9DED240B18EE901A10EE5F
:10427000900A8DED000B61F31E0003909DED020B83
:104280008AE709DA9DED240B51EC190B53EC102B46
:104290000AF09EFD1EE020E09DED240B7CE78642A7
:1042A0001BDAB4F1804F0DD0A4F10050B0F1FF50F3
:1042B00013D1002D11DB9DED240B51EC100B09F0F7
:1042C00019FE07E09DED240B53EC102B51EC100B65
:1042D00000F0C2BC41EC100B5EE79DED240B51ECED
:1042E000100B08F0C3F8BAF1000FCDE90E0142D16E
:1042F0009FED710B46B3A6F1E040B0F17F600CD0AA
:104300005E4538D1002D00DAA7B3022F0CBF012083
:104310004FF0FF300AF0B4FEDCE7002D01DD002C89
:104320000DDA002D01DD002C1FDB002D16DA002C2C
:1043300014DB012F08BF9FED620B3FF42DAFB0EEF1
:104340004A0AF0EE6A0A27E7022F18BF002D0CD0A8
:10435000012F0AD1002DFFF61FAF06E0002DB8BFD8
:10436000002C08DA012F3FF417AFB0EE480AF0EE48
:10437000680A11E71BE0012000EBE57050EA070135
:1043800015D0791EB0EE498AF0EE698A084308BF5D
:104390009FED4D8B4E480025804570DD4D494E48C0
:1043A000884514DDB0420DDB002C19DB2FE0012025
:1043B000FBF7FDFF16B0BDEC0E8B04B0BDE8F04D71
:1043C00000F01EBDB34502DC002C09DC1FE0864274
:1043D00002DA002C1BDA03E05E452BDD002C16DD33
:1043E0000220FBF7E4FF00F01BFD8DED020B53EC08
:1043F0001A2B51EC180B0AF097FECDE90001039936
:10440000019861F31E0003909DED020BC4E60220AB
:10441000FBF7CDFF00F014FD10EE901A18EE900A95
:104420008DED020B8DED008B61F31E0003909DED71
:10443000020BB1E69DED0E0B53EC192B51EC100B5A
:104440000BF07EF89FED260BCDE9080153EC102B05
:104450009DED080B51EC100B0AF066FE9FED221B40
:1044600053EC112B0AF094FF9DED081B53EC112B1C
:104470000AF05AFE9FED1E1B53EC112B3CE08CE022
:10448000FFFF1F00FFFF0F00000000000000F03FD3
:104490000000F03F0000F07F0000404301FCFFFF00
:1044A000000000000000F07F00000000000000009D
:1044B000BEAB020000000000000000000000008011
:1044C000000000000000F0FF000000000000F0BF4E
:1044D0000000E0410000F043FFFFEF3F000000005C
:1044E000000000000000D03F555555555555D53FAB
:1044F000000000000000E03F0AF04AFF9DED080BBD
:1045000041EC1A0B53EC102B51EC100B0AF00CFE83
:1045100053EC1A2B0AF008FE41EC1A0B9FEDFE0B30
:1045200053EC102B9DED080B51EC100B0AF0FCFD29
:1045300041EC1B0B9FEDFA0B51EC1A0B53EC102BBB
:104540000AF0F2FD41EC1A0B9FEDF70B53EC102B28
:104550009DED080B51EC100B0AF0E6FD53EC1A2B05
:104560000AF0EEFF41EC1A0B51EC1B0B53EC1A2B2B
:104570000AF072FB0690CDE906519DED060B53EC57
:104580001B2B51EC100B0AF0DBFF53EC1A2B0AF03B
:10459000FFFE41EC100B00F0A1B90020B6F5801F22
:1045A0000EDA9FEDE30B53EC102B9DED0E0B51EC4F
:1045B000100B0AF0B9FDCDE90E016FF034000E4684
:1045C00000EB2650A0F2FF37C6F31300DA4940F0A3
:1045D0007F6646F040568842D8BF002408DDD749A0
:1045E0008142C8BF012403DC0024A6F580167F1C8D
:1045F000D348784400EBC4000F9690ED00CB9DEDBE
:104600000E0B53EC1C2B51EC100B0AF099FF9DED97
:104610000E0B41EC1B0B53EC1C2B51EC100B0AF056
:104620001BFB41EC100B51EC190B53EC102B0AF057
:10463000CFFB41EC1D0B51EC1B0B53EC1D2B0AF077
:1046400073FD41EC1A0BBF488DED10AB784410950B
:1046500090ED000B4FF0005040EA660000EB844004
:104660008DED080B00F5002009909DED080B53EC33
:104670001C2B51EC100B0AF063FF9DED0E1B53EC4D
:10468000112B0AF085FE41EC100B53EC102B9DED25
:10469000100B51EC100B0AF047FD9DED080B41EC9F
:1046A0001C0B53EC102B9DED100B51EC100B0AF072
:1046B0003BFD53EC1B2B0AF06BFE53EC1C2B0AF05A
:1046C0003FFF53EC1D2B0AF02FFD41EC1C0B53EC6C
:1046D0001A2B51EC1A0B0AF027FD41EC1B0B9A48E0
:1046E0000621B0EE4B0AF0EE6B0A784400F0E0FAD7
:1046F000B0EE401AF0EE601AB0EE41DAF0EE61DA98
:1047000053EC1B2B51EC1B0B0AF00EFD53EC1D2B35
:104710000AF00AFD9DED100B41EC1B0B53EC1A2B1C
:1047200051EC100B0AF098FA53EC1C2B0AF0FCFC2D
:1047300053EC1B2B0AF090FA9DED100B41EC1B0B78
:1047400053EC102B51EC100B0AF0EEFC41EC1D0B5E
:104750009FED7FEB53EC1E2B0AF07EFA53EC1B2BE4
:104760000AF07AFA0890CDE908519DED080B53EC58
:104770001E2B51EC100B0AF0E3FE53EC1D2B0AF03C
:10478000DFFE53EC1B2B0AF003FE9DED080B41EC02
:104790001D0B53EC102B9DED100B51EC100B0AF080
:1047A000C3FC41EC1B0B53EC1A2B51EC1D0B0AF014
:1047B000BBFC9DED080B41EC1A0B53EC102B51EC9C
:1047C0001C0B0AF0B1FC53EC1A2B0AF045FA41EC31
:1047D0001A0B51EC1B0B53EC1A2B0AF03DFA0C9000
:1047E000CDE90C519DED0C0B53EC1B2B51EC100B38
:1047F0000AF0A6FE53EC1A2B0AF0CAFD41EC1B0B83
:104800009FED550B53EC102B9DED0C0B51EC100B49
:104810000AF08AFC41EC1A0B9FED510B51EC1B0B7B
:1048200053EC102B0AF080FC41EC1B0B9FED4E0B60
:1048300053EC102B9DED0C0B51EC100B0AF074FC9B
:1048400053EC1B2B0AF008FA41EC100B4848784453
:1048500000EBC40090ED001B51EC100B53EC112B3E
:104860000AF0FAF941EC1B0B38460AF009FCCDE9D5
:10487000080153EC1B2B51EC1A0B0AF0EDF941EC3B
:10488000100B3C48784400EBC40090ED00CB51EC99
:10489000100B53EC1C2B0AF0DFF99DED081B53ECB9
:1048A000112B0AF0D9F90690CDE906519DED080BC0
:1048B00053EC102B9DED060B51EC100B0AF040FE53
:1048C00053EC1C2B0AF03CFE53EC1A2B0AF038FE7A
:1048D00053EC1B2B0AF05CFD41EC100B9DED261BED
:1048E00053EC102B8DED001B00959DED260B51EC2C
:1048F000100B0AF019FC9DED000B41EC1A0B53EC68
:10490000102B9DED260B51EC100B0AF019FE9DEDBE
:10491000061B53EC112B2FE0000000604715F73FFA
:10492000FE822B654715F73F44DF5DF80BAE543E22
:1049300000000000000040438E9803007AB60B0090
:10494000A2A6020068A70200DAA50200000000008B
:104950000000000000000840000000E009C7EE3F32
:10496000FD033ADC09C7EE3FF5015B14E02F3EBEC4
:1049700066A4020020A402000AF0D6FB53EC1A2B16
:104980000AF06AF99DED060B41EC1A0B53EC102B63
:104990009DED000B51EC100B0AF0C6FBCDE90C01AC
:1049A0009DED0C0B51EC1A0B53EC102B0AF054F943
:1049B000CDE902010C46AA498C422FDB611A08435B
:1049C00018D19DED0C0B53EC102B9DED020B51EC0F
:1049D000100B0AF0B5FD41EC1B0B9FEDA30B51EC46
:1049E0001A0B53EC102B0AF037F953EC1B2B0AF07F
:1049F00099FC2DD20220FBF7DAFC00F011FA10EE40
:104A0000901A18EE900A8DED020B8DED008B61F37C
:104A10001E0003909DED020BFFF7BEBB944A24F0ED
:104A20000041914214D39349214408437FF4EFACF1
:104A30009DED0C0B53EC102B9DED020B51EC100B6C
:104A40000AF07EFD53EC1A2B0AF06CFC7FF6DFAC0B
:104A500024F000408849894A002601EB2051824217
:104A60002BDA481C4FF4801121FA00F02044844ACC
:104A7000C0F30A517A44A1F2FF3192ED000B814A52
:104A80008DED080BCA4020EA0202C0F3130040F487
:104A90008010C1F1140120FA01F60992002CB8BF70
:104AA00076429DED080B53EC102B9DED0C0B51EC59
:104AB000100B0AF045FDCDE90C019DED0C0B51ECFE
:104AC0001A0B53EC102B0AF0C7F89FED6F0B0890F0
:104AD000CDE9085153EC102B9DED080B51EC100B58
:104AE0000AF022FB41EC1B0B9FED690B53EC102BE2
:104AF0009DED080B51EC100B0AF016FB9DED0C0B15
:104B000041EC1C0B53EC102B9DED080B51EC100BE2
:104B10000AF016FD53EC1A2B0AF03AFC9FED5E1BCF
:104B200053EC112B0AF000FB53EC1C2B0AF094F809
:104B300041EC1A0B51EC1B0B53EC1A2B0AF08CF8BE
:104B4000CDE902019DED020B53EC1B2B51EC100B38
:104B50000AF0F6FC53EC1A2B0AF01AFC9DED020B3E
:104B600041EC1A0B53EC102B51EC100B0AF0DCFA51
:104B7000CDE908014A489DED080B0521784400F075
:104B800097F89DED081B51EC100B53EC112B0AF01C
:104B9000CBFA9DED021B53EC112B0AF0F9FBCDE98A
:104BA00006019DED020B53EC1A2B51EC100B0AF091
:104BB000BBFA53EC1A2B0AF04FF89FED3B0B41EC7C
:104BC0001A0B53EC102B9DED060B51EC100B0AF059
:104BD000B7FC9DED060B41EC1B0B53EC102B9DED30
:104BE000020B51EC100B0AF09FFA53EC1B2B0AF04E
:104BF000EFF853EC1A2B0AF0A3FC9DED021B53ECCB
:104C0000112B0AF09DFC53EC192B0AF0C1FBCDE9E6
:104C1000020101EB065001150029C8BF039015DC05
:104C20009DED020B324651EC100B0AF020FEFEF710
:104C3000E8FD042808BF00F003F932469DED020BA1
:104C400051EC100B0AF013FECDE902019DED020BB1
:104C500051EC180B53EC102B0AF066FAFFF73ABB35
:104C60000000904000000000FE822B654715973C35
:104C700000CC904000346F3F01FCFFFF0000E03F9C
:104C800040A30200FFFF0F0000000000432EE63F9C
:104C9000396CA80C615C20BEEF39FAFE422EE63F6B
:104CA00078A10200000000000000000000000040A9
:104CB00070B504462DED028B4D1E00EBC500B0EE25
:104CC000408AF0EE608A90ED000B35F0060017D0B8
:104CD00053EC182B51EC100B0AF026FA41EC100B98
:104CE0006D1E04EBC50090ED001B51EC100B53EC56
:104CF000112B09F0B1FF41EC100B35F00600E7D1A4
:104D0000022D36D0042D1CD0062D1CBFBDEC028B0D
:104D100070BD53EC182B51EC100B0AF005FA94ED12
:104D20000A1B53EC112B09F097FF53EC182B0AF0D8
:104D3000FBF994ED081B53EC112B09F08DFF41ECAE
:104D4000100B53EC182B51EC100B0AF0EDF994ED0D
:104D5000061B53EC112B09F07FFF53EC182B0AF0C4
:104D6000E3F994ED040B53EC102B09F075FF41ECC3
:104D7000100B53EC182B51EC100B0AF0D5F994EDF5
:104D8000021B53EC112B09F067FF53EC182B0AF0B0
:104D9000CBF994ED001B53EC112B09F05DFFBDEC3A
:104DA000028B41EC100B70BD9FED070B10B553EC5F
:104DB000102B9FED070B51EC100B0AF009F841EC9A
:104DC000100B10BD000000000000000000000000FB
:104DD000000000000000F03F10B553EC102B51EC28
:104DE000100B09F039FF41EC100B10BD10B553EC5E
:104DF000112B51EC100B09F02FFF41EC100B10BDE3
:104E00009FED050B10B553EC102B51EC100B09F076
:104E1000DFFF41EC100B10BD00000000000000009F
:104E20009FED050B10B553EC102B51EC100B0AF055
:104E30007BF941EC100B10BD000000000000007079
:104E40009FED050B10B553EC102B51EC100B0AF035
:104E50006BF941EC100B10BD0000000000000010C9
:104E600010B541EC100BFEF797FE51EC100B10BD86
:104E70000249CA89088A921CCA817047080000202A
:104E80000C48C189028A891CC1810B49C37951F838
:104E900023C00146BCF1040FCB78098A194406D11E
:104EA000120AB2EB112F02D0026A521C026288B2BF
:104EB0007047000008000020740701080C48C189F1
:104EC000028A891CC1810B49C37951F823C001466C
:104ED000BCF1040F0B79098A194406D1120AB2EB0E
:104EE000112F02D0026A521C026288B27047000081
:104EF000080000207407010810B5804700F47041D5
:104F000009137D4C10297DD2DFE801F008080D0D52
:104F10008FD2D2D2D4D4D4D4DADADADA7749C0F361
:104F20000A00085C8EE000F00700082844D2DFE8A1
:104F300000F004070A891F898927714800F0C4B866
:104F40006F4840787EE06E496E4B887820F0800292
:104F50008A7000221A706C4A1268153AF12A71D2CE
:104F60000A7812F0800F04BF22F003020A7069E091
:104F7000664991F80021885C521C81F8002161E0AB
:104F800063490A88887812F4704304BF4B689B5CBD
:104F900018D0B3F5805F10D0B3F5005F14D0B3F52F
:104FA000405F18BF00202ED0554B1B7813F0040F24
:104FB00014BF2032521C0A8044E08B68C2F30B0CF1
:104FC00013F80C308B70EFE7C2F30B03B3F5406FAF
:104FD00084BFD1F818C0A3F5406310D8B3F5006FB3
:104FE00084BFD1F814C0A3F5006308D8B3F5806F6F
:104FF00086BFD1F810C0A3F58063D1F80CC01CF8AF
:105000000330DFE71DE043F610739A4205D302F048
:105010000F00084490F82C00C6E7B2F57C5FC3D3BC
:1050200002F00F000844007FBEE7A0F5804116396A
:1050300008BF002039D0A0F58041173908BF0120F2
:1050400033D0000A6179A378C0B201F0010218449C
:10505000104400F18002B2F5807F2CBF41F0400186
:1050600001F0BF016171FF28C9B2CCBF41F001015D
:1050700001F0FE016171C0B2C9B2A07011F0080F59
:1050800024D001F0FE0100F00F026171092A84BFF3
:10509000801DA070C0B200F0F002902A19D96030D3
:1050A000A07041F00100607113E007F095FBC9E7C3
:1050B0000020C7E7A1690844A0F500400078C1E7D7
:1050C000E1690844A0F540400078BBE7206A401C35
:1050D0002062A0786179002814BF01F0FD0141F041
:1050E0000201617110F0800FC8B214BF40F080005F
:1050F00000F07F00607110BD080000202C0400202B
:105100002C000010290000103000001088FA012047
:105110002CF8012010B5804700F470410913634C4E
:1051200010297CD2DFE801F008080D0D8EB3B3B36F
:10513000B5B5B5B5BBBBBBBB5D49C0F30A00085CE8
:105140008DE000F00700082843D2DFE800F00406F5
:1051500009881E8888265748A5E0564840787EE092
:105160005449554B887820F080028A7000221A70CA
:10517000524A1268153AF12A71D20A7812F0800F59
:1051800004BF22F003020A7069E04D4991F8002142
:10519000885C521C81F8002161E04A490A888878BD
:1051A00012F4704304BF4B689B5C18D0B3F5805F6A
:1051B00010D0B3F5005F14D0B3F5405F18BF0020E6
:1051C0002ED03C4B1B7813F0040F14BF2032521C1E
:1051D0000A8044E08B68C2F30B0C13F80C308B7020
:1051E000EFE7C2F30B03B3F5406F84BFD1F818C0EB
:1051F000A3F5406310D8B3F5006F84BFD1F814C095
:10520000A3F5006308D8B3F5806F86BFD1F810C04E
:10521000A3F58063D1F80CC01CF80330DFE71DE074
:1052200043F610739A4205D302F00F00084490F839
:105230002C00C6E7B2F57C5FC3D302F00F00084430
:10524000007FBEE7A0F58041163908BF00201BD0C3
:10525000A0F58041173908BF012015D0000AA178B8
:10526000C0B20840A070617914BF01F0FD0141F0A7
:105270000201617110F0800FC8B214BF40F08000CD
:1052800000F07F00607110BD07F0A6FAE7E700208C
:10529000E5E7A1690844A0F500400078DFE7E1698F
:1052A0000844A0F540400078D9E70000080000203D
:1052B0002C0400202C0000102900001030000010E9
:1052C00088FA01202CF801202DE9F041804700F4F4
:1052D00070410913FE4C054610297CD2DFE801F02D
:1052E00008080D0D8EB4B4B4B6B6B6B6BCBCBCBC22
:1052F000F849C5F30A00085C8DE005F007000828AE
:1053000043D2DFE800F0040609881E888826F248A8
:10531000A6E0F14840787EE0EF49F04B887820F035
:1053200080028A7000221A70ED4A1268153AF12A3A
:1053300071D20A7812F0800F04BF22F003020A70C3
:1053400069E0E84991F80021885C521C81F800214D
:1053500061E0E54B1988987811F4704204BF5A68EF
:10536000525C18D0B2F5805F10D0B2F5005F14D057
:10537000B2F5405F18BF00202ED0D74A127812F045
:10538000040F14BF2031491C198044E09A68C1F30E
:105390000B0C12F80C209A70EFE7C1F30B02B2F578
:1053A000406F84BFD3F818C0A2F5406210D8B2F5A0
:1053B000006F84BFD3F814C0A2F5006208D8B2F51C
:1053C000806F86BFD3F810C0A2F58062D3F80CC0FE
:1053D0001CF80220DFE71DE043F61072914205D36E
:1053E00001F00F00184490F82C00C6E7B1F57C5F7F
:1053F000C3D301F00F001844007FBEE7A0F5804141
:10540000163908BF00201CD0A0F58041173908BF0D
:10541000012016D0280A6179C0B201F0FE0141EAEC
:10542000D01140066171060E05F47042002112137E
:105430003046052A80F04881DFE802F014141A1A79
:10544000AC0007F0C9F9E6E70020E4E7A1694819D4
:10545000A0F500400078DEE7E1694819A0F540407A
:105460000078D8E79B4AC5F30A01565400F02CB9DE
:1054700005F00701082980F02781DFE801F0040822
:105480008A0C111C2D3994490E7000F01DB99249F7
:105490004E7000F019B9934981F8006100F014B919
:1054A000904991F800218E5491F80001401C81F838
:1054B000000100F009B989490A78002A04BF8B4B22
:1054C0001E7004D0EF2888BF0020894B187082F02E
:1054D0000100087000F0F8B883490A7806EB022052
:1054E00008807E48017881F00101017000F0ECB87D
:1054F0007D4D298811F4704218BFB2F5805F3FD00E
:10550000B2F5005F03D0B2F5405F19D038E0C1F3C7
:105510000B01B1F5406F84BFAA69A1F540610DD8B8
:10552000B1F5006F84BF6A69A1F5006106D8B1F5D5
:10553000806F86BF2A69A1F58061EA6856541FE032
:1055400001F01F0201F00F010F2A294415D981F83B
:105550002C00297811F0030F12D1287785F82C0040
:1055600085F8200085F8300085F8240085F834009F
:1055700085F8280085F8380002E00E7708F0A6FBD1
:105580005548007810F0040F288814BF2030401CC4
:10559000288099E0A5F58042143A04D0A5F5804210
:1055A000163A3DD090E0216A0209A1F5007121620E
:1055B0000021102A18D2DFE802F008081717171781
:1055C00087870C0C0C0C12121212424901EB0621B7
:1055D0000AE0A16901EB0620A0F5004104E0E169C1
:1055E00001EB0620A0F540413E4A501A002804DD98
:1055F000B0F5807FB8BF002005DB4FF480723948DA
:10560000FAF764FE60E00B5C13540B1802EB000C1D
:105610005B78801C8CF80130B0F5807FF3DB53E0C1
:1056200035004FD03348017033480069C04381B220
:1056300032480288B2F5406F94BF0023012341EA4B
:105640000341B2F5806F34BF0122002241EA424299
:105650004188B1F5406F8CBF0123002342EA8342A9
:10566000B1F5806F34BF0121002142EAC142C188F7
:10567000B1F5406F8CBF0123002342EA0352B1F51C
:10568000806F34BF0121002142EA41518088B0F58A
:10569000406F8CBF0122002241EA8251B0F5806F39
:1056A00034BF0120002041EAC05706F007FF47EA57
:1056B000006706F017FF47EA406706F0E3FE47EA97
:1056C000806060610E480570002E60791AE000006D
:1056D000080000202C0400202C00001029000010DD
:1056E0003000001088FA01202CF801202B00001057
:1056F0002A000010110000200010024000000020CD
:105700001300002014BF00F0FD0040F002006071A3
:1057100016F0800FC0B214BF40F0800000F07F0090
:105720006071BDE8F081000010B5804700F4704161
:105730000913604C10297CD2DFE801F008080D0D38
:105740008EAEAEAEB0B0B0B0B6B6B6B65A49C0F3D3
:105750000A00085C8DE000F00700082843D2DFE86B
:1057600000F0040609881E8888265448A0E05348A3
:1057700040787EE05149524B887820F080028A7050
:1057800000221A704F4A1268153AF12A71D20A782B
:1057900012F0800F04BF22F003020A7069E04A4948
:1057A00091F80021885C521C81F8002161E0474992
:1057B0000A88887812F4704304BF4B689B5C18D049
:1057C000B3F5805F10D0B3F5005F14D0B3F5405F40
:1057D00018BF00202ED0394B1B7813F0040F14BFD4
:1057E0002032521C0A8044E08B68C2F30B0C13F881
:1057F0000C308B70EFE7C2F30B03B3F5406F84BF3F
:10580000D1F818C0A3F5406310D8B3F5006F84BF7A
:10581000D1F814C0A3F5006308D8B3F5806F86BF34
:10582000D1F810C0A3F58063D1F80CC01CF8033088
:10583000DFE71DE043F610739A4205D302F00F0034
:10584000084490F82C00C6E7B2F57C5FC3D302F0A1
:105850000F000844007FBEE7A0F58041163908BF5D
:10586000002016D0A0F58041173908BF012010D0C4
:10587000000AA178C0B20842617914BF01F0FD01AD
:1058800041F0020101F03F0100F0C00008436071E7
:1058900010BD06F0A1FFECE70020EAE7A16908448B
:1058A000A0F500400078E4E7E1690844A0F5404035
:1058B0000078DEE7080000202C0400202C000010F7
:1058C000290000103000001088FA01202CF8012077
:1058D00010B5804700F470410913684C10297CD240
:1058E000DFE801F008080D0D8EBEBEBEC0C0C0C00E
:1058F000C6C6C6C66249C0F30A00085C8DE000F067
:105900000700082843D2DFE800F0040609881E8853
:1059100088265C48B0E05B4840787EE059495A4BA5
:10592000887820F080028A7000221A70574A126824
:10593000153AF12A71D20A7812F0800F04BF22F0D2
:1059400003020A7069E0524991F80021885C521CF8
:1059500081F8002161E04F490A88887812F4704389
:1059600004BF4B689B5C18D0B3F5805F10D0B3F5D3
:10597000005F14D0B3F5405F18BF00202ED0414B1C
:105980001B7813F0040F14BF2032521C0A8044E02D
:105990008B68C2F30B0C13F80C308B70EFE7C2F37B
:1059A0000B03B3F5406F84BFD1F818C0A3F5406373
:1059B00010D8B3F5006F84BFD1F814C0A3F500630D
:1059C00008D8B3F5806F86BFD1F810C0A3F5806307
:1059D000D1F80CC01CF80330DFE71DE043F610736C
:1059E0009A4205D302F00F00084490F82C00C6E755
:1059F000B2F57C5FC3D302F00F000844007FBEE71E
:105A0000A0F58041163908BF002026D0A0F58041BE
:105A1000173908BF012020D0000AA178C0B2081AA7
:105A200000F580706179FF28CCBF41F0010101F0E1
:105A3000FE01617110F0FF00C9B214BF01F0FD0159
:105A400041F00201617110F0800FC8B214BF40F044
:105A5000800000F07F00607110BD06F0BDFEDCE745
:105A60000020DAE7A1690844A0F500400078D4E7F7
:105A7000E1690844A0F540400078CEE70800002026
:105A80002C0400202C000010290000103000001011
:105A900088FA01202CF8012010B5804700F47041ED
:105AA0000913684C10297CD2DFE801F008080D0DBD
:105AB0008EBEBEBEC0C0C0C0C6C6C6C66249C0F3A8
:105AC0000A00085C8DE000F00700082843D2DFE8F8
:105AD00000F0040609881E8888265C48B0E05B4810
