:020000040800F2
:10000000D87600108D020008AF2B0008B11200084E
:10001000AD2B00087F050008D93200080000000061
:100020000000000000000000000000008F31000808
:100030009105000800000000B12B00089131000874
:10004000A7020008A7020008A7020008A7020008EC
:10005000A7020008A7020008A7020008A7020008DC
:10006000A7020008A7020008A7020008A7020008CC
:10007000A7020008A7020008A7020008A7020008BC
:10008000A7020008A7020008A7020008A7020008AC
:10009000A7020008A7020008A7020008A70200089C
:1000A000A7020008A7020008A7020008A70200088C
:1000B000A7020008A7020008A7020008A70200087C
:1000C000A7020008A7020008A7020008A70200086C
:1000D000A7020008A7020008A7020008A70200085C
:1000E000A7020008A7020008A7020008A70200084C
:1000F000A7020008A7020008A7020008A70200083C
:10010000A7020008A7020008A7020008A70200082B
:10011000A7020008A7020008A7020008A70200081B
:10012000A7020008A702000881050008A70200082E
:10013000A7020008A7020008A7020008A7020008FB
:10014000A7020008A7020008A7020008A7020008EB
:100150008305000885050008A7020008A70200081B
:10016000A7020008A7020008A7020008A7020008CB
:10017000A7020008A7020008A7020008000000006C
:10018000A7020008A702000800F002F800F06EF8CD
:100190000AA090E8000C82448344AAF10107DA45E2
:1001A00001D100F063F8AFF2090EBAE80F0013F0C6
:1001B000010F18BFFB1A43F001031847D4BF020018
:1001C00014C0020010F8013B0A4413F0030408BFF6
:1001D00010F8014B1D1108BF10F8015B641E05D01B
:1001E00010F8016B641E01F8016BF9D1002D15D0D8
:1001F00010F8014B03F00C030C2BA1EB04040ABF15
:1002000010F8013BA4EB8314A4EB032405F10103D4
:1002100014F8016B5B1E01F8016BF9D5914238BFF0
:1002200010F8013BD1D37047103A24BF78C878C189
:10023000FAD8520724BF30C830C144BF04680C60EC
:10024000704700000023002400250026103A28BF34
:1002500078C1FBD8520728BF30C148BF0B60704738
:100260001FB50CF0C9FB1FBD10B510BD00F04EF955
:100270001146FFF7F5FF0AF071FB00F06CF903B4CB
:10028000FFF7F2FF03BC00F073F900000948804754
:1002900009480047FEE7FEE7FEE7FEE7FEE7FEE768
:1002A000FEE7FEE7FEE7FEE704480549054A064B80
:1002B000704700008132000889010008D8700010E2
:1002C000D8760010D8720010D8720010431A28BFD8
:1002D0009A4240F26780032A1044114440F226807B
:1002E00010F0030F1EBF11F8013D521E00F8013D32
:1002F00010F0030F7FF4F6AF11F0030300F0AA80B3
:10030000083AC0F00B8051F8043D083A51F804CD8A
:1003100040F8043D40F804CDFFF7F3BF121D5CBF69
:1003200051F8043D40F8043DAFF30080D20724BFEC
:1003300011F8013D11F801CD48BF11F8012C24BF7F
:1003400000F8013D00F801CD48BF00F8012C7047CE
:100350004FF0000200B5134694469646203922BF5E
:10036000A0E80C50A0E80C50B1F12001BFF4F7AFA9
:10037000090728BFA0E80C5048BF0CC05DF804EB8B
:10038000890028BF40F8042B08BF704748BF20F8F9
:10039000022B11F0804F18BF00F8012B70477047F7
:1003A00070477047032A40F2308010F0030C00F0D1
:1003B000158011F8013BBCF1020F624498BF11F89F
:1003C00001CB00F8013B38BF11F8013BA2F1040258
:1003D00098BF00F801CB38BF00F8013B11F00303D0
:1003E00000F06280083AC0F0088051F8043B083AF7
:1003F00051F804CBA0E80810F5E7121D5CBF51F8D6
:10040000043B40F8043BAFF30080D20724BF11F84F
:10041000013B11F801CB48BF11F8012B24BF00F8B4
:10042000013B00F801CB48BF00F8012B7047431A8D
:1004300028BF9A4240F23880104410F0030F114454
:100440001EBF11F8013D521E00F8013D10F0030FD0
:100450007FF4F6AF103AC0F00A8010B531E91850B9
:10046000103A20E91850BFF4F9AFBDE81040530727
:1004700024BF31E9081020E9081044BF51F8043DB9
:1004800040F8043D12F0030F08BF7047D20728BFA1
:1004900031F8023D48BF11F8012C28BF20F8023D79
:1004A00048BF00F8012C704710B5203AC0F00B800F
:1004B000B1E81850203AA0E81850B1E81850A0E868
:1004C0001850BFF4F5AF5FEA027C24BFB1E81850C2
:1004D000A0E8185044BF18C918C0BDE810405FEA32
:1004E000827C24BF51F8043B40F8043B08BF7047AE
:1004F000D20728BF31F8023B48BF11F8012B28BFB3
:1005000020F8023B48BF00F8012B7047754600F009
:100510002BF8AE4605006946534620F00700854695
:1005200018B020B5FFF7C0FEBDE820404FF0000630
:100530004FF000074FF000084FF0000B21F00701CB
:10054000AC46ACE8C009ACE8C009ACE8C009ACE80E
:10055000C0098D46704710B50446AFF300802046B1
:10056000BDE81040FFF78BBE004870477470001064
:1005700001491820ABBEFEE7260002007047FEE7E7
:1005800070477047014800F005B800001470001073
:10059000704770472DE9F8430446002700977348D9
:1005A0004FF41651A56D0068B0FBF1F92E6894F870
:1005B0005C00082101FA00F0304211D02068026886
:1005C00012F0040F0CD0026822F00402026094F8CA
:1005D0005C0001FA00F0A860606D40F00100606509
:1005E00094F85C004FF0010808FA00F0304209D09E
:1005F0002168496911F0800F04D0A860606D40F057
:100600000200606594F85C1004208840304209D0F4
:100610002168096811F0020F04D0A860606D40F0F5
:100620000400606594F85C1010208840304220D0AF
:100630002168096811F0080F1BD0A86020680168C4
:1006400011F4802F09D0006810F4002F02D0A16CA3
:1006500079B10CE0216C51B90BE0016811F4807F95
:1006600003D1016821F008010160216C09B1204625
:10067000884794F85C102020884030424AD0216896
:10068000096811F0100F45D0A86094F835000528CE
:100690002068016809D011F4802F2BD0006810F475
:1006A000002F24D0E16B21B332E021F0160101606C
:1006B0002068416921F080014161206C002804BF5D
:1006C000A06C002804D02068016821F008010160B6
:1006D00094F85C004FF03F0101FA00F0A86084F844
:1006E000347084F83580216DD1BBBDE8F883616C2E
:1006F00071B90FE0016811F4807F07D1016821F022
:100700001001016084F8347084F83580E16B09B120
:1007100020468847606D002808BFBDE8F883606DFB
:1007200010F0010F17D04FF0050084F83500206855
:10073000016821F001010160009800F101000090C2
:10074000484504D82068006810F0010FF4D184F8FF
:10075000347084F83580E16C002908BFBDE8F88367
:10076000204601B0BDE8F043084700004C000010EF
:1007700070B5044600F0DCF90546002C04BF0120EA
:1007800070BD002684F83460022084F835002068AB
:10079000016821F0010101602068006810F0010F7C
:1007A00010D000BF00F0C4F9401B052805D9202057
:1007B0006065032084F8350070BD2068006810F083
:1007C000010FEFD1216808683D4A1040D4E90123A8
:1007D0001A43D4E9033C43EA0C031A4363691A43FE
:1007E000A3691A43E3691A43236A1A431043626AEE
:1007F000042A03D1D4E90B231A4310430860D4F828
:1008000000C0DCF81400012320F00701606A40EA10
:100810000102042837D1A16AE06A0A4318B3A56926
:1008200055B1B5F5005F14D000291CBF012902297C
:1008300021D003291CD026E019B1012905D00229B5
:1008400021D110F0807F1ED015E0B0F1C07F1AD109
:1008500011E081B1012907D002290CD0032908BF7A
:10086000B0F1C07F07D00EE010F0807F03D10AE026
:1008700010F0807F07D04FF04000606584F835307D
:100880004FF0010070BDCCF8142020680D4AC1B2B1
:10089000A1F11001A2FB01210B4A4FEA111103291A
:1008A000525CE2656FF3090088BF001D3F21914053
:1008B000A0658160666584F83530002070BD000059
:1008C0003F8010F0ABAAAAAA30BD020870B504465A
:1008D00000F02EF90546B4F1FF3F02D0044800783D
:1008E000044400F025F9401BA042FAD370BD00007B
:1008F000400000102DE9F84F0022884EDFF820E27A
:1009000001274FF0030A4FF00F0800BF0B6807FAEA
:1009100002F42340A34240F0FB80D1F804C0BCF1B4
:10092000020F18BFBCF1120F15D14FEAD20C00EB29
:100930008C0CDCF820504FEA42794FEAD96908FA6A
:1009400009FB25EA0B05D1F810B00BFA09F949EAC1
:100950000505CCF82050D0F800904FEA420C91F8F1
:1009600004B00AFA0CF50BF0030B29EA05090BFA9F
:100970000CFB4BEA0909C0F80090D1F80490B9F1DA
:10098000010F18BFB9F1020F05D0B9F1110F18BF4F
:10099000B9F1120F18D1D0F80890D1F80CB029EAAB
:1009A00005090BFA0CFB4BEA0909C0F80890D0F8CE
:1009B000049029EA040491F80490C9F3001909FA93
:1009C00002F949EA04044460C46824EA05048D6815
:1009D00005FA0CFC4CEA040CC0F80CC0D1F804C0B9
:1009E0001CF0805F7ED0D6F800C04CF4804CC6F876
:1009F00000C0D6F800C00CF4804CCDF800C022F046
:100A0000030C0CF1804505F59835D5F808C84FEA78
:100A100082744FEA147408FA04F92CEA090CA0F164
:100A20008049B9F5003938D0A0F18049B9F50139CC
:100A300008BF4FF0010930D0A0F18049B9F5023963
:100A400008BF4FF0020928D0A0F18049B9F5033959
:100A500008BF4FF0030920D0A0F18049B9F504394F
:100A600008BF4FF0040918D0A0F18049B9F5053945
:100A700008BF4FF0050910D0A0F18049B9F506393B
:100A800008BF4FF0060908D0A0F18049B9F5073931
:100A90000CBF4FF007094FF0080909FA04F444EAC3
:100AA0000C0CC5F808C8DEF800C04C682CEA030C32
:100AB00014F4803F18BF4CEA030CCEF800C0194C68
:100AC000D4F800C04D682CEA030C15F4003F18BFA1
:100AD0004CEA030CC4F800C0134CD4F800C02CEA54
:100AE000030C00E014E04D6815F4801F18BF4CEAB9
:100AF000030CC4F800C00D4CD4F800C04D682CEABB
:100B0000030C15F4001F18BF4CEA030CC4F800C016
:100B1000521C102AFFF4FAAEBDE8F88F44380240A8
:100B2000003C0140043C0140083C01400C3C0140B9
:100B30000148406870470000100000100B4810B5D5
:100B4000016841F400710160016841F48061016055
:100B5000016841F480710160032000F081F80020F9
:100B600000F006F800F024F8002010BD003C024020
:100B700070B50D4D04464FF47A712878B1FBF0F052
:100B80000A490968B1FBF0F000F07CFB48B9102C71
:100B900007D200222146501E00F030F800206C6081
:100BA00070BD012070BD0000400000104C0000101E
:100BB0000A4881B0016841F480410160006800F496
:100BC000804000900648016841F080510160006853
:100BD00000F08050009001B070470000443802409F
:100BE0004038024000F01F01012202FA01F14009E1
:100BF000800000F1E020C0F800117047174B10B4DE
:100C00001B68C3F30223C3F1070CBCF1040F88BFB8
:100C10004FF0040C1C1D072C34BF0023DB1E0124E5
:100C200004FA0CFCACF1010C0CEA0101994004FA45
:100C300003F35B1E1A40114300284FEA0111A1BFC4
:100C400000F1E02080F8001410BC704700F00F00A5
:100C500000F1E02080F8141D10BC70470CED00E09E
:100C6000074900F007000A684FF6FF031A4042EAFE
:100C7000002040F0FD7040F0806008607047000088
:100C80000CED00E02DE9F041044684B003200D4650
:100C900084F83400606C03285DD0B5F5805F04BF34
:100CA000A06B40F0805032D000264FF400684FF027
:100CB0008067B5F5006F06D0002D1CBFA06B40F01B
:100CC000006026D023E0009601960021206801F004
:100CD00086FF10F0007F01D0404639E0694620468B
:100CE00002F0CCF9A0BB019810F4802F0DD0B4F81D
:100CF00050000104206801F096FF48BB02212068E3
:100D000001F0D6FF20BB304622E0384620E0A06349
:100D100025E0009601960021206801F060FF10F0A8
:100D2000007FD9D16946204602F0A8F980B9019820
:100D300010F4803FE9D0B4F850000104206801F0BD
:100D400072FF28B90021206801F0B2FF0028DAD034
:100D5000A16B0843DBE7A06B40F08050A063A06B61
:100D6000012648B1216840F2FF50886384F834605E
:100D700004B00120BDE8F081D4E9050CD4E90112EA
:100D8000E368CDE90050CDF808C0206801F02EFFDF
:100D900084F8346004B00020BDE8F08170B4426E85
:100DA000120E93090B70C2F383034B7002F003021F
:100DB0008A70426E120CCA70B0F86420120A0A716E
:100DC00090F864204A71826E4FF6FF73120E03EAA8
:100DD0000212CA80826ECB88C2F3074243EA121322
:100DE000CB8002F00F020A72B0F86820C2F307222B
:100DF000D3094B72C2F380138B72C2F34013CB72D0
:100E0000C2F300130B734FF0000C81F80DC0456C5A
:100E10004FF40074012375B1012D45D0026840F2F2
:100E2000FF519163816B41F08051816380F83430D0
:100E300070BC012070479207120D0A6190F868207B
:100E40000D6945EA82020A61C26E0D69120E45EA19
:100E500092150D61C2F3C2050D7502F007024A75C5
:100E6000C26EC2F3074255098D75C2F38205CD7576
:100E70009207520F0A76B0F86C200D7EC2F307225B
:100E800045EAD2150D760D696D1C45650E7EB61CC2
:100E900005FA06F646650D7A03FA05F585656D0ACD
:100EA0007543C0E917541CE090F868209206920A36
:100EB0000A61C26E0D69120E45EA02220A61C26E13
:100EC0000D69C2F307422A430A61B0F86C200D692C
:100ED000C2F307226D1C4FEA85254565C0E916451A
:100EE0000466C2F380144C764FEA82624FEA526283
:100EF0008A7690F86C208C7E44EAD2148C7602F0CC
:100F00007F02CA76026F4FEA12624FEAD2140C7760
:100F1000C2F341144C77C2F382048C774FEA827299
:100F20004FEA1272CA77026FCC7FC2F3074244EADB
:100F30009214CC77C2F3401481F8204081F821C08C
:100F400002F0010281F82220B0F87020C2F30722DB
:100F50004FEAD21C81F823C0C2F3801C81F824C060
:100F6000C2F3401C81F825C0C2F3001C81F826C0E2
:100F7000C2F3810C81F827C002F0030281F8282017
:100F800090F870004FEA500081F8290081F82A306B
:100F900070BC4FF000007047002804BF012070476C
:100FA00070B5044690F83400002518B9257720461E
:100FB00000F0F0F8032084F83400204600F008F830
:100FC000A5632563012084F83400002070BD000073
:100FD0002DE9F043002591B0044676200095CDE937
:100FE00001502B462A462946206801F0FFFD684F34
:100FF00047F8A05F206801F00FFE01263E60022046
:10100000FFF764FC0095206801F060FE00287DD1A8
:10101000206801F07DFE4FF080784FF6FF770028C2
:101020001ABFA5644FF08059A66417D00098411CE0
:101030000091B84217D00021206801F0F4FD20B9DA
:101040000021206801F0FCFD08B1484688E000213D
:10105000206801F0C4FDC00FE8D01EE00098411CDC
:101060000091B84201D140467AE00021206801F0A9
:10107000DAFD002874D14FF08041206801F0E0FDD6
:1010800000286DD10021206801F0A9FDC10FE5D035
:1010900010F0804F18BF666400D16564ADF8106031
:1010A000206801F098FD002808BF4FF0806057D0FD
:1010B000606C032842D0206801F068FE00284FD100
:1010C0000021206801F08BFD60670421206801F099
:1010D00086FDA0670821206801F081FDE0670C21F2
:1010E000206801F07CFDC4F88000606C032825D0E6
:1010F00004A9206801F0B8FE40B9606C03281DD037
:10110000BDF8100020650104206800E028E001F02F
:101110006DFE28BB0021206801F061FD606604219E
:10112000206801F05CFDA0660821206801F057FDF1
:10113000E0660C21206801F052FD20670421206840
:1011400001F04DFD010DE164204605A9FFF726FEE3
:10115000B4F8500000230204206801F009FE40B1F9
:1011600084F83460A16B0843A06311B00120BDE88E
:10117000F083D4E90401A2690292CDE9000194E868
:101180000F0001F033FD11B00020BDE8F083000036
:10119000008025422DE9F04387B0002605460096E1
:1011A00001960296039604960068A0F18041B1F57D
:1011B00096311CBF07B0BDE8F0832C48016841F4AC
:1011C00000610160006800F4006005902848016833
:1011D00041F004010160016801F00401059101681A
:1011E00041F0080101600068022400F00800059049
:1011F0004FF4F850CDE9000403274FF00C09CDE976
:10120000037969461B48FFF775FB4FF0040801AAF4
:10121000CDF8008082E8D00269461748FFF76AFBE4
:10122000174C164820604FF00060C4E901064014D6
:10123000C4E90360800060618000A0612020E0615B
:101240000003C4E908088001C4E90A708010206323
:101250002046FFF78DFA002818BFFFF79AF9EC63D4
:101260002C64A56307B0BDE8F08300004438024059
:101270003038024000080240000C0240A0640240E6
:1012800014700010411EB1F1807F24BF012070470F
:101290004FF0E0204161054AF02182F8141D002141
:1012A0008161072101610020704700000FE000E02C
:1012B000FEE7000030B4DFF854C04A680123DCF8D0
:1012C0000840DCF80851DCF808C22C4344EA0C0C56
:1012D0001CF0010F18BF002302D030BC1846704725
:1012E000DFF82CC052B10C682243D1E902412143FE
:1012F0001143426802EA0C02114304E042680968A3
:1013000002EA0C0211434160E7E7000000200140BF
:10131000E010FCFF8368012213F0010F18BF0022C8
:1013200001D010467047D1F808C00B6843EA0C039F
:10133000D0F804C02CF4807C2CF0407C43EA0C03F1
:1013400043608368496823F4006319438160E8E7D8
:1013500010B44B68D0F808C001221CF0010F18BF70
:10136000002202D010BC10467047002B04BF436817
:1013700023F4684309D0D1F808C043EA0C03D0F83D
:1013800004C02CF4684C43EA0C034360D1E9033CED
:1013900043EA0C03D0F808C0084C0CEA040C0C68B3
:1013A00004F070644CEA040C43EA0C03836049685F
:1013B000C36A23F470031943C162D3E7FDFCFFC085
:1013C00030B44FF0010C01F01001536805680CFABD
:1013D00001F4AC4308BF4FF0000C1BD07BB1146884
:1013E0002343D2E9024222431A4303688A4040F66B
:1013F000FA7404FA01F123EA0101114309E00368D8
:10140000FA248C40A3431468D268224302FA01F103
:101410001943016030BC6046704700002DE9F001BF
:101420000A6892FAA2F3B3FA83F3DA4071D0012585
:101430004FF0030C5FF00F040A6805FA03F6324020
:101440007DD04E68076892FAA2F8B8FA88F84FEA99
:1014500048080CFA08F827EA080792FAA2F8B8FA3E
:1014600088F84FEA480806FA08F63E4306604E68D8
:10147000012E18BF022E16D18E68876892FAA2F844
:10148000B8FA88F84FEA48080CFA08F827EA08077B
:1014900092FAA2F8B8FA88F84FEA480806FA08F66D
:1014A00047EA060686600E69C76892FAA2F8B8FA9B
:1014B00088F84FEA48080CFA08F827EA080792FA71
:1014C000A2F8B8FA88F84FEA480806FA08F647EA98
:1014D0000606C6604E68022E31D192FAA2F6B6FA1E
:1014E00086F6082E4E6915D2076A92FAA2F8B8FA63
:1014F00088F84FEA880804FA08F892FAA2F2B2FAD9
:1015000082F2920027EA080706FA02F23A430262E0
:1015100015E019E0476A120A92FAA2F8B8FA88F8B8
:101520004FEA880804FA08F892FAA2F2B2FA82F2B4
:10153000920027EA080706FA02F23A4342620A6872
:101540005B1CDA407FF478AF4A68012A18BF022A90
:1015500009D10A68C968436802FB01F123EA020362
:1015600043EA01014160BDE8F0014FF0010070471E
:101570004FF47A71B0FBF1F0411E4FF0E020416171
:10158000002181610521016170470000234A10B4E8
:10159000116811F00C03224922D04FEA610C042B90
:1015A00008BF61461CD0082B1AD11E4B1C6814F4CE
:1015B000800403D0B4F5800F08BF6146D3F800C0A3
:1015C0000CF03F0CB1FBFCFC19681B68C1F38811DF
:1015D0000CFB01F1C3F301435B1C5B00B1FBF3F1B6
:1015E00001601368DFF840C003F0F0031B091CF82A
:1015F0000330D94041601368C3F3822C0B4B13F8BE
:101600000CC021FA0CFCC0F808C01268C2F34232C8
:101610009A5CD140C16010BC70470000083802409D
:101620000024F4000438024038BD020848BD020816
:101630000368002213F0400F27D1D1E900231A4399
:10164000D1E9023C43EA0C031A430B691A434B6984
:101650001A438B691A43CB691A430B6A1A4303680E
:1016600023F0BF0323F47F431A43026042684B69AF
:1016700022F0040242EA134242600A6AB2F5005FB5
:1016800002D1898C89B201610122C16921F4006112
:10169000C1611046704700000149086070470000B2
:1016A0004C000010F0B402682C4B2D4C2D4D2E4EEA
:1016B000DFF8B8C0984218BFB0F1804F07D0A04201
:1016C00018BFA84203D0B04218BF604504D14F688C
:1016D00022F0700242EA0702984218BFB0F1804F30
:1016E00025D0A04218BFA84221D0B04218BF604503
:1016F0001DD0A0F18044B4F5A0341CBFA0F18044FB
:10170000B4F5A23413D0A0F18044B4F5A4341CBFC6
:10171000A0F18044B4F5C05409D0A0F18044B4F5E0
:10172000E0541CBFA0F18044B4F5005403D1CC6850
:1017300022F44072224302608A68C2620A8882628E
:10174000984212BF6045097C0163416941F0010183
:101750004161F0BC4FF00100704700000000014003
:101760000004004000080040000C0040000401405C
:10177000F0B400250123DFF8B8C16E4C012909D06F
:1017800010293BD0B1F5807F71D0B1F5805F6DD06D
:1017900000F0CAB8016A21F001010162056A4168DE
:1017A0008669176826F073063E43176925F002051F
:1017B0003D43576825F001053D43604518BFA042F1
:1017C00015D1546925F0080C4CEA840C94682CF06F
:1017D000040C4CEA8405D2F818C021F4807141EA67
:1017E0000C01D2F81CC021F4007141EA4C014160A7
:1017F0008661D168416305621D4695E0016A21F06A
:1018000010010162056A41688669176826F4E64698
:1018100046EA0726176925F0200545EA07155768A7
:1018200025F0100545EA0715604518BFA04215D1FF
:10183000546925F0800C4CEA841C94682CF0400C10
:101840004CEA8415D2F818C021F4806141EA8C0179
:10185000D2F81CC021F4006141EACC0141608661EC
:10186000D168816305621D465EE000E036E0016AF2
:1018700021F480710162056A4168C669176826F023
:10188000730646EA0706176925F4007545EA072539
:10189000576825F4807545EA0725604518BFA042C2
:1018A00015D1546925F4006C4CEA842C94682CF40E
:1018B000806C4CEA8425D2F818C021F4805141EAAA
:1018C0000C11D2F81CC021F4005141EA4C114160C6
:1018D000C661D168C16305621D4625E0016A21F435
:1018E00080510162056A4168C669176826F4E646B8
:1018F00046EA0726176925F4005545EA0735576873
:1019000025F4805545EA0735604518BFA04205D14A
:10191000D2F818C021F4804141EA8C114160C661BF
:10192000D168016405621D462846F0BC704700007E
:1019300000000140000401402DE9F0410446C06868
:1019400084B00D46002610F4005F7DD1E968686818
:10195000AA690843296911430843E16821F4037126
:1019600021F414410843E060A868216921F4405142
:10197000084320616869616921F44071084360612E
:101980006846FFF703FEA4F18040B0F5883019D017
:10199000A4F18040B0F588401CBFA4F18040B0F5B0
:1019A000904011D0A4F18040B0F58A300AD0A4F163
:1019B0008040B0F598401CBFA4F18040B0F5A04035
:1019C00002D04BE0039800E0029800281CBF2B686F
:1019D000002B43D0D5F818C03D49BCF5004F00EBB3
:1019E000C00C4FF001064FF032020CEB001039D062
:1019F0009B00B0FBF3FCA1FB0C7CB0FBF3F54FEAC2
:101A00005C1C6FF018070CFB07FC05EB8C0C02EB61
:101A10000C1CA1FB0C5C4FEA5C1C0CF0F005B0FB4D
:101A2000F3FCA1FB0C7C4FEA5C1C05EB0C1CB0FB2F
:101A3000F3F5B0FBF3F0A1FB003040096FF01803A1
:101A4000584305EB800000E008E002EB0010A1FB2A
:101A50000010C0F34310604480B2A06004B0304670
:101A6000BDE8F0815B00B0FBF3FCA1FB0C5C4FEA2E
:101A70005C1C4FEA0C15B0FBF3FCA1FB0C8CB0FB1B
:101A8000F3F74FEA5C1C6FF018080CFB08FC07EB3F
:101A90008C0C02EBCC0CA1FB0C7C4FEA5C1C0CF018
:101AA000F80C05EB4C0CB0FBF3F5B0FBF3F0A1FB2D
:101AB0000030400900FB08F005EB800002EBC0009D
:101AC000A1FB0010C0F34210604480B2A060C5E7E3
:101AD0001F85EB51F0B593B000241294109411942B
:101AE000009403940494A848019402940D940E94D5
:101AF0000F940C94089409940A940B94016841F48F
:101B000080710160006800F4807005909F48016852
:101B100041F001010160006806A900F00100059094
:101B20000F200690032007909948FFF777FC9A480A
:101B3000984902788A58037822F06062CA50027885
:101B40008A58037822F0C002CA5002788A58037873
:101B500022F44032CA5002788A58037822F49072F4
:101B6000CA5002788A58037822F40072CA50027868
:101B70008A58037842F48062CA5002788A580378FF
:101B800022F4C05242F40062CA5002788A580378A4
:101B900022F4C04242F40052CA5002787F495158A0
:101BA0007E4821F00401115080151094CDE91140B8
:101BB0007B4D10A92846FFF7ADFB4FF440160220DD
:101BC000CDE90240CDE9004630130490694628462D
:101BD000FFF7BEFBA86840F48060A860686820F04A
:101BE000200068604FF48030CDE90C040CA96D48EA
:101BF000FFF760FB6815311391FAA1F1B1FA81F199
:101C000020FA01F105EB8101CA6A22F01F02CA62C3
:101C1000010491FAA1F2B2FA82F2D14005EB8103FC
:101C20004FF0F87191FAA1F2B2FA82F224FA02F7B7
:101C30000722D3F80CC002FA07F72CEA070C91FA36
:101C4000A1F7B7FA87F7FC4002FA04F44CEA040C57
:101C5000C3F80CC0331393FAA3F3B3FA83F320FA57
:101C600003F305EB830391FAA1F4D3F82CC0B4FA83
:101C700084F42CF4787C4CF0200CC3F82CC00304C2
:101C800093FAA3FCBCFA8CFC23FA0CF305EB830358
:101C900026FA04F4D3F80CC002FA04F42CEA040C7B
:101CA00091FAA1F4B4FA84F426FA04F402FA04F4E2
:101CB0004CEA040CC3F80CC0331393FAA3F3B3FA41
:101CC00083F320FA03F305EB830391FAA1F6D3F82B
:101CD0002CC0B6FA86F62CF4F84C4CF4006CC3F821
:101CE0002CC0030493FAA3FCBCFA8CFC23FA0CF37B
:101CF00005EB83034FF4C00C2CFA06FCDC6802FAF7
:101D00000CFC24EA0C0491FAA1F64FF4C00CB6FACC
:101D100086F62CFA06FC02FA0CFC44EA0C0CC3F81A
:101D20000CC04FF4407393FAA3F3B3FA83F3D84093
:101D300005EB800091FAA1F4C36AB4FA84F423F4A9
:101D4000782343F4C033C3624FF0007090FAA0F3DD
:101D5000B3FA83F3D840EB0105EB800091FAA1F1CF
:101D600023FA04F4D0F80CC0B1FA81F102FA04F4B9
:101D700023FA01F12CEA040C02FA01F14CEA010108
:101D8000C16013B0F0BD000044380240303802405A
:101D900000000240006402404DD800081464024074
:101DA000002001400023014010B58CB000244048C1
:101DB000019402940394009406940794089409945F
:101DC000016841F000510160006800F000500A9085
:101DD0003848016841F001010160006804A900F081
:101DE00001000A9010200490032005903248FFF76C
:101DF00015FB3348314942798A58437942F0606291
:101E0000CA5042798A58437922F0C00242F0400217
:101E1000CA5042798A58437922F44032CA504279F2
:101E20008A58437922F49072CA5042798A58437989
:101E300022F40072CA5042798A58437942F480628F
:101E4000CA5042798A58437922F4C05242F400625F
:101E5000CA5042798A58437922F4C04242F400526F
:101E6000CA50427917495258407922F00402425030
:101E700015480068C0F30220011D072934BF002067
:101E8000C01E04FA00F01149000181F80004104955
:101E90004FF48000C1F800013820CDE900046A4603
:101EA0000C490D480394FFF78BFA0CB010BD0000ED
:101EB00040380240303802400000024000600240DA
:101EC00055D80008146002400CED00E036E000E058
:101ED00004E000E00100100200740040F8B556482C
:101EE000016841F400110160016801F400110091E2
:101EF000016841F4800101600068504C00F48000EA
:101F000000902068C0F30220011D072934BF002083
:101F1000C01E00254A4905FA00F0000181F80004BE
:101F20004FF0E0214FF48040C1F800012068C0F379
:101F30000220021D072A34BF0020C01E05FA00F04F
:101F4000404A000182F800044FF40040C1F800014B
:101F50002068C0F30220021D072A34BF0020C01EE3
:101F600005FA00F0384A000182F80004102210033C
:101F7000C1F800012068C0F30220031D072B34BF05
:101F80000020C01E05FA00F0304B000183F8000469
:101F90004FF40030C1F800012068C0F30220011D99
:101FA000072934BF0020C01E05FA00F028490001AF
:101FB00081F8000427494FF08070C1F800012068C3
:101FC000C0F30220031D072B34BF0020C01E05FAFA
:101FD00000F0214B000183F800044FF08060C1F84D
:101FE00000012068C0F30220011D072934BF002032
:101FF000C01E05FA00F01949000181F80004184ECE
:10200000C6F80021002211464520FEF7F7FD4520C5
:10201000FEF7E8FD2068C0F30220011D072934BF48
:102020000020C01E05FA00F00E49000181F80004EE
:102030004020C6F80001F8BD303802400CED00E049
:102040000EE000E00FE000E010E000E011E000E052
:1020500038E000E004E000E03AE000E044E000E0C6
:1020600008E000E046E000E0F0B587B00024414819
:102070000194029403940594016841F010010160F9
:10208000016801F010010691016841F0040101604E
:10209000016801F004010691016841F080010160CE
:1020A000016801F080010691016841F001010160C1
:1020B000016801F001010691016841F0020101602F
:1020C000016801F002010691016841F00801016018
:1020D0000068294900F0080006904FF4401008609D
:1020E00026494FF07F4008604FF6FF7001260090B0
:1020F000694604962248FFF791F94EF2CF00032576
:10210000CDE900051F4F694604943846FFF786F96C
:1021100030200090CDE90164039469463846049468
:10212000FFF77CF941F63F70CDE90005694604945C
:102130001548FFF773F94FF47F400090CDE9016433
:10214000124E0394694630460494FFF767F94FF442
:102150001F40CDE90005694604940D48FFF75EF97C
:102160009B20CDE90005694604943046FFF756F9F7
:1021700007B0F0BD3038024018080240180C024089
:10218000001002400008024000040240000C02401F
:10219000000002400F4810B50D4901600021416068
:1021A0008160C160016141618161FEF7F5FE002837
:1021B00018BFFEF7EEF94FF400610648FEF762FD26
:1021C000002808BF10BDBDE81040FEF7E2B90000CE
:1021D000002C0140906F001010B592B000240394C1
:1021E000049454480094019402940894099405942A
:1021F000069407940D940E94016841F48051016097
:10220000006800F4805010904B48016841F00101D3
:10221000016000680AA900F001001090A0200A9057
:1022200002200B9003200C9005200F904348FFF7ED
:10223000F5F84448424942798A58437922F060626D
:1022400042F0C062CA5042798A58437922F0C002F3
:1022500042F04002CA5042798A58437942F44032EF
:10226000CA5042798A58437922F49072CA5042790E
:102270008A58437922F40072CA5042798A584379C5
:1022800042F48062CA5042798A58437922F4C0529B
:10229000CA5042798A58437922F4C042CA504379DD
:1022A000294A9B5890F805C043F004034CF80230CB
:1022B00043799B5890F805C043F003034CF8023073
:1022C00042798A58437942F0C072CA5042798A589A
:1022D000407922F4C0020A501C480068C0F3022072
:1022E000011D072934BF0020C01E04FA00F0184960
:1022F000000181F8000417490820C1F800014FF4DB
:102300008270CDE900404FF40070CDE904400394A1
:102310000A20CDE908400294069407940E4C6946C1
:102320002046FFF785F9606820F01000606012B069
:1023300010BD000044380240303802400000024026
:10234000006402405DD80008146402400CED00E017
:1023500023E000E004E000E00030014010B592B05E
:102360000024039404946C4800940194029408940B
:1023700009940594069407940D940E94016841F411
:1023800080410160006800F480401090634801685B
:1023900041F00201016000680AA900F002001090FB
:1023A0004FF460400A9002200B9003200C9005200F
:1023B0000F905B48FFF732F85B485A49C2788A5859
:1023C000C37822F06062CA50C2788A58C37822F07B
:1023D000C002CA50C2788A58C37822F44032CA5028
:1023E000C2788A58C37822F49072CA50C2788A5848
:1023F000C37822F40072CA50C2788A58C37842F473
:102400008062CA50C2788A58C37822F4C052CA5037
:10241000C2788A58C37822F4C042CA50C378434A6B
:102420009B5890F803C023F004034CF80230037962
:10243000CB5890F804C023F0606341F80C30037966
:10244000CB5890F804C023F0C00343F0400341F898
:102450000C300379CB5890F804C023F4403341F892
:102460000C300379CB5890F804C023F4907341F8F2
:102470000C300379CB5890F804C023F4007341F872
:102480000C300379CB5890F804C043F4806341F8D2
:102490000C300379CB5890F804C023F4C05341F8B2
:1024A0000C300379CB5890F804C023F4C04341F8B2
:1024B0000C3001798958007921F0040181501C48C1
:1024C0000068C0F30220011D072934BF0020C01E90
:1024D00004FA00F01749000181F8000416491020A1
:1024E000C1F800014FF48270CDE900404FF4007054
:1024F000CDE9044003940A20CDE9084002940694F3
:1025000007940E4C69462046FFF792F8606820F069
:102510001000606012B010BD4038024030380240F8
:1025200000040240006002405DD8000814600240D0
:102530000CED00E024E000E004E000E000380040A2
:1025400000B587B000210B480091019102910391E1
:102550000491026842F400320260006800F4003026
:102560000590ADF8001069460348FFF79BF807B0E7
:1025700000BD0000443802400044014000B587B06F
:1025800000210B480091019102910391049102688E
:1025900042F480220260006800F480200590ADF8CB
:1025A000001069460348FFF77DF807B000BD000042
:1025B000443802400048014010B586B000210E4862
:1025C00000910191029103910491026842F040024E
:1025D00002600068094C00F040000590ADF8001062
:1025E00069462046FFF75EF8A06820F0070020F457
:1025F0008040A06006B010BD403802400018004086
:102600002DE9F04194B000240F9410941194129489
:102610000E94009401940294039433480494059416
:1026200006940794089409940A940B940C940D94BE
:10263000016841F080010160006800F080001390A3
:102640002A480068C0F30220011D072934BF00207A
:10265000C01E04FA00F02649000181F80004254953
:102660004FF480500427C1F80001DFF88C80ADF8EA
:1026700038400EA94046FFF715F82048214E0822A1
:1026800001781F480D183178286802FA01F10843D3
:1026900028606020CDE90004029403946A46012179
:1026A00040460494FFF764F83178286807FA01F18E
:1026B000884328601448016841F001010160006806
:1026C00008A900F001001390402008900220CDE9F5
:1026D00009040920CDE90C400B940C48FEF79EFE3E
:1026E00014B0BDE8F0810000403802400CED00E07D
:1026F0002CE000E004E000E0001C004065D8000889
:10270000181C00406CD8000830380240000002401D
:1027100000B587B000210B4800910191029103910F
:102720000491026842F480720260006800F48070D4
:102730000590ADF8001069460348FEF7B3FF07B0F7
:1027400000BD0000403802400020004010B586B0B7
:1027500000211B48009101910291039104910268AC
:1027600042F010020260006800F010000590154869
:102770000068C0F30220021D072A34BF0020C01EDB
:1027800001FA00F01049000181F800040F494FF4EC
:102790008000C1F800015320ADF8000044F21A1087
:1027A0000B4C029069462046FEF77CFF606820F0E3
:1027B00070006060A06820F08000A06006B010BDCE
:1027C000403802400CED00E036E000E004E000E0BC
:1027D0000010004010B586B000210F480091019113
:1027E000029103910491026842F0200202600068A5
:1027F0000A4C00F020000590ADF800106946204614
:10280000FEF750FF606820F070006060A06820F064
:102810008000A06006B010BD4038024000140040A7
:1028200010B586B000210E480091019102910391EC
:102830000491026842F4803202600068094C00F49E
:1028400080300590ADF8001069462046FEF72AFF5B
:10285000A06820F0070020F48040A06006B010BD02
:10286000443802400040014010B58EB0002401946D
:102870006E480094069402940394049405940B9477
:10288000016841F010010160006800F0100007903D
:102890006748016841F002010160006808A900F082
:1028A00002000790C02008900220099003200A909F
:1028B00001200C9007200D905E48FEF7AFFD5F48A9
:1028C0005D49C2798A58C37922F0606242F00062A1
:1028D000CA50C2798A58C37922F0C00242F040023D
:1028E000CA50C2798A58C37922F44032CA50C27998
:1028F0008A58C37922F49072CA50C2798A58C3792F
:1029000022F40072CA50C2798A58C37942F48062B4
:10291000CA50C2798A58C37922F4C052CA50C279C7
:102920008A58C37922F4C042CA50C379444A9B589A
:1029300090F807C023F004034CF802308378CB589A
:1029400090F802C023F0606343F0006341F80C305C
:102950008378CB5890F802C023F0C00341F80C30C4
:102960008378CB5890F802C023F4403341F80C3000
:102970008378CB5890F802C023F4907341F80C3060
:102980008378CB5890F802C023F4007341F80C30E0
:102990008378CB5890F802C043F4806341F80C3040
:1029A0008378CB5890F802C023F4C05341F80C3020
:1029B0008378CB5890F802C023F4C04341F80C3020
:1029C00081788958807821F0040181501D48006881
:1029D000C0F30220011D072934BF0020C01E04FAE5
:1029E00000F01949000181F8000418492020C1F8BD
:1029F00000014FF4E130CDE900040C200294CDE950
:102A0000034005940694124C69462046FEF794FF55
:102A1000206920F490402061606920F02A00606104
:102A2000E06840F40050E0600EB010BD4438024051
:102A300030380240000402400064024073D80008AD
:102A4000146402400CED00E025E000E004E000E04A
:102A50000010014010B58EB0002401944948009444
:102A6000069402940394049405940B94016841F431
:102A700000310160006800F40030079042480168AE
:102A800041F008010160006808A900F00800079003
:102A9000602008900220099003200A9001200C90E9
:102AA00007200D903948FEF7B9FC3A483849827939
:102AB0008A58837922F0606242F00062CA508279BB
:102AC0008A58837922F0C00242F04002CA508279CB
:102AD0008A58837922F44032CA5082798A5883799D
:102AE00022F49072CA5082798A58837922F4007253
:102AF000CA5082798A58837942F48062CA508279B6
:102B00008A58837922F4C052CA5082798A588379CC
:102B100022F4C042CA5082791F495258807922F06B
:102B2000040242501D480068C0F30220011D07291D
:102B300034BF0020C01E04FA00F01949000181F8DA
:102B4000000418494020C1F800014FF4E130CDE9FC
:102B500000040C200294CDE9034005940694124C25
:102B600069462046FEF7E8FE206920F49040206187
:102B7000606920F02A006061E06840F40050E06085
:102B80000EB010BD4038024030380240000C024008
:102B90000060024073D80008146002400CED00E0B1
:102BA00026E000E004E000E000440040FEE770475B
:102BB00070470A6842624A688262D1E902231A4376
:102BC000D1E9043119431143C26A22F0F7021143DB
:102BD000C16200207047006800F00300704781B0B8
:102BE000084414300090006801B0704730B41143BD
:102BF000DDE9024543EA04021143DDF810C0294330
:102C0000426841EA0C0122F0FF0222F4FC42114327
:102C1000416030BC002070470321016000207047F4
:102C2000D0F8800070478160C26840F277416FF34E
:102C30000B021143C16041F28832372100F064B9C0
:102C400041F4801141F0004100228160C16840F2EE
:102C500069436FF30B011943C1600E494FF4FA53F6
:102C60000968B1FBF3F141F288335943491E03D29D
:102C70004FF0004210467047436B13F0450FF5D0FC
:102C8000416B11F0040F07BF40F2FF518163042232
:102C90008263EFE74C0000108160C1686FF30B01A5
:102CA00041F48A61C16041F28832102100F02CB9F0
:102CB0008160C26840F246416FF30B021143C1606C
:102CC00041F28832062100F01FB900000023836022
:102CD000C1686FF30B0141F48061C1600B494FF48F
:102CE000FA520968B1FBF2F141F288325143491EB0
:102CF00002D24FF0004306E0426B12F0800FF6D094
:102D000040F2FF5181631846704700004C000010EC
:102D10004FF4D5714FF0400C00228160C1686FF311
:102D20000B0141F48961C16010494FF4FA530968FD
:102D3000B1FBF3F141F288335943491E02D24FF0FF
:102D4000004211E0436B13F0450FF6D0416B11F0D8
:102D5000040F1CBFC0F838C0042205D1416B11F02C
:102D6000400F18BFC0F838C0104670474C00001024
:102D70008260C26840F247416FF30B021143C160A9
:102D800041F28832072100F0BFB8000000228260C3
:102D9000C16840F2C2436FF30B011943C16012498D
:102DA0004FF4FA530968B1FBF3F141F28833594308
:102DB000491E02D24FF000420AE0436B13F0450F68
:102DC000F6D0416B11F0040F18BF042202D08263C9
:102DD00010467047416B11F0010F12BF012240F203
:102DE000FF518163F3D1F3E74C00001000228160B2
:102DF000C16840F2C9436FF30B011943C160124926
:102E00004FF4FA530968B1FBF3F141F288335943A7
:102E1000491E02D24FF000420AE0436B13F0450F07
:102E2000F6D0416B11F0040F18BF042202D0826368
:102E300010467047416B11F0010F12BF012240F2A2
:102E4000FF518163F3D1F3E74C0000100021816052
:102E5000C16840F273426FF30B011143C16041F24C
:102E60008832332100F050B838B400248460C3683D
:102E700040F243426FF30B031A43C260214A4FF4FE
:102E8000FA5303251268B2FBF3F241F2883353433D
:102E90005B1E02D24FF0004229E0426B12F0450F58
:102EA000F6D0426B12F0040F1CBF042282631ED1C5
:102EB000426B12F0010F4FF0010218BF826316D16E
:102EC0000369DBB2AB4212D140F2FF52826314308D
:102ED00000900068224610F4604F04BF000C088088
:102EE00005D010F4804F18BF4FF4005202D038BC08
:102EF0001046704710F4004F14BF4FF480524FF447
:102F00008032F4E74C0000105A4B4FF4FA5C81B069
:102F10001B68B3FBFCF35A43521E03D24FF0004030
:102F200001B07047436B13F0450FF5D0426B12F0C0
:102F3000040F04D004218163084601B07047426B3E
:102F400012F0010F04D001218163084601B07047DF
:102F50000269D2B28A421EBF012001B0704740F21E
:102F6000FF5181631430009000684349084202BF5A
:102F7000002001B0704710F0004F1EBF4FF00070EE
:102F800001B0704710F0804F1EBF402001B0704765
:102F900010F0005F1EBF802001B0704710F0805F0E
:102FA0001EBF4FF4807001B0704710F0006F1EBF5D
:102FB0004FF4007001B0704710F0806F1EBF4FF4E7
:102FC000806001B0704710F0807F1EBF4FF400603A
:102FD00001B0704710F4000F1EBF4FF4805001B0D5
:102FE000704710F4800F1EBF4FF4005001B07047BF
:102FF00010F4001F1EBF4FF4804001B0704710F462
:10300000801F1EBF4FF4004001B0704710F4802FA6
:103010001EBF4FF4003001B0704710F4003F1EBFD8
:103020004FF4802001B0704710F4803F1EBF4FF472
:10303000002001B0704710F4004F1EBF4FF4801005
:1030400001B0704710F4804F1EBF4FF4001001B064
:10305000704710F4005F1EBF4FF4800001B070474E
:1030600010F0080F14BF4FF400004FF4803001B08F
:10307000704700004C00001008E0FFFD2DE9F04F04
:1030800089B00E460446FDF753FD0025074600951E
:103090000195A84608212068FFF7FEFD00281CBF07
:1030A00009B0BDE8F08FB4F8500001042068FFF7C4
:1030B000BAFD00281CBF09B0BDE8F08F4FF0FF300B
:1030C0004FF00809CDE9020930204FF0020ACDE99E
:1030D000040A0120CDE9068002A92068FFF769FDF6
:1030E0002068FFF7B3FE00281CBF09B0BDE8F08FD1
:1030F0002068406B40F22A4810EA080F08BFEB46F0
:1031000014D12068416B11F4001F04D0FFF788FD33
:103110004BF825006D1CFDF70BFDC01BB0F1FF3F08
:1031200023D02068406B10EA080FEAD02068416B7A
:1031300011F0080F1FBFC0F83890082009B0BDE893
:10314000F08F416B11F0020F1FBFC0F838A00220B2
:1031500009B0BDE8F08F416B11F0200F0AD020219B
:10316000816309B00846BDE8F08F09B04FF0004018
:10317000BDE8F08F40F2FF518163009800BA7060A3
:10318000019800BA306009B00020BDE8F08F7047A8
:1031900006484168491C416000210170816800298E
:1031A00008BF70478168491E816070471000001099
:1031B0002B4810B5016821F00F0141F005010160B5
:1031C00000682848016841F4804101602648016890
:1031D00041F480310160016811F4003FFBD02449C3
:1031E000224A0B68DFF88CC003EA0C031A430A601A
:1031F0000A6822F440320A60016841F0807101607F
:10320000016811F0007FFBD01B48016821F0F0013C
:103210000160016821F4E05141F4A05101600168AE
:1032200021F4604141F400410160016821F0030193
:1032300041F002010160016801F00C010829FAD196
:103240000E4C2046FEF794F94FF0E021086940F05B
:10325000040008612046BDE81040FEF71DBA0000DA
:10326000003C02400070004000380240085440001A
:10327000043802400080BFFF08380240007A030A89
:103280000F48016841F4700101600E48016841F087
:10329000010101600C4A00211160026822F4102231
:1032A00022F080720260031D084A1A60026822F44C
:1032B000802202600648016006495806086070478F
:1032C00088ED00E000380240083802401030002449
:1032D0000C38024008ED00E0FEE700000249CA8910
:1032E000088A921CCA817047080000200C48C189D6
:1032F000028A891CC1810B49C37951F823C0014658
:10330000BCF1040FCB78098A194406D1120AB2EB3A
:10331000112F02D0026A521C026288B2704700006C
:10332000080000207CD800080C48C189028A891C4A
:10333000C1810B49C37951F823C00146BCF1040F88
:103340000B79098A194406D1120AB2EB112F02D067
:10335000026A521C026288B2704700000800002016
:103360007CD8000810B5804700F4704109137D4CEB
:1033700010297DD2DFE801F008080D0D8FD2D2D2DE
:10338000D4D4D4D4DADADADA7749C0F30A00085CA4
:103390008EE000F00700082844D2DFE800F00407C0
:1033A0000A891F898927714800F0C4B86F4840789E
:1033B0007EE06E496E4B887820F080028A70002291
:1033C0001A706C4A1268153AF12A71D20A7812F012
:1033D000800F04BF22F003020A7069E0664991F889
:1033E0000021885C521C81F8002161E063490A8851
:1033F000887812F4704304BF4B689B5C18D0B3F517
:10340000805F10D0B3F5005F14D0B3F5405F18BFF4
:1034100000202ED0554B1B7813F0040F14BF203220
:10342000521C0A8044E08B68C2F30B0C13F80C307A
:103430008B70EFE7C2F30B03B3F5406F84BFD1F895
:1034400018C0A3F5406310D8B3F5006F84BFD1F85E
:1034500014C0A3F5006308D8B3F5806F86BFD1F818
:1034600010C0A3F58063D1F80CC01CF80330DFE76F
:103470001DE043F610739A4205D302F00F00084492
:1034800090F82C00C6E7B2F57C5FC3D302F00F00C2
:103490000844007FBEE7A0F58041163908BF002030
:1034A00039D0A0F58041173908BF012033D0000A78
:1034B0006179A378C0B201F001021844104400F110
:1034C0008002B2F5807F2CBF41F0400101F0BF01C6
:1034D0006171FF28C9B2CCBF41F0010101F0FE01CA
:1034E0006171C0B2C9B2A07011F0080F24D001F010
:1034F000FE0100F00F026171092A84BF801DA070D7
:10350000C0B200F0F002902A19D96030A07041F0EA
:103510000100607113E007F08DF9C9E70020C7E7EB
:10352000A1690844A0F500400078C1E7E1690844BA
:10353000A0F540400078BBE7206A401C2062A078DC
:103540006179002814BF01F0FD0141F002016171B1
:1035500010F0800FC8B214BF40F0800000F07F0070
:10356000607110BD080000202C040020280000100D
:10357000250000102C00001088FA01202CF80120F2
:1035800010B5804700F470410913634C10297CD2B8
:10359000DFE801F008080D0D8EB3B3B3B5B5B5B5CE
:1035A000BBBBBBBB5D49C0F30A00085C8DE000F00B
:1035B0000700082843D2DFE800F0040609881E88C7
:1035C00088265748A5E0564840787EE05449554B38
:1035D000887820F080028A7000221A70524A12689D
:1035E000153AF12A71D20A7812F0800F04BF22F046
:1035F00003020A7069E04D4991F80021885C521C71
:1036000081F8002161E04A490A88887812F4704301
:1036100004BF4B689B5C18D0B3F5805F10D0B3F546
:10362000005F14D0B3F5405F18BF00202ED03C4B94
:103630001B7813F0040F14BF2032521C0A8044E0A0
:103640008B68C2F30B0C13F80C308B70EFE7C2F3EE
:103650000B03B3F5406F84BFD1F818C0A3F54063E6
:1036600010D8B3F5006F84BFD1F814C0A3F5006380
:1036700008D8B3F5806F86BFD1F810C0A3F580637A
:10368000D1F80CC01CF80330DFE71DE043F61073DF
:103690009A4205D302F00F00084490F82C00C6E7C8
:1036A000B2F57C5FC3D302F00F000844007FBEE791
:1036B000A0F58041163908BF00201BD0A0F580413D
:1036C000173908BF012015D0000AA178C0B2084000
:1036D000A070617914BF01F0FD0141F00201617138
:1036E00010F0800FC8B214BF40F0800000F07F00DF
:1036F000607110BD07F09EF8E7E70020E5E7A169DB
:103700000844A0F500400078DFE7E1690844A0F52F
:1037100040400078D9E70000080000202C04002079
:1037200028000010250000102C00001088FA01204D
:103730002CF8012070B5804700F470410913FF4D4B
:10374000044610297CD2DFE801F008080D0D8EB484
:10375000B4B4B6B6B6B6BCBCBCBCF949C4F30A0036
:10376000085C8DE004F00700082843D2DFE800F091
:10377000040609881E888826F248A6E0F1484078A9
:103780007EE0F049F04B887820F080028A700022B9
:103790001A70EE4A1268153AF12A71D20A7812F0BC
:1037A000800F04BF22F003020A7069E0E84991F833
:1037B0000021885C521C81F8002161E0E5490A88FB
:1037C000887812F4704304BF4B689B5C18D0B3F543
:1037D000805F10D0B3F5005F14D0B3F5405F18BF21
:1037E00000202ED0D74B1B7813F0040F14BF2032CB
:1037F000521C0A8044E08B68C2F30B0C13F80C30A7
:103800008B70EFE7C2F30B03B3F5406F84BFD1F8C1
:1038100018C0A3F5406310D8B3F5006F84BFD1F88A
:1038200014C0A3F5006308D8B3F5806F86BFD1F844
:1038300010C0A3F58063D1F80CC01CF80330DFE79B
:103840001DE043F610739A4205D302F00F000844BE
:1038500090F82C00C6E7B2F57C5FC3D302F00F00EE
:103860000844007FBEE7A0F58041163908BF00205C
:103870001CD0A0F58041173908BF012016D0200ABE
:103880006979C0B201F0FE0141EAD01169714006C8
:10389000060E04F47041002209133046052980F019
:1038A0004081DFE801F014141A1AAA0006F0C2FFE2
:1038B000E6E70020E4E7A9690819A0F500400078D0
:1038C000DEE7E9690819A0F540400078D8E79C4A8E
:1038D000C4F30A01565400F024B904F00701082982
:1038E00080F01F81DFE801F00408880C111C2D37DF
:1038F00094490E7000F015B992494E7000F011B95C
:10390000934981F8006100F00CB9914991F80021C8
:103910008E5491F80001401C81F8000100F001B9BB
:1039200089490A78002A04BF8B4B1E7004D0EF2807
:1039300088BF0020894B187082F00100087000F0E9
:10394000F0B884490A7806EB022008807E480178A6
:1039500081F00101E4E07F4C218811F4704218BF2E
:10396000B2F5805F3FD0B2F5005F03D0B2F5405FA3
:1039700019D038E0C1F30B01B1F5406F84BFA269E3
:10398000A1F540610DD8B1F5006F84BF6269A1F562
:10399000006106D8B1F5806F86BF2269A1F580610C
:1039A000E26856541FE001F01F0201F00F010F2AD8
:1039B000214415D981F82C00217811F0030F12D180
:1039C000207784F82C0084F8200084F8300084F8F4
:1039D000240084F8340084F8280084F8380002E0D9
:1039E0000E7708F023F95748007810F0040F20886C
:1039F00014BF2030401C208093E0A4F5804114398E
:103A000004D0A4F5804116393DD08AE0296A020924
:103A1000A1F5007129620021102A18D2DFE802F016
:103A200008081717171781810C0C0C0C12121212B0
:103A3000434901EB06210AE0A96901EB0620A0F544
:103A4000004104E0E96901EB0620A0F54041404B4C
:103A5000581A002804DDB0F5807FB8BF002005DBD0
:103A60004FF480723A48FCF731FC5AE00A5C1A5471
:103A70000A1892F801C01A18801C82F801C0B0F52B
:103A8000807FF3DB4DE0310049D035480270354886
:103A90000069C04382B234480388B3F5406F94BFD5
:103AA0004FF0000C4FF0010C42EA0C42B3F5806F6E
:103AB00034BF0123002342EA43424388B3F5406FF9
:103AC0008CBF4FF0010C4FF0000C42EA8C42B3F572
:103AD000806F34BF0123002342EAC343C288B2F59A
:103AE000406F8CBF4FF0010C4FF0000C43EA0C53B9
:103AF000B2F5806F34BF0122002243EA425280882F
:103B0000B0F5406F8CBF0123002342EA8352B0F529
:103B1000806F34BF0120002042EAC0506861134822
:103B200001706879002E14BF00F0FD0040F0020023
:103B3000687116F0800FC0B21AE000000800002083
:103B40002C04002028000010250000102C0000107C
:103B500088FA01202CF80120270000102600001010
:103B6000110000200010024000000020130000207F
:103B700014BF40F0800000F07F00687170BD00004D
:103B800010B5804700F470410913604C10297CD2B5
:103B9000DFE801F008080D0D8EAEAEAEB0B0B0B0EB
:103BA000B6B6B6B65A49C0F30A00085C8DE000F01C
:103BB0000700082843D2DFE800F0040609881E88C1
:103BC00088265448A0E0534840787EE05149524B43
:103BD000887820F080028A7000221A704F4A12689A
:103BE000153AF12A71D20A7812F0800F04BF22F040
:103BF00003020A7069E04A4991F80021885C521C6E
:103C000081F8002161E047490A88887812F47043FE
:103C100004BF4B689B5C18D0B3F5805F10D0B3F540
:103C2000005F14D0B3F5405F18BF00202ED0394B91
:103C30001B7813F0040F14BF2032521C0A8044E09A
:103C40008B68C2F30B0C13F80C308B70EFE7C2F3E8
:103C50000B03B3F5406F84BFD1F818C0A3F54063E0
:103C600010D8B3F5006F84BFD1F814C0A3F500637A
:103C700008D8B3F5806F86BFD1F810C0A3F5806374
:103C8000D1F80CC01CF80330DFE71DE043F61073D9
:103C90009A4205D302F00F00084490F82C00C6E7C2
:103CA000B2F57C5FC3D302F00F000844007FBEE78B
:103CB000A0F58041163908BF002016D0A0F580413C
:103CC000173908BF012010D0000AA178C0B20842FD
:103CD000617914BF01F0FD0141F0020101F03F01E3
:103CE00000F0C0000843607110BD06F0A3FDECE7D2
:103CF0000020EAE7A1690844A0F500400078E4E765
:103D0000E1690844A0F540400078DEE708000020A3
:103D10002C04002028000010250000102C000010AA
:103D200088FA01202CF8012010B5804700F470417A
:103D30000913684C10297CD2DFE801F008080D0D4A
:103D40008EBEBEBEC0C0C0C0C6C6C6C66249C0F335
:103D50000A00085C8DE000F00700082843D2DFE885
:103D600000F0040609881E8888265C48B0E05B489D
:103D700040787EE059495A4B887820F080028A705A
:103D800000221A70574A1268153AF12A71D20A783D
:103D900012F0800F04BF22F003020A7069E052495A
:103DA00091F80021885C521C81F8002161E04F49A4
:103DB0000A88887812F4704304BF4B689B5C18D063
:103DC000B3F5805F10D0B3F5005F14D0B3F5405F5A
:103DD00018BF00202ED0414B1B7813F0040F14BFE6
:103DE0002032521C0A8044E08B68C2F30B0C13F89B
:103DF0000C308B70EFE7C2F30B03B3F5406F84BF59
:103E0000D1F818C0A3F5406310D8B3F5006F84BF94
:103E1000D1F814C0A3F5006308D8B3F5806F86BF4E
:103E2000D1F810C0A3F58063D1F80CC01CF80330A2
:103E3000DFE71DE043F610739A4205D302F00F004E
:103E4000084490F82C00C6E7B2F57C5FC3D302F0BB
:103E50000F000844007FBEE7A0F58041163908BF77
:103E6000002026D0A0F58041173908BF012020D0BE
:103E7000000AA178C0B2081A00F580706179FF28A5
:103E8000CCBF41F0010101F0FE01617110F0FF00B3
:103E9000C9B214BF01F0FD0141F00201617110F0DF
:103EA000800FC8B214BF40F0800000F07F00607146
:103EB00010BD06F0BFFCDCE70020DAE7A16908448A
:103EC000A0F500400078D4E7E1690844A0F540403F
:103ED0000078CEE7080000202C0400202800001005
:103EE000250000102C00001088FA01202CF8012079
:103EF00010B5804700F470410913684C10297CD23A
:103F0000DFE801F008080D0D8EBEBEBEC0C0C0C007
:103F1000C6C6C6C66249C0F30A00085C8DE000F060
:103F20000700082843D2DFE800F0040609881E884D
:103F300088265C48B0E05B4840787EE059495A4B9F
:103F4000887820F080028A7000221A70574A12681E
:103F5000153AF12A71D20A7812F0800F04BF22F0CC
:103F600003020A7069E0524991F80021885C521CF2
:103F700081F8002161E04F490A88887812F4704383
:103F800004BF4B689B5C18D0B3F5805F10D0B3F5CD
:103F9000005F14D0B3F5405F18BF00202ED0414B16
:103FA0001B7813F0040F14BF2032521C0A8044E027
:103FB0008B68C2F30B0C13F80C308B70EFE7C2F375
:103FC0000B03B3F5406F84BFD1F818C0A3F540636D
:103FD00010D8B3F5006F84BFD1F814C0A3F5006307
:103FE00008D8B3F5806F86BFD1F810C0A3F5806301
:103FF000D1F80CC01CF80330DFE71DE043F6107366
:104000009A4205D302F00F00084490F82C00C6E74E
:10401000B2F57C5FC3D302F00F000844007FBEE717
:10402000A0F58041163908BF002026D0A0F58041B8
:10403000173908BF012020D0000AE178C0B2081A61
:1040400000F580706179FF28CCBF41F0010101F0DB
:10405000FE01617110F0FF00C9B214BF01F0FD0153
:1040600041F00201617110F0800FC8B214BF40F03E
:10407000800000F07F00607110BD06F0DBFBDCE724
:104080000020DAE7A1690844A0F500400078D4E7F1
:10409000E1690844A0F540400078CEE70800002020
:1040A0002C04002028000010250000102C00001017
:1040B00088FA01202CF8012010B5804700F47041E7
:1040C0000913684C10297CD2DFE801F008080D0DB7
:1040D0008EBEBEBEC0C0C0C0C6C6C6C66249C0F3A2
:1040E0000A00085C8DE000F00700082843D2DFE8F2
:1040F00000F0040609881E8888265C48B0E05B480A
:1041000040787EE059495A4B887820F080028A70C6
:1041100000221A70574A1268153AF12A71D20A78A9
:1041200012F0800F04BF22F003020A7069E05249C6
:1041300091F80021885C521C81F8002161E04F4910
:104140000A88887812F4704304BF4B689B5C18D0CF
:10415000B3F5805F10D0B3F5005F14D0B3F5405FC6
:1041600018BF00202ED0414B1B7813F0040F14BF52
:104170002032521C0A8044E08B68C2F30B0C13F807
:104180000C308B70EFE7C2F30B03B3F5406F84BFC5
:10419000D1F818C0A3F5406310D8B3F5006F84BF01
:1041A000D1F814C0A3F5006308D8B3F5806F86BFBB
:1041B000D1F810C0A3F58063D1F80CC01CF803300F
:1041C000DFE71DE043F610739A4205D302F00F00BB
:1041D000084490F82C00C6E7B2F57C5FC3D302F028
:1041E0000F000844007FBEE7A0F58041163908BFE4
:1041F000002026D0A0F58041173908BF012020D02B
:10420000000A2179C0B2081A00F580706179FF2890
:10421000CCBF41F0010101F0FE01617110F0FF001F
:10422000C9B214BF01F0FD0141F00201617110F04B
:10423000800FC8B214BF40F0800000F07F006071B2
:1042400010BD06F0F7FADCE70020DAE7A1690844C0
:10425000A0F500400078D4E7E1690844A0F54040AB
:104260000078CEE7080000202C0400202800001071
:10427000250000102C00001088FA01202CF80120E5
:104280002DE9F041804700F470410913FA4C0546CE
:1042900010297CD2DFE801F008080D0D8EACACAC23
:1042A000AEAEAEAEB4B4B4B4F449C5F30A00085C23
:1042B0008DE005F00700082843D2DFE800F004068F
:1042C00009881E888826EE489EE0ED4840787EE00A
:1042D000EB49EC4B887820F080028A7000221A703B
:1042E000E94A1268153AF12A71D20A7812F0800F61
:1042F00004BF22F003020A7069E0E44991F800214A
:10430000885C521C81F8002161E0E1490A888878C4
:1043100012F4704304BF4B689B5C18D0B3F5805F08
:1043200010D0B3F5005F14D0B3F5405F18BF002084
:104330002ED0D34B1B7813F0040F14BF2032521C25
:104340000A8044E08B68C2F30B0C13F80C308B70BE
:10435000EFE7C2F30B03B3F5406F84BFD1F818C089
:10436000A3F5406310D8B3F5006F84BFD1F814C033
:10437000A3F5006308D8B3F5806F86BFD1F810C0ED
:10438000A3F58063D1F80CC01CF80330DFE71DE013
:1043900043F610739A4205D302F00F00084490F8D8
:1043A0002C00C6E7B2F57C5FC3D302F00F000844CF
:1043B000007FBEE7A0F58041163908BF002014D069
:1043C000A0F58041173908BF01200ED0280A401EF1
:1043D00005F4704700263913C0B2052980F04781E3
:1043E000DFE801F014141A1AB00006F023FAEEE721
:1043F0000020ECE7A1694819A0F500400078E6E745
:10440000E1694819A0F540400078E0E79B4AC5F310
:104410000A01505400F02BB905F00701082980F07B
:104420002681DFE801F004088E0C0E192833944928
:10443000087000F01CB99249487000F018B993490F
:1044400006E0924991F80021885491F80001401C3F
:1044500081F8000100F00BB98A490A78002A08BFE8
:104460008C4B03D0EF2888BF00208B4B187082F054
:10447000010000F0FBB886490A7800EB02200880B2
:104480008048017881F001010170F0E0DFF80082DE
:10449000B8F8001011F4704218BFB2F5805F45D033
:1044A000B2F5005F03D0B2F5405F1DD03EE0C1F32E
:1044B0000B01B1F5406F84BFD8F81820A1F5406119
:1044C00010D8B1F5006F84BFD8F81420A1F50061B1
:1044D00008D8B1F5806F86BFD8F81020A1F58061AB
:1044E000D8F80C20505421E001F01F0201F00F0118
:1044F0000F2A414417D981F82C0098F8001011F0C8
:10450000030F13D188F81C0088F82C0088F82000CD
:1045100088F8300088F8240088F8340088F82800EB
:1045200088F8380002E0087707F080FB54480078EC
:1045300010F0040FB8F8000014BF2030401CA8F899
:10454000000094E0A5F58042143A04D0A5F580421D
:10455000163A3DD08BE0216A0209A1F50071216273
:104560000021102A18D2DFE802F0080817171717E1
:1045700082820C0C0C0C12121212404901EB002129
:104580000AE0A16901EB0020A0F5004104E0E16927
:1045900001EB0020A0F540413C4A501A002804DD00
:1045A000B0F5807FB8BF002005DB4FF4807237483C
:1045B000FBF78CFE5BE00B5C13540B1802EB000C5A
:1045C0005B78801C8CF80130B0F5807FF3DB4EE027
:1045D000E8B332490E7032490969C9438AB2314998
:1045E0000B88B3F5406F94BF4FF0000C4FF0010CF7
:1045F00042EA0C42B3F5806F34BF0123002342EA44
:1046000043434A88B2F5406F8CBF4FF0010C4FF026
:10461000000C43EA8C43B2F5806F34BF01220022C4
:1046200043EAC242CB88B3F5406F8CBF4FF0010C18
:104630004FF0000C42EA0C52B3F5806F34BF0123F7
:10464000002342EA43528988B1F5406F00E00CE054
:104650008CBF0123002342EA8352B1F5806F34BF3F
:104660000121002142EAC15161610F4908703813EC
:10467000102872D21AE00000080000202C0400204C
:1046800028000010250000102C00001088FA0120DE
:104690002CF8012027000010260000101100002037
:1046A000001002400000002013000020DFE800F0AE
:1046B00008080D0D8DAFAFAFB1B1B1B1B7B7B7B796
:1046C0005A49C5F30A00085C8AE005F0070008288B
:1046D00042D2DFE800F0040609851D85852554488F
:1046E000A1E0534840787BE05149887820F080026F
:1046F0008A70504A1670504A1268153AF12A6FD2E1
:104700000A7812F0800F04BF22F003020A7067E0FB
:104710004A4991F80021885C521C81F800215FE031
:10472000474A1188907811F4704304BF53685B5C6A
:1047300019D0B3F5805F11D0B3F5005F15D0B3F594
:10474000405F18BF00202ED0394B1B7813F0040FA8
:1047500014BF2031491C118042E040E09368C1F34E
:104760000B0C13F80C309370EEE7C1F30B03B3F5A9
:10477000406F84BFD2F818C0A3F5406310D8B3F5DA
:10478000006F84BFD2F814C0A3F5006308D8B3F556
:10479000806F86BFD2F810C0A3F58063D2F80CC03A
:1047A0001CF80330DFE743F61073994205D301F09C
:1047B0000F00104490F82C00C6E7B1F57C5FC3D31E
:1047C00001F00F001044007FBEE7A5F580401638C9
:1047D0001AD0A5F58040173808BF012014D0280A48
:1047E000617910F0FF0014BF01F0FD0141F00201FA
:1047F000617110F0800FC8B214BF40F0800000F06B
:104800007F006071BDE8F08106F014F8E8E7002051
:10481000E6E7A0692844A0F500400078E0E7E069F9
:104820002844A0F540400078DAE700002C0400207E
:1048300028000010250000102C00001088FA01202C
:104840002CF8012010B5804700F470410913634C27
:1048500010297CD2DFE801F008080D0D8EB4B4B445
:10486000B6B6B6B6BCBCBCBC5D49C0F30A00085CB9
:104870008DE000F00700082843D2DFE800F00406CE
:1048800009881E8888265748A6E0564840787EE06A
:104890005449554B887820F080028A7000221A70A3
:1048A000524A1268153AF12A71D20A7812F0800F32
:1048B00004BF22F003020A7069E04D4991F800211B
:1048C000885C521C81F8002161E04A490A88887896
:1048D00012F4704304BF4B689B5C18D0B3F5805F43
:1048E00010D0B3F5005F14D0B3F5405F18BF0020BF
:1048F0002ED03C4B1B7813F0040F14BF2032521CF7
:104900000A8044E08B68C2F30B0C13F80C308B70F8
:10491000EFE7C2F30B03B3F5406F84BFD1F818C0C3
:10492000A3F5406310D8B3F5006F84BFD1F814C06D
:10493000A3F5006308D8B3F5806F86BFD1F810C027
:10494000A3F58063D1F80CC01CF80330DFE71DE04D
:1049500043F610739A4205D302F00F00084490F812
:104960002C00C6E7B2F57C5FC3D302F00F00084409
:10497000007FBEE7A0F58041163908BF00201CD09B
:10498000A0F58041173908BF012016D0000AA17890
:10499000484010F0FF00A070617914BF01F0FD01E4
:1049A00041F00201617110F0800FC8B214BF40F0F5
:1049B000800000F07F00607110BD05F03BFFE6E76E
:1049C0000020E4E7A1690844A0F500400078DEE794
:1049D000E1690844A0F540400078D8E708000020CD
:1049E0002C04002028000010250000102C000010CE
:1049F00088FA01202CF8012070B52A4C05462A4E71
:104A000020780023012815D1A079E189801EC0B249
:104A10003218401EA2F80111617982F80011A071CC
:104A200041F004006071E06900F54050B0F8FA0F01
:104A3000E0812370206A854231DDE189481CE081F4
:104A400001F470400013102823D2DFE800F00808BA
:104A5000222222220C220C0C0C0C17171717C1F360
:104A60000A00305CE071A0690844A0F500400278BB
:104A7000E27142782272B0F801002082E0690844B5
:104A8000A0F540400178E17141782172B0F8010051
:104A90002082E07900F00AF8206A8542CDDC401BD4
:104AA000206270BD080000202C04002070B58A4CE4
:104AB000802801F0178303DC802828BF70BD00E048
:104AC00004E18100794449688F4400001804000023
:104AD0004E0400005C0400005C040000620400005E
:104AE00086040000C00400005C040000040500000F
:104AF0001A050000260500005A05000066050000A2
:104B0000720500007E0500005C0400008A050000BC
:104B10009C050000A80500005C04000034070000AC
:104B200050070000900700005C040000D807000058
:104B3000E2070000EE0700005C04000048080000E7
:104B400054080000600800005C0400006C080000CD
:104B5000900800005C0400005C0400009C08000059
:104B6000CA080000F60800005C04000038090000D4
:104B700054090000600900005C0400009609000070
:104B8000A2090000AE0900005C040000BA090000A0
:104B9000E0090000EC0900005C040000780B000054
:104BA000A80B0000D80B00005C040000220C0000E1
:104BB000580C0000660C00005C040000880C00002B
:104BC000960C0000A40C00005C040000B20C000075
:104BD000DA0C00005C0400005C0400005C040000CF
:104BE000E80C0000140D00005C0400005C0D0000E7
:104BF000740D0000820D00005C040000B40D000084
:104C0000C20D0000D00D00005C040000DE0D0000AD
:104C1000EA0D0000F80D00005C0400005C040000D8
:104C2000860F0000B80F00005C040000FC0F0000BD
:104C30000C1000001A1000005C0400005C0400006E
:104C400032100000701000005C0400007E100000B4
:104C5000981000005C0400005C040000A610000036
:104C6000BC100000501100005C0400009C1100000A
:104C7000CA110000D81100005C04000020120000DE
:104C80002E1200003C1200005C0400004A120000DA
:104C900068120000761200005C0400009814000006
:104CA000B01400004A1500005C040000A4150000C8
:104CB000B4150000BE1500005C040000EC150000F7
:104CC000FA150000081600005C04000081387F28F7
:104CD00028BF70BD02E0000008000020810000BF76
:104CE000794449688F4400000E140000400200001F
:104CF000400200001C1400002E14000040140000AC
:104D000040020000521400007614000080140000DD
:104D100040020000A01400005E17000068170000A9
:104D2000400200008E1900009C190000AA19000022
:104D300040020000621C00007E1C00009A1C000063
:104D400040020000B61C0000D61C0000E41C00005D
:104D500040020000F01C0000FE1C00000C1D0000C2
:104D6000400200001A1D0000281D0000361D000032
:104D700040020000441D00006E1D0000981D000050
:104D800040020000C21D0000E21D0000F01D0000F6
:104D900040020000101E00001E1E00002C1E00001D
:104DA000400200003A1E0000481E0000561E00008F
:104DB000400200002220000052200000822000005B
:104DC00040020000B2200000C2200000D0200000FD
:104DD00040020000F0200000FE2000000C21000036
:104DE000400200001A2100002821000040020000BB
:104DF000400200003621000078210000BA210000A6
:104E000040020000E82100000C2200001A220000ED
:104E1000400200003E2200004C2200005A22000006
:104E20004002000068220000762200008422000078
:104E3000400200004002000058240000A0240000AE
:104E400040020000D4240000E4240000F22400000A
:104E500040020000400200000A2500001825000062
:104E6000400200002625000034250000400200001A
:104E70004002000042250000842500002426000096
:104E8000400200005226000076260000400200008A
:104E9000400200008426000092260000A0260000A8
:104EA00040020000AE260000BC260000CA2600001A
:104EB000400200004002000004290000AA2900006E
:104EC00040020000DE290000EE290000FC2900005D
:104ED00040020000400200002A2A0000382A000098
:104EE00040020000E089FF4A411CA079801EC0B248
:104EF0000244401EA2F80111617982F80011A071EC
:104F000041F014006071E06900F54050B0F8FE0F08
:104F1000E081206AC01D206270BDF34803F038FEB6
:104F2000206A801D206270BD206A801CFAE7E0893B
:104F3000EC4A401CE081207AA378115C194311549B
:104F400003D0607900F0FD001CE0607940F00200C1
:104F500018E0E089E349401CE081207A085CA178F0
:104F60000843A070617914BF01F0FD0141F0020116
:104F7000617110F0800F03D0C8B240F0800001E0F2
:104F800001F07F006071206AC01CCBE7E089D54A40
:104F9000401CE081207A6379115C03F0FE0343EA50
:104FA000D1134900637111F0FF01115414BF03F0D4
:104FB000FD0043F00200607111F0800FC0B214BF19
:104FC00040F0800000F07F006071206A401DA9E77A
:104FD000C44AA17960790A4482F80001481EA07190
:104FE000206AC01C9EE7C14803F0D2FD206AC01CA5
:104FF00098E7607900F0FE01A07841EAD011400006
:10500000617110F0FF00A07014BF01F0FD0141F0CC
:105010000201617110F0800F02D0C8B200F02CBC08
:10502000C8B200F05FBEB24803F0B2FD206A801C37
:1050300078E7B04805F020F9206A001D72E7AD4816
:1050400003F0A6FD206A001D6CE7AA48FEF772FB7C
:10505000206A801D66E7607910F0800F00F01882EA
:1050600000F01FBA801C5DE7A34803F091FD206AA1
:10507000401D57E7E0899B49401CE081207A085C8D
:105080000021091310297BD2DFE801F008080B0B7F
:105090008DACACACAEAEAEAEB4B4B4B49149085CB9
:1050A0008EE000F00700082844D2DFE800F0040694
:1050B00009891E8989269148A0E0904840787FE0C0
:1050C0008E498F4B887820F080028A7000221A70F7
:1050D0008C4A1268153AF12A72D20A7812F0800FBF
:1050E00004BF22F003020A706AE0874991F80021A8
:1050F000885C521C81F8002162E084490B88887822
:1051000013F4704204BF4A68D25C19D0B2F5805FD4
:1051100011D0B2F5005F15D0B2F5405F18BF002086
:105120002FD0764A127812F0040F14BF03F1200238
:105130005A1C0A8044E08A68C3F30B0C12F80C2056
:105140008A70EEE7C3F30B02B2F5406F84BFD1F86B
:1051500018C0A2F5406210D8B2F5006F84BFD1F834
:1051600014C0A2F5006208D8B2F5806F86BFD1F8EE
:1051700010C0A2F58062D1F80CC01CF80220DFE755
:105180001DE043F61072934205D303F00F0008446C
:1051900090F82C00C5E7B3F57C5FC2D303F00F0095
:1051A0000844007FBDE7A0F58041163908BF002004
:1051B00015D0A0F58041173908BF01200FD0000A93
:1051C000A1780843A070617914BF01F0FD0141F09E
:1051D0000201617110F0800F3FF4D2AECCE605F011
:1051E00029FBEDE70020EBE7A1690844A0F50040AA
:1051F0000078E5E7E1690844A0F540400078DFE782
:10520000E089384A401CE081207AA378115C83F061
:10521000FF03194011543FF498AE92E6E089401C18
:10522000E081207AE17808442E49C0B2085CA17878
:105230000843A070617914BF01F0FD0141F0020143
:10524000617110F0800F03D0C8B240F0800001E01F
:1052500001F07F006071206A001D63E6E089214A49
:10526000401CE081207AE17863790844C0B203F001
:10527000FE03115C43EAD1134900637111F0FF0191
:10528000115414BF03F0FD0043F00200607111F0EF
:10529000800F00F0E886607940F080006071206A3D
:1052A000801D3FE6607900F0FE0000F023BA184848
:1052B00003F06EFC206A001D34E6A078401C10F05C
:1052C000FF00A070617914BF01F0FD0141F00201FF
:1052D000617110F0800F73D0C8B240F0800000F010
:1052E00009BA00002C040020418000083D77000826
:1052F0004D770008DD3200086180000828000010AA
:10530000250000102C00001088FA01202CF8012044
:1053100029330008F84804F0D5FC206A001D01E696
:10532000F64803F035FC206A001DFBE5F348FEF764
:1053300001FA206AC01DF5E5A179E089891EC9B28C
:10534000EF4AA1711144401CA1F80101401EE08107
:10535000FDF7C4FFE081206A801DE3E5E948FEF720
:105360000FF9206A801DDDE5E089E549401CE081F8
:10537000207A085CA1780842617914BF01F0FD0130
:1053800041F0020101F03F0100F0C00008436071EC
:10539000206AC01CC6E5E089D949401CE081207A1A
:1053A000085CA1780840A070617914BF01F0FD018C
:1053B00041F00201617110F0800F3FF4E1ADDBE5D7
:1053C0004BE0E0896279401CE081217ACC4B02F00D
:1053D000010C02F0FE02585C42EAD01240066271F3
:1053E0005CEA1060585414BF02F0FD0142F0020163
:1053F000617110F0800F02D0C8B200F00BBAC8B2D1
:1054000000F00EBAA079BE49401CC0B2A071084499
:1054100090F8000140F020006071206A001D81E5D5
:10542000B948FEF7ADF8206AC01C7BE56179A27827
:1054300001F0010001F0FE0141EAD2115206617152
:1054400050EA1260A07014BF01F0FD0141F00201AA
:10545000617110F0800F7FF43FAF01F07F0000F02A
:1054600049B9A548FEF78CFB206A001D5AE5A24801
:10547000FEF786F8206A001D54E59F4803F08EFC75
:10548000206A801D4EE5607910F0800F09D000BFC2
:1054900003F058FCE1890844E081206A401C206246
:1054A000E0E5E089401CE081206ADBE59748FEF7F3
:1054B00067F8206A401D35E5E0899149401CE0818C
:1054C000207A085C0021091310297BD2DFE801F063
:1054D00008080B0B8DACACACAEAEAEAEB4B4B4B48D
:1054E0008749085C8EE000F00700082844D2DFE816
:1054F00000F0040609891E8989268548A0E08448B1
:1055000040787FE08249834B887820F080028A705F
:1055100000221A70804A1268153AF12A72D20A786B
:1055200012F0800F04BF22F003020A706AE07B4988
:1055300091F80021885C521C81F8002162E0784AD1
:105540001388907813F4704104BF5168C95C19D076
:10555000B1F5805F11D0B1F5005F15D0B1F5405FB6
:1055600018BF00202FD06A49097811F0040F14BF2A
:1055700003F12001591C118044E09168C3F30B0C26
:1055800011F80C109170EEE7C3F30B01B1F5406F09
:1055900084BFD2F818C0A1F5406110D8B1F5006FF2
:1055A00084BFD2F814C0A1F5006108D8B1F5806FAE
:1055B00086BFD2F810C0A1F58061D2F80CC01CF8EB
:1055C0000110DFE71DE043F610718B4205D303F0B5
:1055D0000F00104490F82C00C5E7B3F57C5FC2D3F0
:1055E00003F00F001044007FBDE7A0F5804116399D
:1055F00008BF002015D0A0F58041173908BF012051
:105600000FD0000AA1780840A070617914BF01F0A2
:10561000FD0141F00201617110F0800F3FF4B0AC68
:10562000AAE405F007F9EDE70020EBE7A1690844DB
:10563000A0F500400078E5E7E1690844A0F54040A6
:105640000078DFE7E089401CE081207AE1780844B7
:105650002B49C0B2085CA1780842617914BF01F0FF
:10566000FD0141F0020101F03F0100F0C0000843DC
:105670006071F0E5E089401CE081207AE17808441F
:105680001F49C0B2085CA1780840A070617914BFBE
:1056900001F0FD0141F00201617110F0800F3FF453
:1056A000D7ADD1E5E08994F805C0401CE081207AAF
:1056B000E178134A0844C1B20CF00103505C0CF0CD
:1056C000FE0C4CEAD01C400684F805C053EA10607A
:1056D000505414BF0CF0FD014CF00201617110F048
:1056E000800FC8B200F0EC8140F08000D6E5607910
:1056F00040F00100607117E4DD320008ED3200086F
:105700002C040020418000083D77000861800008DB
:1057100028000010250000102C00001088FA01203D
:105720002CF80120F948FDF72BFF206A001DFFF738
:10573000F9BBA078401E10F0FF00A070617914BF83
:1057400001F0FD0141F00201617110F0800F3FF4A2
:1057500067AC62E4EE48FEF713FA206A001DFFF71B
:10576000E1BBEB48FDF70CFF206A001DFFF7DABB39
:10577000E74803F013FB206AC01DFFF7D3BBA079F5
:10578000E44A401CC0B2811891F8001141F0200198
:1057900061711118801CB1F80111A071E181206ABA
:1057A000801DFFF7BFBBDC48FFF74CF8206A801D67
:1057B000FFF7B8BBE089D749401CE081207A085C3C
:1057C000A1784840A070617914BF01F0FD0141F05B
:1057D0000201617110F0800F3FF4D2ABFFF7CCBB38
:1057E000E089CC4A401CE081207A6379115C03F0A7
:1057F000FE0301F0010C43EA0C03637149081154E4
:1058000014BF03F0FD0043F002006071002028B1D6
:1058100094F8050040F08000FFF7D6BB94F805002F
:1058200000F07F00FFF7D0BBBA4AA179A0780A4404
:1058300082F80001481EA071206AC01CFFF772BBED
:10584000B648FEF7FFFF206AC01CFFF76BBB60790C
:10585000A17800F0FE0001F00102104360714908D8
:10586000A17014BF00F0FD0040F002006071002044
:10587000002800F03582607940F080003AE700BFF0
:10588000FDF72CFDE081206AC01CFFF74BBBA4484C
:10589000FEF7D8FF206A001DFFF744BBA04802F0C6
:1058A00051FF206A801DFFF73DBB607910F0400F6B
:1058B0007FF4F7ADECE59B48FEF7C4FF206A401D7E
:1058C000FFF730BBE0899349401CE081207A085CF7
:1058D0000021091310297BD2DFE801F008080B0B27
:1058E0008DADADADAFAFAFAFB5B5B5B58949085C5E
:1058F0008EE000F00700082844D2DFE800F004063C
:1059000009891E8989268848A1E0874840787FE078
:105910008549864B887820F080028A7000221A70B0
:10592000834A1268153AF12A72D20A7812F0800F6F
:1059300004BF22F003020A706AE07E4991F8002158
:10594000885C521C81F8002162E07B4A13889078C1
:1059500013F4704104BF5168C95C19D0B1F5805F80
:1059600011D0B1F5005F15D0B1F5405F18BF002030
:105970002FD06D49097811F0040F14BF03F12001F5
:10598000591C118044E09168C3F30B0C11F80C1002
:105990009170EEE7C3F30B01B1F5406F84BFD2F80D
:1059A00018C0A1F5406110D8B1F5006F84BFD2F8DE
:1059B00014C0A1F5006108D8B1F5806F86BFD2F898
:1059C00010C0A1F58061D2F80CC01CF80110DFE70F
:1059D0001DE043F610718B4205D303F00F00104415
:1059E00090F82C00C5E7B3F57C5FC2D303F00F003D
:1059F0001044007FBDE7A0F58041163908BF0020A4
:105A000016D0A0F58041173908BF012010D0000A38
:105A1000A1784840A070617914BF01F0FD0141F008
:105A20000201617110F0800F3FF4AAAAFFF7A4BA37
:105A300004F000FFECE70020EAE7A1690844A0F5C4
:105A400000400078E4E7E1690844A0F540400078B0
:105A5000DEE7E089401CE081207AE17808442D49A6
:105A6000C0B2085CA1784840A070617914BF01F011
:105A7000FD0141F00201617110F0800F3FF4E8ABCD
:105A8000FFF7E2BBE089234A401CE081207AE178FD
:105A900063790844C0B203F0FE03115C01F0010C0D
:105AA00043EA0C0363714908115414BF03F0FD006D
:105AB00043F0020060710020002860797FF414AE8A
:105AC00000F07F00FFF7EABB607900F0FB00607137
:105AD000206A801CFFF726BA0C48FEF7B3FE206A46
