:020000040800F2
:10000000707300209D010008AF1A0008EB01000882
:10001000AD1A0008E5010008FD1B00080000000003
:10002000000000000000000000000000B31A0008FB
:10003000E901000800000000B11A0008B51A000824
:10004000B7010008B7010008B7010008B7010008B0
:10005000B7010008B7010008B7010008B7010008A0
:10006000B7010008B7010008B7010008B701000890
:10007000B7010008B7010008B7010008B701000880
:10008000B7010008B7010008B7010008B701000870
:10009000B7010008B7010008B7010008B701000860
:1000A000B7010008B7010008B7010008B701000850
:1000B000B7010008B7010008B7010008B701000840
:1000C000B7010008B7010008B7010008B701000830
:1000D000B7010008B7010008B7010008B701000820
:1000E000B7010008B7010008B7010008B701000810
:1000F000B7010008B7010008B7010008B701000800
:10010000B7010008B7010008B7010008B7010008EF
:10011000B7010008B7010008B7010008B7010008DF
:10012000B7010008B7010008E7010008B70100089F
:10013000B7010008B7010008B7010008B7010008BF
:10014000B7010008B7010008B7010008B7010008AF
:10015000B7010008B7010008B7010008B70100089F
:10016000B7010008B7010008B7010008B70100088F
:10017000B7010008B7010008B7010008000000003F
:10018000B7010008B7010008DFF80CD000F018F83C
:1001900000480047A91C00087073002006488047EB
:1001A00006480047FEE7FEE7FEE7FEE7FEE7FEE75C
:1001B000FEE7FEE7FEE7FEE7A51B00088901000851
:1001C000064C074D06E0E06840F0010394E80700A4
:1001D00098471034AC42F6D3FFF7DAFFAC3700088B
:1001E000CC370008FEE770477047FEE730B4DFF811
:1001F00054C04A680123DCF80840DCF80851DCF8F8
:1002000008C22C4344EA0C0C1CF0010F18BF002359
:1002100002D030BC18467047DFF82CC052B10C68D1
:100220002243D1E9024121431143426802EA0C0210
:10023000114304E04268096802EA0C02114341607C
:10024000E7E7000000200140E010FCFF8368012286
:1002500013F0010F18BF002201D010467047D1F8EB
:1002600008C00B6843EA0C03D0F804C02CF4807C6F
:100270002CF0407C43EA0C0343608368496823F414
:10028000006319438160E8E710B44B68D0F808C0F8
:1002900001221CF0010F18BF002202D010BC104632
:1002A0007047002B04BF436823F4684309D0D1F89A
:1002B00008C043EA0C03D0F804C02CF4684C43EAAD
:1002C0000C034360D1E9033C43EA0C03D0F808C0B7
:1002D000084C0CEA040C0C6804F070644CEA040C42
:1002E00043EA0C0383604968C36A23F4700319432B
:1002F000C162D3E7FDFCFFC030B44FF0010C01F048
:100300001001536805680CFA01F4AC4308BF4FF0C4
:10031000000C1BD07BB114682343D2E90242224374
:100320001A4303688A4040F6FA7404FA01F123EA9A
:100330000101114309E00368FA248C40A3431468C7
:10034000D268224302FA01F11943016030BC6046D1
:10035000704700002DE9F0010A6892FAA2F3B3FA9F
:1003600083F3DA4071D001254FF0030C5FF00F04E6
:100370000A6805FA03F632407DD04E68076892FAA3
:10038000A2F8B8FA88F84FEA48080CFA08F827EA01
:10039000080792FAA2F8B8FA88F84FEA480806FA6D
:1003A00008F63E4306604E68012E18BF022E16D195
:1003B0008E68876892FAA2F8B8FA88F84FEA480877
:1003C0000CFA08F827EA080792FAA2F8B8FA88F8AF
:1003D0004FEA480806FA08F647EA060686600E69FC
:1003E000C76892FAA2F8B8FA88F84FEA48080CFAF7
:1003F00008F827EA080792FAA2F8B8FA88F84FEA4C
:10040000480806FA08F647EA0606C6604E68022E55
:1004100031D192FAA2F6B6FA86F6082E4E6915D2B6
:10042000076A92FAA2F8B8FA88F84FEA880804FA3C
:1004300008F892FAA2F2B2FA82F2920027EA0807CA
:1004400006FA02F23A43026215E019E0476A120A1C
:1004500092FAA2F8B8FA88F84FEA880804FA08F87D
:1004600092FAA2F2B2FA82F2920027EA080706FA9A
:1004700002F23A4342620A685B1CDA407FF478AFCA
:100480004A68012A18BF022A09D10A68C968436864
:1004900002FB01F123EA020343EA01014160BDE8E6
:1004A000F0014FF0010070474FF47A71B0FBF1F0AA
:1004B000411E4FF0E0204161002181610521016171
:1004C00070470000234A10B4116811F00C03224950
:1004D00022D04FEA610C042B08BF61461CD0082BC8
:1004E0001AD11E4B1C6814F4800403D0B4F5800F9D
:1004F00008BF6146D3F800C00CF03F0CB1FBFCFC18
:1005000019681B68C1F388110CFB01F1C3F30143A7
:100510005B1C5B00B1FBF3F101601368DFF840C0C6
:1005200003F0F0031B091CF80330D9404160136845
:10053000C3F3822C0B4B13F80CC021FA0CFCC0F84F
:1005400008C01268C2F342329A5CD140C16010BC4C
:1005500070470000083802400024F40004380240CC
:1005600091370008A13700080368002213F0400FFC
:1005700027D1D1E900231A43D1E9023C43EA0C0315
:100580001A430B691A434B691A438B691A43CB69A7
:100590001A430B6A1A43036823F0BF0323F47F4313
:1005A0001A43026042684B6922F0040242EA134295
:1005B00042600A6AB2F5005F02D1898C89B201619A
:1005C0000122C16921F40061C16110467047000039
:1005D000014908607047000028000020F0B402685C
:1005E0002C4B2D4C2D4D2E4EDFF8B8C0984218BF25
:1005F000B0F1804F07D0A04218BFA84203D0B0424C
:1006000018BF604504D14F6822F0700242EA070229
:10061000984218BFB0F1804F25D0A04218BFA84221
:1006200021D0B04218BF60451DD0A0F18044B4F580
:10063000A0341CBFA0F18044B4F5A23413D0A0F1C3
:100640008044B4F5A4341CBFA0F18044B4F5C05478
:1006500009D0A0F18044B4F5E0541CBFA0F180445F
:10066000B4F5005403D1CC6822F4407222430260F6
:100670008A68C2620A888262984212BF6045097C19
:100680000163416941F001014161F0BC4FF001009B
:1006900070470000000001400004004000080040D6
:1006A000000C004000040140F0B400250123DFF8F5
:1006B000B8C16E4C012909D010293BD0B1F5807F1B
:1006C00071D0B1F5805F6DD000F0CAB8016A21F039
:1006D00001010162056A41688669176826F07306A0
:1006E0003E43176925F002053D43576825F0010593
:1006F0003D43604518BFA04215D1546925F0080C50
:100700004CEA840C94682CF0040C4CEA8405D2F872
:1007100018C021F4807141EA0C01D2F81CC021F408
:10072000007141EA4C0141608661D1684163056214
:100730001D4695E0016A21F010010162056A4168D9
:100740008669176826F4E64646EA0726176925F003
:10075000200545EA0715576825F0100545EA0715F5
:10076000604518BFA04215D1546925F0800C4CEAB1
:10077000841C94682CF0400C4CEA8415D2F818C004
:1007800021F4806141EA8C01D2F81CC021F400619F
:1007900041EACC0141608661D168816305621D46F2
:1007A0005EE000E036E0016A21F480710162056AD2
:1007B0004168C669176826F0730646EA0706176996
:1007C00025F4007545EA0725576825F4807545EA44
:1007D0000725604518BFA04215D1546925F4006C67
:1007E0004CEA842C94682CF4806C4CEA8425D2F872
:1007F00018C021F4805141EA0C11D2F81CC021F438
:10080000005141EA4C114160C661D168C163056283
:100810001D4625E0016A21F480510162056A4168A4
:10082000C669176826F4E64646EA0726176925F4DE
:10083000005545EA0735576825F4805545EA0735E0
:10084000604518BFA04205D1D2F818C021F48041FC
:1008500041EA8C114160C661D168016405621D46A0
:100860002846F0BC70470000000001400004014031
:100870002DE9F0410446C06884B00D46002610F40E
:10088000005F7DD1E9686868AA6908432969114356
:100890000843E16821F4037121F414410843E06046
:1008A000A868216921F440510843206168696169A1
:1008B00021F44071084360616846FFF703FEA4F12C
:1008C0008040B0F5883019D0A4F18040B0F5884060
:1008D0001CBFA4F18040B0F5904011D0A4F180403D
:1008E000B0F58A300AD0A4F18040B0F598401CBF22
:1008F000A4F18040B0F5A04002D04BE0039800E0A6
:10090000029800281CBF2B68002B43D0D5F818C0D4
:100910003D49BCF5004F00EBC00C4FF001064FF015
:1009200032020CEB001039D09B00B0FBF3FCA1FBB2
:100930000C7CB0FBF3F54FEA5C1C6FF018070CFB66
:1009400007FC05EB8C0C02EB0C1CA1FB0C5C4FEACA
:100950005C1C0CF0F005B0FBF3FCA1FB0C7C4FEA37
:100960005C1C05EB0C1CB0FBF3F5B0FBF3F0A1FB3A
:10097000003040096FF01803584305EB800000E099
:1009800008E002EB0010A1FB0010C0F3431060442C
:1009900080B2A06004B03046BDE8F0815B00B0FBDF
:1009A000F3FCA1FB0C5C4FEA5C1C4FEA0C15B0FB9E
:1009B000F3FCA1FB0C8CB0FBF3F74FEA5C1C6FF06F
:1009C00018080CFB08FC07EB8C0C02EBCC0CA1FB11
:1009D0000C7C4FEA5C1C0CF0F80C05EB4C0CB0FBEB
:1009E000F3F5B0FBF3F0A1FB0030400900FB08F089
:1009F00005EB800002EBC000A1FB0010C0F3421029
:100A0000604480B2A060C5E71F85EB51F0B593B09C
:100A10000024129410941194009403940494A84810
:100A2000019402940D940E940F940C9408940994DC
:100A30000A940B94016841F480710160006800F42D
:100A4000807005909F48016841F0010101600068D5
:100A500006A900F0010005900F20069003200790E2
:100A60009948FFF777FC9A48984902788A580378A2
:100A700022F06062CA5002788A58037822F0C002DD
:100A8000CA5002788A58037822F44032CA50027859
:100A90008A58037822F49072CA5002788A580378F0
:100AA00022F40072CA5002788A58037842F48062B5
:100AB000CA5002788A58037822F4C05242F4006285
:100AC000CA5002788A58037822F4C04242F4005295
:100AD000CA5002787F4951587E4821F004011150D4
:100AE00080151094CDE911407B4D10A92846FFF7E1
:100AF000ADFB4FF440160220CDE90240CDE900469F
:100B00003013049069462846FFF7BEFBA86840F4FE
:100B10008060A860686820F0200068604FF4803032
:100B2000CDE90C040CA96D48FFF760FB6815311383
:100B300091FAA1F1B1FA81F120FA01F105EB8101FD
:100B4000CA6A22F01F02CA62010491FAA1F2B2FA43
:100B500082F2D14005EB81034FF0F87191FAA1F2D6
:100B6000B2FA82F224FA02F70722D3F80CC002FA92
:100B700007F72CEA070C91FAA1F7B7FA87F7FC40C0
:100B800002FA04F44CEA040CC3F80CC0331393FAD1
:100B9000A3F3B3FA83F320FA03F305EB830391FA8B
:100BA000A1F4D3F82CC0B4FA84F42CF4787C4CF083
:100BB000200CC3F82CC0030493FAA3FCBCFA8CFCF1
:100BC00023FA0CF305EB830326FA04F4D3F80CC0E4
:100BD00002FA04F42CEA040C91FAA1F4B4FA84F4B5
:100BE00026FA04F402FA04F44CEA040CC3F80CC02C
:100BF000331393FAA3F3B3FA83F320FA03F305EB69
:100C0000830391FAA1F6D3F82CC0B6FA86F62CF439
:100C1000F84C4CF4006CC3F82CC0030493FAA3FC0A
:100C2000BCFA8CFC23FA0CF305EB83034FF4C00CE5
:100C30002CFA06FCDC6802FA0CFC24EA0C0491FA9B
:100C4000A1F64FF4C00CB6FA86F62CFA06FC02FAAE
:100C50000CFC44EA0C0CC3F80CC04FF4407393FA3C
:100C6000A3F3B3FA83F3D84005EB800091FAA1F423
:100C7000C36AB4FA84F423F4782343F4C033C36220
:100C80004FF0007090FAA0F3B3FA83F3D840EB0171
:100C900005EB800091FAA1F123FA04F4D0F80CC01E
:100CA000B1FA81F102FA04F423FA01F12CEA040CFE
:100CB00002FA01F14CEA0101C16013B0F0BD00007D
:100CC00044380240303802400000024000640240D4
:100CD00063370008146402400020014000230140F3
:100CE00010B58CB000244048019402940394009401
:100CF0000694079408940994016841F0005101603A
:100D0000006800F000500A903848016841F0010185
:100D10000160006804A900F001000A90102004900E
:100D2000032005903248FFF715FB334831494279DB
:100D30008A58437942F06062CA5042798A584379AE
:100D400022F0C00242F04002CA5042798A584379E8
:100D500022F44032CA5042798A58437922F4907280
:100D6000CA5042798A58437922F40072CA504279B3
:100D70008A58437942F48062CA5042798A5843794A
:100D800022F4C05242F40062CA5042798A58437930
:100D900022F4C04242F40052CA50427917495258D4
:100DA000407922F00402425015480068C0F3022046
:100DB000011D072934BF0020C01E04FA00F01149AC
:100DC000000181F8000410494FF48000C1F80001CF
:100DD0003820CDE900046A460C490D480394FFF71A
:100DE0008BFA0CB010BD0000403802403038024091
:100DF00000000240006002406B37000814600240AF
:100E00000CED00E036E000E004E000E0010010023C
:100E1000007400405B4881B0016841F4001101603A
:100E2000016801F400110091016841F48001016042
:100E3000006800F48000009053480168C1F302216B
:100E40000A1D072A34BF0022CA1E00214F4B01FA97
:100E500002F2120183F800244FF0E0234FF48042A5
:100E6000C3F800210268C2F3022202F1040CBCF1B3
:100E7000070F34BF0022D21E01FA02F2DFF810C1C0
:100E800012018CF800244FF40042C3F800210268DC
:100E9000C2F3022202F1040CBCF1070F34BF00229E
:100EA000D21E01FA02F2DFF8ECC012018CF8002425
:100EB0004FF48032C3F800210268C2F3022202F12B
:100EC000040CBCF1070F34BF0022D21E01FA02F25B
:100ED000DFF8C4C012018CF800244FF40032C3F8CC
:100EE00000210268C2F30222131D072B34BF002227
:100EF000D21E01FA02F2294B120183F80024284B7A
:100F00004FF08072C3F800210268C2F3022202F19E
:100F1000040CBCF1070F34BF0022D21E01FA02F20A
:100F2000DFF880C012018CF800244FF08062C3F813
:100F300000210268C2F3022202F1040CBCF1070F87
:100F400034BF0022D21E01FA02F2DFF85CC01201A7
:100F50008CF800244FF00062C3F800210068C0F351
:100F60000220021D072A34BF0020C01E01FA00F033
:100F70000E49000181F800040D494020C1F800012C
:100F800001B07047303802400CED00E00EE000E0A8
:100F90000FE000E010E000E011E000E038E000E0E9
:100FA00004E000E03AE000E03BE000E046E000E082
:100FB00008E000E0F0B587B00024414801940294B5
:100FC00003940594016841F010010160016801F08B
:100FD00010010691016841F004010160016801F00F
:100FE00004010691016841F080010160016801F08F
:100FF00080010691016841F001010160016801F082
:1010000001010691016841F002010160016801F0EF
:1010100002010691016841F0080101600068294958
:1010200000F0080006904FF44010086026494FF089
:101030007F4008604FF6FF700126009069460496D5
:101040002248FFF787F94FF6CF700325CDE9000559
:101050001F4F694604943846FFF77CF93020009012
:10106000CDE901640394694638460494FFF772F9A8
:1010700041F63F70CDE90005694604941548FFF735
:1010800069F94FF47F400090CDE90164124E03945A
:10109000694630460494FFF75DF94FF41F40CDE9EF
:1010A0000005694604940D48FFF754F99F20CDE9E7
:1010B0000005694604943046FFF74CF907B0F0BDCF
:1010C0003038024018080240180C0240001002405C
:1010D0000008024000040240000C024000000240F0
:1010E00010B592B0002403940494544800940194E1
:1010F0000294089409940594069407940D940E9410
:10110000016841F480510160006800F48050109043
:101110004B48016841F00101016000680AA900F034
:1011200001001090A0200A9002200B9003200C9048
:1011300005200F904348FFF70DF944484249C27813
:101140008A58C37822F0606242F0C062CA50C27806
:101150008A58C37822F0C00242F04002CA50C278D6
:101160008A58C37822F44032CA50C2788A58C37869
:1011700022F49072CA50C2788A58C37822F400725E
:10118000CA50C2788A58C37842F48062CA50C27882
:101190008A58C37822F4C052CA50C2788A58C37899
:1011A00022F4C042CA50C378294A9B5890F803C021
:1011B00043F004034CF80230C3789B5890F803C006
:1011C00043F003034CF80230C2788A58C37842F0E7
:1011D000C072CA50C2788A58C07822F4C0020A503D
:1011E0001C480068C0F30220011D072934BF0020FD
:1011F000C01E04FA00F01849000181F800041749E4
:101200000820C1F800014FF48270CDE900404FF48E
:101210000070CDE9044003940A20CDE9084002940F
:10122000069407940E4C69462046FFF79DF96068C6
:1012300020F01000606012B010BD00004438024081
:10124000303802400000024000640240733700085A
:10125000146402400CED00E023E000E004E000E054
:101260000030014010B592B00024039404946C48FF
:1012700000940194029408940994059406940794A8
:101280000D940E94016841F480410160006800F4FF
:10129000804010906348016841F0020101600068DD
:1012A0000AA900F0020010904FF460400A9002205A
:1012B0000B9003200C9005200F905B48FFF74AF835
:1012C0005B485A49C2788A58C37822F06062CA5093
:1012D000C2788A58C37822F0C002CA50C2788A58AD
:1012E000C37822F44032CA50C2788A58C37822F4B4
:1012F0009072CA50C2788A58C37822F40072CA50D9
:10130000C2788A58C37842F48062CA50C2788A5838
:10131000C37822F4C052CA50C2788A58C37822F4E3
:10132000C042CA50C378434A9B5890F803C023F088
:1013300004034CF802300379CB5890F804C023F032
:10134000606341F80C300379CB5890F804C023F067
:10135000C00343F0400341F80C300379CB5890F8B8
:1013600004C023F4403341F80C300379CB5890F893
:1013700004C023F4907341F80C300379CB5890F8F3
:1013800004C023F4007341F80C300379CB5890F873
:1013900004C043F4806341F80C300379CB5890F8D3
:1013A00004C023F4C05341F80C300379CB5890F8B3
:1013B00004C023F4C04341F80C3001798958007906
:1013C00021F0040181501C480068C0F30220011D77
:1013D000072934BF0020C01E04FA00F0174900019D
:1013E00081F8000416491020C1F800014FF4827002
:1013F000CDE900404FF40070CDE9044003940A2089
:10140000CDE908400294069407940E4C69462046A4
:10141000FFF7AAF8606820F01000606012B010BDFD
:101420004038024030380240000402400060024070
:1014300073370008146002400CED00E024E000E087
:1014400004E000E00038004000B587B000210B4800
:1014500000910191029103910491026842F40032DB
:101460000260006800F400300590ADF80010694695
:101470000348FFF7B3F807B000BD0000443802404E
:101480000044014000B587B000210B480091019154
:10149000029103910491026842F480220260006884
:1014A00000F480200590ADF8001069460348FFF76E
:1014B00095F807B000BD00004438024000480140E4
:1014C00010B586B000210E48009101910291039160
:1014D0000491026842F0400202600068094C00F08A
:1014E00040000590ADF8001069462046FFF776F8F9
:1014F000A06820F0070020F48040A06006B010BD76
:1015000040380240001800402DE9F04194B000241A
:101510000F941094119412940E94009401940294D8
:10152000039433480494059406940794089409940A
:101530000A940B940C940D94016841F080010160B1
:10154000006800F0800013902A480068C0F3022071
:10155000011D072934BF0020C01E04FA00F02649EF
:10156000000181F8000425494FF480500427C1F898
:101570000001DFF88C80ADF838400EA94046FFF737
:101580002DF82048214E082201781F480D18317887
:10159000286802FA01F1084328606020CDE90004C0
:1015A000029403946A46012140460494FFF77CF8B4
:1015B0003178286807FA01F18843286014480168E7
:1015C00041F001010160006808A900F001001390DA
:1015D000402008900220CDE909040920CDE90C4003
:1015E0000B940C48FEF7B6FE14B0BDE8F081000085
:1015F000403802400CED00E02CE000E004E000E0A8
:10160000001C00407B370008181C0040823700088F
:10161000303802400000024000B587B000210B487E
:1016200000910191029103910491026842F4807249
:101630000260006800F480700590ADF80010694603
:101640000348FEF7CBFF07B000BD00004038024062
:101650000020004010B586B000211948009101918A
:10166000029103910491026842F010020260006846
:1016700000F01000059013480068C0F30220021D1E
:10168000072A34BF0020C01E01FA00F00E4A0001F4
:1016900082F800040D4A4FF48000C2F800010C4C9F
:1016A000ADF8001069462046FEF798FF606820F00C
:1016B00070006060A06820F08000A06006B010BDDF
:1016C000403802400CED00E036E000E004E000E0CD
:1016D0000010004010B586B000210F480091019124
:1016E000029103910491026842F0200202600068B6
:1016F0000A4C00F020000590ADF800106946204625
:10170000FEF76CFF606820F070006060A06820F059
:101710008000A06006B010BD4038024000140040B8
:1017200010B586B000210E480091019102910391FD
:101730000491026842F4803202600068094C00F4AF
:1017400080300590ADF8001069462046FEF746FF50
:10175000A06820F0070020F48040A06006B010BD13
:10176000443802400040014010B58EB0002401947E
:101770006E480094069402940394049405940B9488
:10178000016841F010010160006800F0100007904E
:101790006748016841F002010160006808A900F093
:1017A00002000790C02008900220099003200A90B0
:1017B00001200C9007200D905E48FEF7CBFD5F489E
:1017C0005D49C2798A58C37922F0606242F00062B2
:1017D000CA50C2798A58C37922F0C00242F040024E
:1017E000CA50C2798A58C37922F44032CA50C279A9
:1017F0008A58C37922F49072CA50C2798A58C37940
:1018000022F40072CA50C2798A58C37942F48062C5
:10181000CA50C2798A58C37922F4C052CA50C279D8
:101820008A58C37922F4C042CA50C379444A9B58AB
:1018300090F807C023F004034CF802308378CB58AB
:1018400090F802C023F0606343F0006341F80C306D
:101850008378CB5890F802C023F0C00341F80C30D5
:101860008378CB5890F802C023F4403341F80C3011
:101870008378CB5890F802C023F4907341F80C3071
:101880008378CB5890F802C023F4007341F80C30F1
:101890008378CB5890F802C043F4806341F80C3051
:1018A0008378CB5890F802C023F4C05341F80C3031
:1018B0008378CB5890F802C023F4C04341F80C3031
:1018C00081788958807821F0040181501D48006892
:1018D000C0F30220011D072934BF0020C01E04FAF6
:1018E00000F01949000181F8000418492020C1F8CE
:1018F00000014FF4E130CDE900040C200294CDE961
:10190000034005940694124C69462046FEF7B0FF4A
:10191000206920F490402061606920F02A00606115
:10192000E06840F40050E0600EB010BD4438024062
:101930003038024000040240006402408937000849
:10194000146402400CED00E025E000E004E000E05B
:101950000010014010B58EB0002401944948009455
:10196000069402940394049405940B94016841F442
:1019700000310160006800F40030079042480168BF
:1019800041F008010160006808A900F00800079014
:10199000602008900220099003200A9001200C90FA
:1019A00007200D903948FEF7D5FC3A48384982792E
:1019B0008A58837922F0606242F00062CA508279CC
:1019C0008A58837922F0C00242F04002CA508279DC
:1019D0008A58837922F44032CA5082798A588379AE
:1019E00022F49072CA5082798A58837922F4007264
:1019F000CA5082798A58837942F48062CA508279C7
:101A00008A58837922F4C052CA5082798A588379DD
:101A100022F4C042CA5082791F495258807922F07C
:101A2000040242501D480068C0F30220011D07292E
:101A300034BF0020C01E04FA00F01949000181F8EB
:101A4000000418494020C1F800014FF4E130CDE90D
:101A500000040C200294CDE9034005940694124C36
:101A600069462046FEF704FF206920F4904020617B
:101A7000606920F02A006061E06840F40050E06096
:101A80000EB010BD4038024030380240000C024019
:101A90000060024089370008146002400CED00E04D
:101AA00026E000E004E000E000440040FEE770476C
:101AB0007047704706484168491C41600021017029
:101AC0008168002908BF70478168491E816070479E
:101AD000100000202B4810B5016821F00F0141F0E3
:101AE0000501016000682848016841F480410160F7
:101AF0002648016841F480310160016811F4003F1B
:101B0000FBD02449224A0B68DFF88CC003EA0C039F
:101B10001A430A600A6822F440320A60016841F000
:101B200080710160016811F0007FFBD01B480168E3
:101B300021F0F0010160016821F4E05141F4A0516D
:101B40000160016821F4604141F4004101600168D5
:101B500021F0030141F002010160016801F00C0174
:101B60000829FAD10E4C2046FEF79EFC4FF0E021EA
:101B7000086940F0040008612046BDE81040FEF707
:101B800027BD0000003C02400070004000380240C9
:101B900008544000043802400080BFFF083802406B
:101BA000007A030A0F48016841F4700101600E4891
:101BB000016841F0010101600C4A002111600268D6
:101BC00022F4102222F080720260031D084A1A607B
:101BD000026822F480220260064801600649580625
:101BE0000860704788ED00E0003802400838024085
:101BF000103000240C38024008ED00E0FEE702E05F
:101C000008C8121F08C1002AFAD170477047002087
:101C100001E001C1121F002AFBD170471C4930B4FA
:101C2000886840F4407088601B481A4A0378D3588B
:101C300090F800C023F4907343F4807342F80C30A2
:101C400090F800C0131D5CF803C004786FF30F0C0C
:101C50004CF0040C44F803C00478124DDFF83CC08B
:101C60000F4B44F805C0047805F1040C44F80C301F
:101C70000378D358007843F001031350886840F08C
:101C800001008860886840F08040886030BC704700
:101C90000020014000640240633700084C200140EE
:101CA00020000020086402405C4882B0016841F4D2
:101CB00080410160006800F480400090584801684D
:101CC00041F080510160006800F08050009055485C
:101CD00001684FF6FF02114041F4407141F0FD717F
:101CE00041F080610160FFF7F5FEFFF763F9FFF750
:101CF00091F8FFF7F5F9FFF737FDFEF787FEFFF7DD
:101D0000B1FAFFF727FEFFF7FFFBFEF7E9FFFFF74A
:101D100083FCFFF7D5FBFFF7B5FBFFF795FBFFF75C
:101D2000FFFCFFF797FCFFF7D5FC4FF0E0200169BF
:101D300041F0020101614FF4784000904FF4FC63E0
:101D40004FF6FF720021012000F024FAFFF766FF32
:101D5000354D364E4FF00009DFF8D4A04FF00108A2
:101D6000344C354F00F086F8002134A2084600F0CC
:101D700035FB62680121002000F0B6FB288806FAD6
:101D800080F002B202F145008B2838BF4A4602219A
:101D9000002000F0A9FB688806FA80F002B202F188
:101DA00045008B2838BF4A460321002000F09CFBE9
:101DB000A88806FA80F002B202F145008B2838BFED
:101DC0004A460421002000F08FFBE88806FA80F0E4
:101DD00002B202F145008B2838BF4A460521002097
:101DE00000F082FBDAF810001023C2430621002025
:101DF00000F0AEFA00F074FC20780028B2D184F82C
:101E000000806068E168401A6428ABD3786980F488
:101E1000005078616068E060A4E700004438024048
:101E2000403802400CED00E02000002000F8FFFFE9
:101E30000010024010000020000C024048656C6C4D
:101E40006F20576F726C6448656C6C6F20576F72AF
:101E50006C6448656C6C6F20576F726C6448656C7D
:101E60006C6F20576F726C6448656C6C6F20576F95
:101E7000726C64002DE9F0031A484FF0000C817871
:101E800000299CBFBDE8F0037047174F202607F5D7
:101E9000C86807F596594478D4B1C17801EBC102FE
:101EA00002EB011108EB811507EB411305EB4C0226
:101EB00009EB8115634405EB4C0100BF03F8146B7B
:101EC000458922F8285BC58821F8285B641EF5D176
:101ED0000CF1010101F0FF0C81788C45DBD3BDE8EA
:101EE000F0037047000000202C000020044908681F
:101EF00010F0006FFBD003494FF00060086070479E
:101F000000640240086402402DE9F0039E499F4AA4
:101F10004FF4001C09784FF0200311F0010F9C4989
:101F20007DD0002634464FF4A077F0254FF02A08E4
:101F300072B600BFD1F8089019F0800FFAD1C2F83C
:101F400000C000BFD1F8089019F0020FFAD0C1F814
:101F50000C8000BFD1F8088018F0800FFAD000BFC5
:101F6000D1F8088018F0800FFAD1136062B64FEAFA
:101F7000162900BFD1F8088018F0020FFAD0C1F876
:101F80000C9000BFD1F8088018F0020FFAD0CE6094
:101F90005FEA1726D1F8088018F0020FFAD0CE6059
:101FA000FFB28E6816F0020FFBD0CF602B2772B6FF
:101FB0008E6816F0800FFBD1C2F800C08E6816F054
:101FC000020FFBD0CF608E6816F0800FFBD08E68BA
:101FD00016F0800FFBD1136062B6270A8E6816F0E8
:101FE000020FFBD0CF608E6816F0020FFBD0CC60E2
:101FF0002E0A8C6814F0020FFBD0CE608C6814F0AF
:10200000020FFBD0CD602C2572B68C6814F0800FC7
:10201000FBD1C2F800C000BFD1F808C000E00FE05B
:102020001CF0020FF8D0CD60D1F808C01CF0800F72
:10203000FAD000BFD1F808C01CF0800FFAD18AE0B6
:1020400000252C46F0264FF4A0774FF02A0872B6F0
:10205000D1F8089019F0800FFAD1C2F800C000BF83
:10206000D1F8089019F0020FFAD0C1F80C8000BF27
:10207000D1F8088018F0800FFAD000BFD1F808809E
:1020800018F0800FFAD1136062B64FEA152900BF2D
:10209000D1F8088018F0020FFAD0C1F80C9000BFF8
:1020A000D1F8088018F0020FFAD0CD604FEA162858
:1020B0008D6815F0020FFBD0C1F80C808D6815F00B
:1020C000020FFBD0CE602B2572B68E6816F0800F03
:1020D000FBD1C2F800C08E6816F0020FFBD0CD60B5
:1020E0008D6815F0800FFBD08D6815F0800FFBD147
:1020F000136062B6260A8D6815F0020FFBD0CE6021
:102100008D6815F0020FFBD0CC603D0A8C6814F08E
:10211000020FFBD0CD60FDB28C6814F0020FFBD033
:10212000CD602C2572B68C6814F0800FFBD1C2F8FC
:1021300000C000BFD1F808C01CF0020FFAD0CD607B
:10214000D1F808C01CF0800FFAD000BFD1F808C049
:102150001CF0800FFAD1136062B64FF0000C040A35
:102160008A6812F0020FFBD0CC60C3B28A6812F00A
:10217000020FFBD0CB600CF1010CBCF5963FEFD306
:10218000BDE8F0037047000000000020180802407E
:10219000003001402DE9FF4F62480022DDF834E0B5
:1021A000C27001220271604D009F07706A6842F0A0
:1021B00002026A605E4B5D4A1A605E4A136843F031
:1021C000400313602B6843F040032B605A4B4FF0E1
:1021D000200CC3F818C0594C4FF4800CC4F818C038
:1021E000574C4FF0100CD460C2F804C0D2F800C0B5
:1021F0004CF0010CC2F800C010229A61514E6422CA
:1022000032603268002AFCD1DFF83C814FF4801242
:10221000C8F80020642232603268002AFCD1102203
:102220009A61642232603268002AFCD1DFF81CC156
:1022300001249CF80120422A40D04FF400194FF0AD
:10224000200AACF6046B00BF1CF8043072B6AA6812
:1022500012F0800FFBD1C8F80090AA6812F0020FAC
:10226000FBD0EB60AA6812F0800FFBD0AA6812F0D6
:10227000800FFBD1C8F800A062B6362B08BF1BF850
:10228000073004D1AA6812F0020FFBD0EB60621C89
:102290001CF80230432B0CD0DCB2FF2C3AD0AB68D8
:1022A00013F0020FFBD0EC60521C1CF80230432BE1
:1022B000F2D1541C1CF80420422AC5D10446C18026
:1022C000029860810398A081A4F808E00846FFF70F
:1022D0001BFE0120306031680029FCD1009800F01D
:1022E0000100002814BF28201E20607014BF0F209A
:1022F0001420A07014BF4FF4A070F020E081FFF70D
:10230000B9FD0120E070FFF7B5FD0020E07004B0DA
:10231000BDE8F08F521C1CF8023033603368002B8C
:10232000FCD1C1E700000020003001400C3001402A
:10233000606402405864024000080240000002400D
:102340006C06002018000020180802401C37000806
:1023500070B58AB04FF0000CCDF800C0CDF804C0C5
:10236000CDF808C0CDF80CC0CDF810C0CDF814C021
:10237000CDF818C0CDF81CC0CDF820C04BB30DF17E
:10238000FF3413F0010F4FF001050AD012F0010CD9
:1023900018BF4FF0010C0CF1300C04F801CF4FF0D6
:1023A000010C5B0815D000BF05FA0CF6164018BFEB
:1023B0000126303666700CF1010605FA06F6164065
:1023C00018BF0126303604F8026F5B1E0CF1020CB8
:1023D000EAD16A4600F002F80AB070BD2DE9F04F6C
:1023E0003D4B84B00025B3F806C0CDF80CC0B3F85F
:1023F0000AC0CDF808C093F801C09F7893F8038015
:10240000B3F80C90CDF80490B3F808A008EBC8031B
:1024100003EB0813DFF8C490DFF8C480DFF8C4B022
:102420002E462C4609EB431908EB83180BEB831B54
:1024300038E05D2B40D008DC0A2B12BF0D2B491C65
:10244000C9B22ED05B2B37D005E07B2B39D07C2B4B
:102450003CD07D2B35D0002C14BF4FF0800E4FF0B8
:10246000000E43EA0E0E00EB8003009309EB83039A
:10247000002D03F801E014BFDDF804E0DDF808E00A
:10248000009B002E08EBC30323F811E014BFD646CF
:10249000DDF80CE0009B401C0BEBC303C0B223F83B
:1024A00011E0521C1378002B18BF604532BFB942AF
:1024B00004B0BDE8F08FBCE75B2B0CBF0125002505
:1024C000EFE77B2B0CBF01260026EAE7002C14BFA8
:1024D00000240124E5E70000000000202C0000207B
:1024E0006C060020EC120020F0B587B000250095A6
:1024F0000195EC460295002A05DA52422D238DF80B
:1025000000300CF1010C134E0395049505950DF167
:102510000D03069586FB0274A710A7EBE4746742CF
:1025200007EB870702EB4702303203F8012B22004A
:10253000F0D113F8012D2AB10CF8012B13F8012D5D
:10254000002AF9D18CF800506A46FFF747FF07B020
:10255000F0BD0000676666662DE9F04F0E46044642
:10256000099DFFF7C3FC591E1FFA86F8681E92B238
:10257000414410441FFA81F987B22A2672B65549A0
:10258000886810F0800FFBD153484FF4001CC0F84E
:1025900000C000BFD1F808A01AF0020FFAD0CE6038
:1025A0008E6816F0800FFBD08E6816F0800FFBD17E
:1025B0002026066062B64FEA182B00BFD1F808A0AB
:1025C0001AF0020FFAD0C1F80CB008F0FF0800BFF3
:1025D000D1F808A01AF0020FFAD0C1F80C804FEA27
:1025E000192A00BFD1F8088018F0020FFAD0C1F8FC
:1025F0000CA009F0FF0900BFD1F8088018F0020F05
:10260000FAD0C1F80C904FF02B0872B6D1F80890B0
:1026100019F0800FFAD1C0F800C000BFD1F80890BF
:1026200019F0020FFAD0C1F80C8000BFD1F8088071
:1026300018F0800FFAD000BFD1F8088018F0800F92
:10264000FAD1066062B64FEA122900BFD1F80880BD
:1026500018F0020FFAD0C1F80C9002F0FF088A6857
:1026600012F0020FFBD0C1F80C804FEA17288A68DD
:1026700012F0020FFBD0C1F80C80FFB28A6812F092
:10268000020FFBD0CF602C2772B68A6812F0800F41
:10269000FBD1C0F800C08A6812F0020FFBD0CF60F7
:1026A0008A6812F0800FFBD08A6812F0800FFBD18D
:1026B000066062B603FB05F04FF6FF7101EA4001C8
:1026C0000648C4604160016841F001010160BDE855
:1026D000F08F0000003001401808024058640240AA
:1026E0002DE9F04F84B000200446039084488078A0
:1026F000002840F2F580824800254078002884BFF9
:102700002001029040F2E5807D497E4BC87809792E
:1027100000EBC00202EB001201EBC10605EB8500E5
:1027200006EB011103EB421903EB411809EB800C96
:1027300008EB80061CF804C0365DB4451FD103F5D4
:10274000C86C0CEB82160CEB811C06EBC0060CEB84
:10275000C00C36F814603CF814C066450FD103F580
:10276000965C0CEB821606EBC0060CEB811C0CEBA6
:10277000C00036F8146030F8140086427ED0604BFA
:10278000614F012693F801C007F5486EA81960450E
:102790002DD2C0B200EB800009EB800A08EB800B61
:1027A0001AF804A01BF804B0DA451BD107EB821A13
:1027B00007EB811B0AEBC00A0BEBC00B3AF814A025
:1027C0003BF814B0DA450DD10EEB821B0BEBC00BBE
:1027D0000EEB811A0AEBC0003BF814B030F814007D
:1027E000834504D0282E3CBF701CC6B2CED30398BC
:1027F0004FF0000800EB80014448C44600EBC120C4
:1028000001900027002E47D03D48C07800EBC00162
:1028100001EB00113B4800EB4112E81900EB80008E
:1028200002EB8002135D3A4A02EB03126244A2F506
:10283000805292F8009E344A02EB811202EBC002F1
:1028400032F814B0334A02EB811101EBC0000021D1
:1028500030F814A001985FF008034044C1F107026A
:1028600029FA02F212F0010F14BF5A4652464FEAFB
:10287000122E00F801EB00F8012B00E022E05A1EB6
:10288000491C12F0FF03E9D108F110001FFA80F88B
:10289000781CC7B2B742B7D10CF101001FFA80FC17
:1028A000BCF1100FADD310200090DDE90102F30060
:1028B000E900FFF751FE039880F001000390A8198A
:1028C000401EC5B2681CC5B20D4840788542FFF471
:1028D0001BAF601CC4B20A4880788442FFF40BAF7F
:1028E0000748C17800290CBF01210021C17001797E
:1028F00000290CBF01210021017104B0BDE8F08F57
:10290000000000202C0000206C0600206C1F00201E
:102910001C290008EC120020482888E8000000006C
:102920000000000000000000000000000000183C53
:102930003C3C181818001818000000000066666675
:102940002400000000000000000000000000006CF7
:102950006CFE6C6C6CFE6C6C0000000018187CC681
:10296000C2C07C0686C67C1818000000000000006B
:10297000C2C60C183060C686000000000000386C2B
:102980006C3876DCCCCCCC760000000000303030E7
:1029900060000000000000000000000000000C18B3
:1029A000303030303030180C00000000000030189B
:1029B0000C0C0C0C0C0C1830000000000000000087
:1029C00000663CFF3C6600000000000000000000C4
:1029D0000018187E18180000000000000000000019
:1029E000000000000018181830000000000000006F
:1029F000000000FE000000000000000000000000D9
:102A00000000000000001818000000000000000096
:102A100002060C183060C0800000000000007CC678
:102A2000C6CED6D6E6C6C67C000000000000183828
:102A3000781818181818187E0000000000007CC6CE
:102A4000060C183060C0C6FE0000000000007CC606
:102A500006063C060606C67C0000000000000C1CB2
:102A60003C6CCCFE0C0C0C1E000000000000FEC0F4
:102A7000C0C0FC0E0606C67C0000000000003860E6
:102A8000C0C0FCC6C6C6C67C000000000000FEC672
:102A900006060C18303030300000000000007CC604
:102AA000C6C67CC6C6C6C67C0000000000007CC648
:102AB000C6C67E0606060C78000000000000000076
:102AC00018180000001818000000000000000000A6
:102AD0001818000000181830000000000000000660
:102AE0000C18306030180C060000000000000000D8
:102AF0000000FE0000FE000000000000000000607A
:102B000030180C060C1830600000000000007CC675
:102B1000C60C181818001818000000000000007CEF
:102B2000C6C6DEDEDEDCC07C00000000000010381F
:102B30006CC6C6FEC6C6C6C6000000000000FC6625
:102B400066667C66666666FC0000000000003C6607
:102B5000C2C0C0C0C0C2663C000000000000F86CEB
:102B60006666666666666CF8000000000000FE6639
:102B700062687868606266FE000000000000FE6621
:102B800062687868606060F00000000000003C66E9
:102B9000C2C0C0DEC6C6663A000000000000C6C65D
:102BA000C6C6FEC6C6C6C6C60000000000003C1869
:102BB000181818181818183C0000000000001E0C07
:102BC0000C0C0C0CCCCCCC78000000000000E666AD
:102BD0006C6C78786C6666E6000000000000F060BF
:102BE00060606060606266FE000000000000C6EE8B
:102BF000FEFED6C6C6C6C6C6000000000000C6E679
:102C0000F6FEDECEC6C6C6C6000000000000386C68
:102C1000C6C6C6C6C6C66C38000000000000FC660A
:102C200066667C60606060F00000000000007CC6AA
:102C3000C6C6C6C6C6D6DE7C0C0E00000000FC660A
:102C400066667C6C666666E60000000000007CC676
:102C5000C660380C06C6C67C0000000000007E7E00
:102C60005A1818181818183C000000000000C6C6B2
:102C7000C6C6C6C6C6C6C67C000000000000C6C6E2
:102C8000C6C6C6C6C66C3810000000000000C6C626
:102C9000C6C6C6D6D6FE6C6C000000000000C6C6D4
:102CA0006C6C38386C6CC6C60000000000006666AC
:102CB00066663C181818183C000000000000FEC6AC
:102CC000860C183060C2C6FE0000000000003C30D8
:102CD000303030303030303C0000000000000080E8
:102CE000C0E070381C0E06020000000000003C0C22
:102CF0000C0C0C0C0C0C0C3C0000000010386CC6CA
:102D000000000000000000000000000000000000C3
:102D1000000000000000000000FF0000303018003C
:102D200000000000000000000000000000000000A3
:102D300000780C7CCCCCCC76000000000000E06079
:102D400060786C66666666DC0000000000000000CB
:102D5000007CC6C0C0C0C67C0000000000001C0C87
:102D60000C3C6CCCCCCCCC76000000000000000009
:102D7000007CC6FEC0C0C67C000000000000386CAD
:102D80006460F060606060F000000000000000001F
:102D90000076CCCCCCCCCC7C0CCC78000000E060B5
:102DA000606C7666666666E6000000000000181833
:102DB000003818181818183C00000000000006061B
:102DC000000E06060606060666663C000000E06089
:102DD00060666C78786C66E60000000000003818C9
:102DE000181818181818183C0000000000000000FF
:102DF00000ECFED6D6D6D6D60000000000000000BB
:102E000000DC666666666666000000000000000082
:102E1000007CC6C6C6C6C67C0000000000000000DC
:102E200000DC66666666667C6060F000000000009C
:102E30000076CCCCCCCCCC7C0C0C1E00000000006E
:102E400000DC7662606060F00000000000000000BE
:102E5000007CC660380CC67C00000000000010300A
:102E600030FC30303030361C000000000000000024
:102E700000CCCCCCCCCCCC76000000000000000014
:102E80000066666666663C180000000000000000F0
:102E900000C6C6C6D6D6FE6C0000000000000000CA
:102EA00000C66C3838386CC6000000000000000016
:102EB00000C6C6C6C6C6C67E060CF80000000000E6
:102EC00000FECC183060C6FE0000000000000E18A6
:102ED000181870181818180E0000000000001818B4
:102EE00018180018181818180000000000007018B2
:102EF00018180E181818187000000000000076DC72
:102F0000000000000000000000000000FFFFFFFFC5
:102F1000FFFFFFFFFFFFFFFFFFFFFF0000000000BC
:102F200000000000000000000000000000000000A1
:102F30000000000000000000000000000000000091
:102F4000000000000000000000000000007F404082
:102F5000405E40404040404740407F0000FE02024B
:102F6000027A0202020202E20202FE0000000000F7
:102F70000000000000000000000000000000000051
:102F80000000000000000000000000000000000041
:102F90000000000000000000000000000000000031
:102FA0000000000000000000000000000000000021
:102FB0000000000000000000000000000000000011
:102FC0000000000000000000000000000000000001
:102FD00000000000000000000000000000000000F1
:102FE00000000000000000000000000000000000E1
:102FF00000000000000000000000000000000000D1
:1030000000000000000000000000000000000000C0
:1030100000000000000000000000000000000000B0
:1030200000000000000000000000000000000000A0
:103030000000000000000000000000000000000090
:103040000000000000000000000000000000000080
:103050000000000000000000000000000000000070
:103060000000000000000000000000000000000060
:103070000000000000000000000000000000000050
:103080000000000000000000000000000000000040
:103090000000000000000000000000000000000030
:1030A0000000000000000000000000000000000020
:1030B0000000000000000000000000000000000010
:1030C0000000000000000000000000000000000000
:1030D00000000000000000000000000000000000F0
:1030E00000000000000000000000000000000000E0
:1030F00000000000000000000000000000000000D0
:1031000000000000000000000000000000000000BF
:1031100000000000000000000000000000000000AF
:10312000000000000000000000FF00000000183C4C
:103130003C3C18181800181800FF0000006666666E
:10314000240000000000000000FF00000000006CF0
:103150006CFE6C6C6CFE6C6C00FF000018187CC67A
:10316000C2C07C0686C67C1818FF00000000000064
:10317000C2C60C183060C68600FF00000000386C24
:103180006C3876DCCCCCCC7600FF000000303030E0
:10319000600000000000000000FF000000000C18AC
:1031A000303030303030180C00FF00000000301894
:1031B0000C0C0C0C0C0C183000FF00000000000080
:1031C00000663CFF3C66000000FF000000000000BD
:1031D0000018187E1818000000FF00000000000012
:1031E000000000000018181830FF00000000000068
:1031F000000000FE0000000000FF000000000000D2
:10320000000000000000181800FF0000000000008F
:1032100002060C183060C08000FF000000007CC671
:10322000C6CED6D6E6C6C67C00FF00000000183821
:10323000781818181818187E00FF000000007CC6C7
:10324000060C183060C0C6FE00FF000000007CC6FF
:1032500006063C060606C67C00FF000000000C1CAB
:103260003C6CCCFE0C0C0C1E00FF00000000FEC0ED
:10327000C0C0FC0E0606C67C00FF000000003860DF
:10328000C0C0FCC6C6C6C67C00FF00000000FEC66B
:1032900006060C183030303000FF000000007CC6FD
:1032A000C6C67CC6C6C6C67C00FF000000007CC641
:1032B000C6C67E0606060C7800FF0000000000006F
:1032C000181800000018180000FF0000000000009F
:1032D000181800000018183000FF00000000000659
:1032E0000C18306030180C0600FF000000000000D1
:1032F0000000FE0000FE000000FF00000000006073
:1033000030180C060C18306000FF000000007CC66E
:10331000C60C18181800181800FF00000000007CE8
:10332000C6C6DEDEDEDCC07C00FF00000000103818
:103330006CC6C6FEC6C6C6C600FF00000000FC661E
:1033400066667C66666666FC00FF000000003C6600
:10335000C2C0C0C0C0C2663C00FF00000000F86CE4
:103360006666666666666CF800FF00000000FE6632
:1033700062687868606266FE00FF00000000FE661A
:1033800062687868606060F000FF000000003C66E2
:10339000C2C0C0DEC6C6663A00FF00000000C6C656
:1033A000C6C6FEC6C6C6C6C600FF000000003C1862
:1033B000181818181818183C00FF000000001E0C00
:1033C0000C0C0C0CCCCCCC7800FF00000000E666A6
:1033D0006C6C78786C6666E600FF00000000F060B8
:1033E00060606060606266FE00FF00000000C6EE84
:1033F000FEFED6C6C6C6C6C600FF00000000C6E672
:10340000F6FEDECEC6C6C6C600FF00000000386C61
:10341000C6C6C6C6C6C66C3800FF00000000FC6603
:1034200066667C60606060F000FF000000007CC6A3
:10343000C6C6C6C6C6D6DE7C0CFF00000000FC6611
:1034400066667C6C666666E600FF000000007CC66F
:10345000C660380C06C6C67C00FF000000007E7EF9
:103460005A1818181818183C00FF00000000C6C6AB
:10347000C6C6C6C6C6C6C67C00FF00000000C6C6DB
:10348000C6C6C6C6C66C381000FF00000000C6C61F
:10349000C6C6C6D6D6FE6C6C00FF00000000C6C6CD
:1034A0006C6C38386C6CC6C600FF000000006666A5
:1034B00066663C181818183C00FF00000000FEC6A5
:1034C000860C183060C2C6FE00FF000000000080BD
:1034D000C0E070381C0E060200FF000000003C0C2B
:1034E0000C0C0C0C0C0C0C3C00FF000010386CC6D3
:1034F000000000000000000000FF000000000000CD
:10350000000000000000000000FF00003030180044
:10351000000000000000000000FF000000000000AC
:1035200000780C7CCCCCCC7600FF00000000E06082
:1035300060786C66666666DC00FF000000000000D4
:10354000007CC6C0C0C0C67C00FF000000001C0C90
:103550000C3C6CCCCCCCCC7600FF00000000000012
:10356000007CC6FEC0C0C67C00FF00000000386CB6
:103570006460F060606060F000FF00000000000028
:103580000076CCCCCCCCCC7C0CFF78000000E0608A
:10359000606C7666666666E600FF0000000018183C
:1035A000003818181818183C00FF00000000060624
:1035B000000E06060606060666FF3C000000E060F8
:1035C00060666C78786C66E600FF000000003818D2
:1035D000181818181818183C00FF00000000000008
:1035E00000ECFED6D6D6D6D600FF000000000000C4
:1035F00000DC66666666666600FF0000000000008C
:10360000007CC6C6C6C6C67C00FF000000000000E5
:1036100000DC66666666667C60FFF0000000000005
:103620000076CCCCCCCCCC7C0CFF1E000000000083
:1036300000DC7662606060F000FF000000000000C7
:10364000007CC660380CC67C00FF00000000103013
:1036500030FC30303030361C00FF0000000000002D
:1036600000CCCCCCCCCCCC7600FF0000000000001D
:103670000066666666663C1800FF000000000000F9
:1036800000C6C6C6D6D6FE6C00FF000000000000D3
:1036900000C66C3838386CC600FF0000000000001F
:1036A00000C6C6C6C6C6C67E06FFF80000000000FB
:1036B00000FECC183060C6FE00FF000000000E18AF
:1036C000181870181818180E00FF000000001818BD
:1036D000181800181818181800FF000000007018BB
:1036E00018180E181818187000FF0000000076DC7B
:1036F000000000000000000000FF0000FFFFFFFFCF
:10370000FFFFFFFFFFFFFFFFFFFFFF0000000000C4
:1037100000000000000000000000000000CB392C79
:1037200000340243CF00C13043E885007843EA000B
:103730000043EA000043ED6403128143F72043C0D5
:103740002343C11043C53E2843C7864336433A55F9
:1037500043B1001843B60882274311FF7843294339
:103760002C4342102840587088A0B8102840587048
:1037700088A0B8102840587088A0B8000000000445
:10378000040400000800000008102840587088A0B9
:10379000B800000000000000000102030406070852
:1037A000090000000001020304000000CC370008FB
:1037B000000000202C000000FE1B0008F837000865
:1037C0002C000020447300000E1C000800000000C4
:1037D00000000000000000000000000001000000E8
:1037E00000000000000000000000000000000000D9
:0837F000000000000024F400B9
:040000050800018965
:00000001FF
