:020000040800F2
:1000000008F400209D0100083F020008E9010008F3
:100010003D020008E50100086D0300080000000033
:100020000000000000000000000000004302000883
:10003000E70100080000000041020008B5010008C7
:10004000B7010008B7010008B7010008B7010008B0
:10005000B7010008B7010008B7010008B7010008A0
:10006000B7010008B7010008B7010008B701000890
:10007000B7010008B7010008B7010008B701000880
:10008000B7010008B7010008B7010008B701000870
:10009000B7010008B7010008B7010008B701000860
:1000A000B7010008B7010008B7010008B701000850
:1000B000B7010008B7010008B7010008B701000840
:1000C000B7010008B7010008B7010008B701000830
:1000D000B7010008B7010008B7010008B701000820
:1000E000B7010008B7010008B7010008B701000810
:1000F000B7010008B7010008B7010008B701000800
:10010000B7010008B7010008B7010008B7010008EF
:10011000B7010008B7010008B7010008B7010008DF
:10012000B7010008B7010008B7010008B7010008CF
:10013000B7010008B7010008B7010008B7010008BF
:10014000B7010008B7010008B7010008B7010008AF
:10015000B7010008B7010008B7010008B70100089F
:10016000B7010008B7010008B7010008B70100088F
:10017000B7010008B7010008B7010008000000003F
:10018000B7010008B7010008DFF80CD000F018F83C
:10019000004800478D03000808F400200648804707
:1001A00006480047FEE7FEE7FEE7FEE7FEE7FEE75C
:1001B000FEE7FEE7FEE7FEE71503000889010008F9
:1001C000064C074D06E0E06840F0010394E80700A4
:1001D00098471034AC42F6D3FFF7DAFFEC0300087F
:1001E0000C040008FEE77047FEE74FF47A71B0FB9D
:1001F000F1F0411E4FF0E0204161002181610521B5
:10020000016170470149086070470000000000204C
:10021000094881B0016841F080010160016801F086
:1002200080010091016841F001010160006800F067
:100230000100009001B0704730380240FEE770477F
:10024000704770472B4810B5016821F00F0141F04D
:100250000501016000682848016841F4804101609F
:100260002648016841F480310160016811F4003FC3
:10027000FBD02449224A0B68DFF88CC003EA0C0348
:100280001A430A600A6822F440320A60016841F0A9
:1002900080710160016811F0007FFBD01B4801688C
:1002A00021F0F0010160016821F4E05141F4A05116
:1002B0000160016821F4604141F40041016001687E
:1002C00021F0030141F002010160016801F00C011D
:1002D0000829FAD10E4C2046FFF787FF4FF0E021A6
:1002E000086940F0040008612046BDE81040FFF7AF
:1002F00089BF0000003C024000700040003802400E
:1003000008544000043802400080BFFF0838024013
:10031000007A030A0F48016841F4700101600E4839
:10032000016841F0010101600C4A0021116002687E
:1003300022F4102222F080720260031D084A1A6023
:10034000026822F4802202600648016006495806CD
:100350000860704788ED00E000380240083802402D
:10036000103000240C38024008ED00E0FEE702E007
:1003700008C8121F08C1002AFAD170477047002030
:1003800001E001C1121F002AFBD17047134882B05F
:10039000016841F480410160006800F480400090F1
:1003A0000F48016841F080510160006800F0805002
:1003B00000900C4801684FF6FF02114041F4407173
:1003C00041F0FD7141F080610160FFF73BFFFFF7F5
:1003D0001FFF054961200870FDE700004438024016
:1003E000403802400CED00E0040000200C0400083E
:1003F00000000020040000006E0300081004000844
:100400000400002004F400007E0300080024F4002F
:040000050800018965
:00000001FF
